:100000000C9488030C94C00E0C94990E0C94B003BD
:100010000C94B0030C94B0030C94B0030C94B00394
:100020000C94B0030C94B0030C94B0030C94E70E42
:100030000C94B0030C94B0030C94B0030C94B00374
:100040000C944F0E0C94B0030C9401130C94DB121F
:100050000C94B0030C94B0030C94B0030C94B00354
:100060000C94B0030C94B0030000000023002600A1
:10007000290072740092740048940078C400000053
:100080000000240027002A000000000025002800AE
:100090002B00040404040404040402020202020209
:1000A000030303030303010204081020408001023C
:1000B00004081020010204081020000000080002BB
:1000C0000100000304070000000000000000000021
:1000D000C842AEC7C8425C8FC9420A57CA42B81E5E
:1000E000CB4266E6CB4214AECC42C375CD42713DE5
:1000F000CE421F05CF42CDCCCF427B94D042295C6B
:10010000D142D723D24285EBD24233B3D342E17AF4
:10011000D4428F42D5423D0AD642CDCCD6427B94C2
:10012000D742295CD842D723D94285EBD94233B391
:10013000DA42C375DB42713DDC421F05DD42CDCCA6
:10014000DD427B94DE420A57DF42B81EE04266E69B
:10015000E042F6A8E142A470E2425238E3420000D5
:10016000E4428FC2E4423D8AE542CD4CE6427B1434
:10017000E74229DCE742B89EE8426666E942F62893
:10018000EA42A4F0EA4252B8EB42E17AEC428F42F2
:10019000ED421F05EE42CDCCEE425C8FEF420A5796
:1001A000F0429A19F14248E1F142D7A3F242856B3D
:1001B000F342142EF442A4F0F44252B8F542E17A2C
:1001C000F6428F42F7421F05F842AEC7F8425C8FF5
:1001D000F942EC51FA427B14FB4229DCFB42B89E07
:1001E000FC424861FD42F628FE4285EBFE4214AE19
:1001F000FF4252380043299C004371FD0043B85E22
:10020000014300C00143482102431F85024366E6C3
:100210000243AE470343F6A803433D0A0443856BFC
:100220000443CDCC0443142E0543EC91054333F332
:1002300005437B540643C3B506430A170743527868
:1002400007439AD90743E13A0843299C084371FDC3
:100250000843B85E094300C0094348210A438F821E
:100260000A4348E10A438F420B43D7A30B431F05C0
:100270000C4366660C43AEC70C43F6280D433D8A1B
:100280000D43F6E80D433D4A0E4385AB0E43CD0CBE
:100290000F43146E0F43CDCC0F43142E10435C8FCD
:1002A0001043A4F010435C4F1143A4B01143EC1170
:1002B0001243A4701243ECD1124333331343EC9135
:1002C000134333F313437B54144333B314437B146A
:1002D0001543C37515437BD41543C33516437B942F
:1002E0001643C3F516437B541743C3B517437B141A
:1002F0001843C37518437BD41843C33519437B9403
:100300001943C3F519437B541A43C3B51A437B14ED
:100310001B43C3751B437BD41B4333331C437B9468
:100320001C4333F31C437B541D4333B31D43EC1177
:100330001E4333731E43ECD11E43A4301F435C8F16
:100340001F43A4F01F435C4F204314AE2043CD0C49
:100350002143146E2143CDCC2143852B22433D8A7A
:100360002243F6E822433D4A2343F6A82343AE073F
:100370002443666624431FC52443D72325438F8225
:100380002543D7E325438F42264348A12643000057
:100390002743B85E274371BD2743291C2843E17AD0
:1003A00028439AD92843523829430A972943C3F549
:1003B00029437B542A4333B32A43EC112B43146E55
:1003C0002B43CDCC2B43852B2C433D8A2C43F6E885
:1003D0002C43AE472D4366A62D431F052E4348618F
:1003E0002E4300C02E43B81E2F43717D2F4329DCBE
:1003F0002F43523830430A973043C3F530437B5480
:100400003143A4B031435C0F3243146E32433DCAD2
:100410003243F6283343AE873343D7E333438F4227
:10042000344348A1344371FD3443295C354352B809
:1004300035430A173643C3753643ECD13643A430EF
:100440003743CD8C374385EB3743AE47384366A6F9
:1004500038438F0239434861394371BD3943291C00
:100460003A4352783A430AD73A4333333B435C8F9B
:100470003B4314EE3B433D4A3C43F6A83C431F0537
:100480003D4348613D4300C03D43291C3E435278F3
:100490003E430AD73E4333333F435C8F3F4385EBB4
:1004A0003F433D4A404366A640438F024143B85E06
:1004B000414371BD41439A194243C3754243ECD154
:1004C0004243142E4343CD8C4343F6E843431F4538
:1004D000444348A1444371FD44439A594543C3B53D
:1004E0004543EC114643146E46433DCA46436626D7
:1004F00047438F824743B8DE4743E13A48430A9770
:10050000484333F348435C4F494385AB4943AE0707
:100510004A43D7634A4300C04A43291C4B4352789D
:100520004B437BD44B43A4304C43CD8C4C4366E6C9
:100530004C438F424D43B89E4D43E1FA4D430A5719
:100540004E4333B34E43CD0C4F43F6684F431FC564
:100550004F4348215043E17A50430AD75043333345
:1005600051435C8F5143F6E851431F45524348A124
:100570005243E1FA52430A57534333B35343CD0C2A
:100580005443F66854438FC25443B81E5543E17A2E
:1005900055437BD45543A43056433D8A564366E6C3
:1005A000564300405743299C5743C3F55743EC51EA
:1005B000584385AB5843AE0759434861594371BD11
:1005C00059430A175A43A4705A43CDCC5A4366265E
:1005D0005B438F825B4329DC5B43C3355C43EC9117
:1005E0005C4385EB5C431F455D4348A15D43E1FAF5
:1005F0005D437B545E4314AE5E433D0A5F43D76365
:100600005F4371BD5F430A17604333736043CDCCD2
:10061000604366266143008061439AD96143C335D4
:1006200062435C8F6243F6E862438F426343299CD6
:100630006343C3F563435C4F6443F6A864431F05FB
:100640006543B85E654352B86543EC116643856BFC
:1006500066431FC56643B81E674352786743ECD1B3
:100660006743852B68431F856843B8DE6843C335FD
:1006700069435C8F6943F6E869438F426A43299C6A
:100680006A43C3F56A435C4F6B43F6A86B430000B3
:100690006C439A596C4333B36C43CD0C6D4366661F
:1006A0006D4371BD6D430A176E43A4706E433DCA1E
:1006B0006E4348216F43E17A6F437BD46F43142E1E
:1006C00070431F857043B8DE7043523871435C8FAE
:1006D0007143F6E871438F4272439A99724333F340
:1006E00072433D4A7343D7A3734371FD73437B54F5
:1006F000744314AE74431F057543B85E7543C3B5A8
:1007000075435C0F76436666764300C076435618A1
:1007100011241FBECFEFD8E0DEBFCDBF14E0A0E0B4
:10072000B1E0E4E3F6E302C005900D92AA3BB10705
:10073000D9F727E0AAEBB4E001C01D92AA36B207B0
:10074000E1F713E0C8E8D3E004C02197FE010E945E
:10075000041BC738D107C9F70E9451160C94181B07
:100760000C940000FC01738362830895FC0177837D
:1007700066830895FC0175836483089580E008957D
:10078000FC0181850895FC0180850895FC01878125
:100790000895FC0186810895FC01409595854923C3
:1007A000642B65870895FC0164870895FC016387C5
:1007B0000895FC0162870895FC0164830895FC019B
:1007C00065830895FC012281338123303105D1F303
:1007D00081E00895CF93DF93EC01E881F9810280F5
:1007E000F381E02DCE0109958823B9F3DF91CF91F4
:1007F000089581E008958F929F92AF92BF92CF9219
:10080000DF92EF92FF92CF93DF93EC016B010E9496
:10081000430E4B015C01E12CF12C0E94430EDC01E4
:10082000CB0188199909AA09BB098C159D05AE054C
:10083000BF0530F48A819B81039779F381E001C081
:1008400080E0DF91CF91FF90EF90DF90CF90BF904D
:10085000AF909F908F9008958F929F92AF92BF928A
:10086000CF92DF92EF92FF92CF93DF93EC016B0177
:100870000E94430E4B015C01E12CF12C0E94430EBF
:10088000DC01CB0188199909AA09BB098C159D05C2
:10089000AE05BF0550F4E881F9810280F381E02DB7
:1008A000CE010995882351F301C080E0DF91CF91FB
:1008B000FF90EF90DF90CF90BF90AF909F908F9080
:1008C00008959CB59C7F282F2370922B9CBD2DB53D
:1008D00082FB992790F9822F8E7F892B8DBD0895F9
:1008E000FF920F931F93CF93DF93CDB7DEB7CA511B
:1008F000D1400FB6F894DEBF0FBECDBF8BEFC65E02
:10090000DE4F8883CA51D140AE01465E5E4FBE01C4
:100910006F5F7F4F83E496E00E94320D882309F4D5
:10092000D7C061E088E00E945C136EE572E08EE55E
:1009300095E00E944F16BE016F5F7F4F8EE595E0F8
:100940000E943B1661E772E08EE595E00E944F162B
:1009500000915106002E000C110BC8010E941D16BB
:1009600089818B3609F05FC08A818E3609F093C089
:10097000FB8080E3F812B2C0083E1F4F0CF4AEC0FB
:1009800069E772E08EE595E00E943B1684E0E4E0C2
:10099000F1E0DE01A450BF4F01900D928A95E1F77E
:1009A000ECEFF0E0EC0FFD1F34968AE1DF011D92C1
:1009B0008A95E9F7C150DF4FF882CF5FD040C05031
:1009C000DF4FF882C050D14084E3CF5FDE4F888391
:1009D000C150D1408C81CE5FDE4F8883C250D14060
:1009E0008D81CD5FDE4F8883C350D1408E81CC5F37
:1009F000DE4F8883C450D1404EE1BE0164507F4F2A
:100A000083E496E00E94791083E496E00E94E2037A
:100A100066EA72E08EE595E00E943B1660E088E0B1
:100A20000E945C135BC0843709F058C08A8183360A
:100A300009F054C08B81803309F050C08C81803321
:100A400009F04CC08D81803309F048C08E81843319
:100A500009F044C080E090E011E3FC01EE0FFF1FBD
:100A6000EE0FFF1FE052FB4F2081203379F41083FB
:100A70008F818183888582838985838363EB72E09C
:100A80008EE595E00E943B1685E690E001968E315A
:100A900091051CF323C0843709F58B818233F1F46F
:100AA0009C818091CC04981319C09D818091CD04C4
:100AB000981314C09E818091CE0498130FC082E0D9
:100AC00090E0909359058093580563EC72E002C062
:100AD0006BED72E08EE595E00E943B16C65EDE4F40
:100AE0000FB6F894DEBF0FBECDBFDF91CF911F913F
:100AF0000F91FF9008954F925F926F927F92AF9205
:100B0000BF92CF92DF92EF92FF920F931F93CF93FA
:100B1000DF93CDB7DEB7C853D1400FB6F894DEBF30
:100B20000FBECDBF8091CA049091CB0403970CF007
:100B300067C00E94430EC090C604D090C704E090E6
:100B4000C804F090C904DC01CB018C199D09AE09E1
:100B5000BF09813A9F40A105B10558F00E94430E9C
:100B60006093C6047093C7048093C8049093C9042B
:100B700047C00E94430EDC01CB018C199D09AE09D0
:100B8000BF09803A9F40A105B105D1F567EE72E03B
:100B90008EE595E00E943B1684E0E2E2F1E0DE01A2
:100BA000119601900D928A95E1F7FE0135968AE142
:100BB000DF011D928A95E9F780E38C838D8384E3BE
:100BC0008E834EE1BE016F5F7F4F83E496E00E940B
:100BD000791083E496E00E94E2030E94430E609342
:100BE000C6047093C7048093C8049093C90480918D
:100BF000CA049091CB0401969093CB048093CA04CD
:100C00000E94430EC090C204D090C304E090C4047C
:100C1000F090C504DC01CB018C199D09AE09BF0918
:100C2000813A9F40A105B10558F00E94430E6093A0
:100C3000C2047093C3048093C4049093C5041EC17E
:100C40000E94430EDC01CB018C199D09AE09BF093E
:100C5000803A9F40A105B10509F010C160E173E041
:100C60008EE595E00E943B1681E480937C008091A4
:100C70007A00806480937A0080917A0086FDFCCFB0
:100C8000609178008091790070E0782B072E000C3D
:100C9000880B990B0E94E11820915E0730915F0745
:100CA00040916007509161070E94401920E030E0B8
:100CB00040E85AE30E9440196B017C0120E030E0DB
:100CC00041EE54E40E94401923E333E848E755E439
:100CD0000E94211A2B013C01A70196016AE47CE0E5
:100CE0008FE192E40E94201A9B01AC01C301B20182
:100CF0000E948D1A2B013C0107EC10E08FE8A82E12
:100D0000BB24B394C12CD12CF801EE0FFF1FEE0FC2
:100D1000FF1FCF0182539F4F7C01FC01259135912C
:100D200045915491C301B2010E94DA18882341F120
:100D3000F7012591359145915491C301B2010E946B
:100D4000FF1A18160CF0C1C268019FEFC91AD90A20
:100D5000F601EE0FFF1FEE0FFF1FE253FF4F25912D
:100D6000359145915491C301B2010E94FF1A1816A2
:100D70000CF4ABC2A801C301B2010E9481148C0122
:100D800064E273E08EE595E00E944F16A801110F12
:100D9000660B770B77FF05C0CB01BA010E94FA15ED
:100DA00005C02AE08EE595E00E94B11564E373E08A
:100DB0008EE595E00E943B1684E0E0E4F1E0DE0180
:100DC000119601900D928A95E1F7FE0135968AE120
:100DD000DF011D928A95E9F78091CC048C83809184
:100DE000CD048D838091CE048E8380E38F838887AA
:100DF00094E399878A878B879C870D8769E373E0E3
:100E00008EE595E00E944F162AE04EE150E060E04A
:100E100070E08EE595E00E94B1156FE874E08EE514
:100E200095E00E949C154EE1BE016F5F7F4F83E409
:100E300096E00E94791083E496E00E94E2030E940B
:100E4000430E6093C2047093C3048093C4049093D0
:100E5000C5048091C0049091C10401969093C1048F
:100E60008093C00460E473E08EE595E00E944F1625
:100E70008091C0049091C1040E941D1683E496E005
:100E80000E94F610882309F4F1C18BEFC85CDE4F95
:100E90008883C853D140AE01485C5E4FBE016F5F8E
:100EA0007F4F83E496E00E94320D882309F4D8C175
:100EB00061E088E00E945C136EE572E08EE595E0EB
:100EC0000E944F16BE016F5F7F4F8EE595E00E9436
:100ED0003B1689818B3629F08981843609F02AC135
:100EE000F6C08A818736C1F78B818133A9F780E00C
:100EF00090E04AE1C42E0AE111E00C0F1D1F0C5FC7
:100F00001F4F5CEFE52EF12CEC0EFD1EB4E0EB0E56
:100F1000F11CFC01EE0FFF1FEE0FFF1FE052FB4F15
:100F20002081213309F0CDC02C81203309F0C9C0C4
:100F3000DD80D212C6C0BE80A4E3BA12C2C03F8117
:100F400021813213BEC0388522813213BAC039855F
:100F500023813213B6C084E0E0E4F1E0DE01A65E56
:100F6000BE4F01900D928A95E1F7F8012C2D119258
:100F70002A95E9F78091CC04C35EDE4F8883CD517A
:100F8000D1408091CD04C25EDE4F8883CE51D140E6
:100F90008091CE04C15EDE4F8883CF51D1408091D5
:100FA000FA01C05EDE4F8883C052D1408091FB01C0
:100FB000CF5DDE4F8883C152D1408091FC01CE5D70
:100FC000DE4F8883C252D1408A85CD5DDE4F888353
:100FD000C352D1408B85CC5DDE4F8883C452D14053
:100FE0008C85CB5DDE4F8883C552D1408D85CA5D2F
:100FF000DE4F8883C652D1408E85C95DDE4F88831F
:10100000C752D1404EE1BE01665E7E4F83E496E05A
:101010000E94791083E496E00E94E20384E0EEE50A
:10102000F1E0DE01A450BF4F01900D928A95E1F7E7
:10103000D701EC2D1D92EA95E9F7C35EDE4FD88209
:10104000CD51D140C25EDE4FD882CE51D140C15E7B
:10105000DE4FB882CF51D1408F81C05EDE4F888392
:10106000C052D1408885CF5DDE4F8883C152D140C8
:101070008985CE5DDE4F8883C252D1404EE1BE01EC
:1010800064507F4F83E496E00E94791083E496E0F9
:101090000E94E2038091C0049091C1040196909354
:1010A000C1048093C00460E473E08EE595E00E9483
:1010B0004F168091C0049091C1040E941D1685E6D0
:1010C00090E001968E3191050CF423CF05CF8A81F3
:1010D0008E3681F58B81813369F59C818091CC04BA
:1010E000981328C09D818091CD04981323C09E81C0
:1010F0008091CE0498131EC08F818033D9F48885E7
:101100008033C1F489858433A9F48091BE04909121
:10111000BF0401969093BF048093BE046DE473E016
:101120008EE595E00E944F168091BE049091BF0419
:101130000E941D1689818B3609F05AC08A818E362D
:1011400009F056C01B81103309F052C06BE573E003
:101150008EE595E00E943B1684E0ECE7F1E0DE01CD
:10116000A450BF4F01900D928A95E1F7ECEFF0E0AB
:10117000EC0FFD1F34968AE1DF011D928A95E9F795
:10118000C150DF4F1883CF5FD040C050DF4F18836E
:10119000C050D14084E3CF5FDE4F8883C150D1403F
:1011A0008C81CE5FDE4F8883C250D1408D81CD5F70
:1011B000DE4F8883C350D1408E81CC5FDE4F888361
:1011C000C450D1404EE1BE0164507F4F83E496E0AD
:1011D0000E94791083E496E00E94E20366EA72E0DE
:1011E0008EE595E00E943B1660E088E00E945C136B
:1011F0008981843729F060E088E00E945C1336C062
:101200008A818336C1F78B818033A9F78C81803343
:1012100091F78D81803379F78E81843361F780E097
:1012200090E011E3FC01EE0FFF1FEE0FFF1FE052F5
:10123000FB4F2081203379F410838F81818388854F
:1012400082838985838363EB72E08EE595E00E945B
:101250003B1685E690E00196843691051CF3CBCFD2
:101260006BED72E08EE595E00E943B168091C00424
:101270009091C1048A30910509F059C02091BE04B3
:101280003091BF04821B930B03975CF41092C1044E
:101290001092C0048FEF9FEF9093BF048093BE0421
:1012A00046C0109259051092580580E38093CC04F3
:1012B0008093CD048093CE041092C1041092C00498
:1012C0001092BF041092BE0432C0F70125913591EF
:1012D00045915491C301B2010E94DA1887FF17C0EB
:1012E0005801A1E0AA1AB108F501EE0FFF1FEE0F99
:1012F000FF1FE253FF4F2591359145915491C30152
:10130000B2010E94DA1887FD02C0A50134CD850123
:101310000C191D0917FF02C00F5F1F4F1595079588
:101320000C0D1D1DCA14DB040CF02ACDEDCCC85CDD
:10133000DE4F0FB6F894DEBF0FBECDBFDF91CF9169
:101340001F910F91FF90EF90DF90CF90BF90AF90E3
:101350007F906F905F904F900895CF92DF92EF92C1
:10136000FF920F931F93CF93DF93CDB7DEB7CA5190
:10137000D1400FB6F894DEBF0FBECDBF0E94430E22
:10138000C090BA04D090BB04E090BC04F090BD04BF
:10139000DC01CB018C199D09AE09BF09813A9F4040
:1013A000A105B105A0F50E94430EDC01CB018C190B
:1013B0009D09AE09BF09803A9F40A105B10589F595
:1013C0006EE673E08EE595E00E943B1684E0EAE964
:1013D000F1E0DE01119601900D928A95E1F7FE0190
:1013E00035968AE1DF011D928A95E9F780E38C83C7
:1013F0008D8384E38E834EE1BE016F5F7F4F83E474
:1014000096E00E94791083E496E00E94E2030E9435
:10141000430E6093BA047093BB048093BC04909312
:10142000BD0483E496E00E94F610882309F4FAC014
:101430008BEFC65EDE4F8883CA51D140AE01465E57
:101440005E4FBE016F5F7F4F83E496E00E94320DD6
:10145000882309F4E1C061E088E00E945C136EE536
:1014600072E08EE595E00E944F16BE016F5F7F4FE0
:101470008EE595E00E943B1669E973E08EE595E004
:101480000E944F1600915106002E000C110BC8014E
:101490000E941D1689818B3609F065C08A818E36BF
:1014A00009F099C0FB80B0E3FB12BCC0033E1F4FA4
:1014B0000CF4B8C063EA73E08EE595E00E943B1639
:1014C0006BEB73E08EE595E00E943B1684E0EAE961
:1014D000F1E0DE01A450BF4F01900D928A95E1F733
:1014E000ECEFF0E0EC0FFD1F34968AE1DF011D9276
:1014F0008A95E9F7C150DF4FF882CF5FD040C050E6
:10150000DF4FF882C050D14084E3CF5FDE4F888345
:10151000C150D1408C81CE5FDE4F8883C250D14014
:101520008D81CD5FDE4F8883C350D1408E81CC5FEB
:10153000DE4F8883C450D1404EE1BE0164507F4FDE
:1015400083E496E00E94791083E496E00E94E2032F
:1015500066EA72E08EE595E00E943B1660E088E066
:101560000E945C135FC0843709F05CC08A818336B7
:1015700009F058C08B81803309F054C08C818033CE
:1015800009F050C08D81803309F04CC08E818433C6
:1015900009F048C080E090E011E3FC01EE0FFF1F6E
:1015A000EE0FFF1FE052FB4F2081203379F41083B0
:1015B0008F818183888582838985838363EB72E051
:1015C0008EE595E00E943B1685E690E001968E310F
:1015D00091051CF327C0873629F58B81803311F5DF
:1015E0009C818091CC0498131DC09D818091CD0475
:1015F000981318C09E818091CE04981313C069EE91
:1016000073E08EE595E00E943B1683E090E09093B6
:1016100059058093580506C06BED72E08EE595E0A4
:101620000E943B16C65EDE4F0FB6F894DEBF0FBEBB
:10163000CDBFDF91CF911F910F91FF90EF90DF9081
:10164000CF900895CF92DF92EF92FF920F931F9366
:10165000CF93DF93CDB7DEB7CA51D1400FB6F89420
:10166000DEBF0FBECDBF0E94430EC090BA04D09023
:10167000BB04E090BC04F090BD04DC01CB018C19EC
:101680009D09AE09BF09813A9F40A105B105A0F5AA
:101690000E94430EDC01CB018C199D09AE09BF09E4
:1016A000803A9F40A105B10589F566EF73E08EE5AC
:1016B00095E00E943B1684E0E8EBF1E0DE01119634
:1016C00001900D928A95E1F7FE0135968AE1DF01DE
:1016D0001D928A95E9F780E38C838D8384E38E8362
:1016E0004EE1BE016F5F7F4F83E496E00E94791068
:1016F00083E496E00E94E2030E94430E6093BA04E2
:101700007093BB048093BC049093BD0483E496E083
:101710000E94F610882309F471C18BEFC65EDE4F7C
:101720008883CA51D140AE01465E5E4FBE016F5FF5
:101730007F4F83E496E00E94320D882309F458C15C
:1017400061E088E00E945C1360E274E08EE595E061
:101750000E944F16BE016F5F7F4F8EE595E00E949D
:101760003B1665E374E08EE595E00E944F1680918C
:101770005106082E000C990B0E941D1689818B368C
:1017800009F031C18A81843709F02DC18B81813301
:1017900009F068C08F81803309F025C118851033A6
:1017A00009F021C10985043309F01DC16FE374E01C
:1017B0008EE595E00E943B162C812093CC049D8100
:1017C0009093CD048E818093CE0434E0E6EDF1E079
:1017D000DE01A450BF4F01900D923A95E1F7ECEF76
:1017E000F0E0EC0FFD1F34963AE1DF011D923A95CF
:1017F000E9F7C150DF4F2883CF5FD040C050DF4FA3
:101800009883C050D140CF5FDE4F8883C150D14014
:10181000CE5FDE4F1883C250D140CD5FDE4F1883BC
:10182000C350D140CC5FDE4F0883C450D14067E540
:1018300074E08EE595E00E944F166CEC74E08EE546
:1018400095E00E943B164EE1BE0164507F4F83E459
:1018500096E00E94791083E496E00E94E20381E022
:1018600090E0BDC0823309F05CC08F81803309F005
:10187000BAC01885103309F0B6C00985043309F0E1
:10188000B2C063EA73E08EE595E00E943B162C81BE
:101890002093CC049D819093CD048E818093CE04BF
:1018A00034E0E6EDF1E0DE01A450BF4F01900D926F
:1018B0003A95E1F7ECEFF0E0EC0FFD1F34963AE1DA
:1018C000DF011D923A95E9F7C150DF4F2883CF5FC2
:1018D000D040C050DF4F9883C050D140CF5FDE4F23
:1018E0008883C150D140CE5FDE4F1883C250D140B3
:1018F000CD5FDE4F1883C350D140CC5FDE4F0883ED
:10190000C450D1404EE1BE0164507F4F83E496E065
:101910000E94791083E496E00E94E20382E090E066
:101920005EC0833309F05FC08F81803309F05BC0F4
:101930001885103309F057C00985043309F053C0E6
:1019400068E674E08EE595E00E943B162C812093BA
:10195000CC049D819093CD048E818093CE0434E09D
:10196000E6EDF1E0DE01A450BF4F01900D923A95F3
:10197000E1F7ECEFF0E0EC0FFD1F34963AE1DF0108
:101980001D923A95E9F7C150DF4F2883CF5FD040D1
:10199000C050DF4F9883C050D140CF5FDE4F888367
:1019A000C150D140CE5FDE4F1883C250D140CD5FD1
:1019B000DE4F1883C350D140CC5FDE4F0883C45044
:1019C000D1404EE1BE0164507F4F83E496E00E9417
:1019D000791083E496E00E94E20383E090E0909324
:1019E00059058093580560E088E00E945C1306C0AA
:1019F0006BED72E08EE595E00E943B16C65EDE4F11
:101A00000FB6F894DEBF0FBECDBFDF91CF911F910F
:101A10000F91FF90EF90DF90CF90089508958BEF96
:101A200008959FB7F8948091CF04882319F08150CE
:101A30008093CF048091CF04811103C08CB58F7B3C
:101A40008CBD9FBF08958CB58F778CBD08958CB5E4
:101A500080688CBD08956EBD00000DB407FEFDCFFB
:101A60008EB50895CF92DF92EF92FF920F931F935E
:101A7000CF93DF93EC017B018A01E881F981028039
:101A8000F381E02D0995D82E882331F1E114F1047A
:101A9000D9F001151105C1F0CFB6F8948A8D90E008
:101AA0000397F801208130E0281739071CF08A8D50
:101AB00084508083F801408150E0BE01615E7F4F19
:101AC000C7010E940F1BCFBE8FB7F894FE01E65EE0
:101AD000FE4F10821A8E8FBF8D2DDF91CF911F91F7
:101AE0000F91FF90EF90DF90CF9008958091D504F3
:101AF0009091D604009711F00C94F51408958091FC
:101B0000D3049091D404009711F00C94F514089527
:101B10008091D1049091D204009711F00C94F514A7
:101B20000895CF93DF93EC018D899E89DC01ED91BF
:101B3000FC910680F781E02D099561E08F890E9474
:101B40008B1361E08F890E945C1364E670E080E093
:101B500090E00E94C71381E0DF91CF910895CF9369
:101B6000DF93FC01268137812115310579F0213081
:101B7000310541F02230310539F02330310531F49F
:101B80009CE005C094E003C098E001C090E08CB5F3
:101B9000837F982B9CBD84819581019709F04AC071
:101BA0008CB580628CBD82819381019784309105D0
:101BB00028F4FC01E850FE4FC08101C0C1E08C2F29
:101BC0000E946104DFB7F8948091CF04811127C08F
:101BD000ECE9F0E08491E0EBF0E09491E82FF0E0A4
:101BE000EE0FFF1FE258FF4FA591B491EC91E9234E
:101BF00021F461E08AE00E945C1361E08AE00E94C7
:101C00008B138CB580618CBD8CB580648CBD61E01C
:101C10008DE00E948B1361E08BE00E948B1380911A
:101C2000CF048F5F8093CF04DFBF8C2FDF91CF91E4
:101C30000C9461049CB59F7D9CBDB5CF3FB7F894D3
:101C40008091DC049091DD04A091DE04B091DF046A
:101C500026B5A89B05C02F3F19F00196A11DB11D07
:101C60003FBFBA2FA92F982F8827820F911DA11D42
:101C7000B11DBC01CD0142E0660F771F881F991F7F
:101C80004A95D1F708952FB7F8946091D8047091D0
:101C9000D9048091DA049091DB042FBF08951F923C
:101CA0000F920FB60F9211242F933F938F939F9310
:101CB000AF93BF938091D8049091D904A091DA0496
:101CC000B091DB043091D70423E0230F2D3720F4AB
:101CD0000196A11DB11D05C026E8230F0296A11D86
:101CE000B11D2093D7048093D8049093D904A09376
:101CF000DA04B093DB048091DC049091DD04A091C0
:101D0000DE04B091DF040196A11DB11D8093DC04B7
:101D10009093DD04A093DE04B093DF04BF91AF91F4
:101D20009F918F913F912F910F900FBE0F901F9019
:101D300018951F920F920FB60F9211242F933F9375
:101D40004F935F936F937F938F939F93AF93BF93C3
:101D5000EF93FF93E0910201F09103010995FF9148
:101D6000EF91BF91AF919F918F917F916F915F9113
:101D70004F913F912F910F900FBE0F901F9018958C
:101D80001F920F920FB60F9211242F933F934F93F0
:101D90005F936F937F938F939F93AF93BF93EF93D3
:101DA000FF93E0910001F09101010995FF91EF91FE
:101DB000BF91AF919F918F917F916F915F914F9163
:101DC0003F912F910F900FBE0F901F9018951F926B
:101DD0000F920FB60F9211242F933F934F935F935F
:101DE0006F937F938F939F93AF93BF93CF93DF9323
:101DF000EF93FF938091020090910300049709F004
:101E0000CCC02091170030E0F901E654FF4F8491D7
:101E1000F901EA55FF4FD491F901EE56FF4FC491F5
:101E2000CC2379F081110E943313EC2FF0E0EE0FF8
:101E3000FF1FE859FF4FA591B491EC91ED2381E08C
:101E400009F480E0817090911A00892729F090911F
:101E50001F009F5F90931F0090911E00981761F0E4
:101E600090B1903510F09DE101C09BE020B1920F40
:101E700090B980931E0003C080B18C5E80B980B1A0
:101E8000803A08F4DEC082B193B19695879593B9F4
:101E900082B980911F00853028F082B193B198609B
:101EA00093B982B980B1805A80B910921F0081B174
:101EB000882309F466C084B18F5F84B98C3008F43C
:101EC000C0C082B193B1982F9F73892F8695869554
:101ED000887028E0280F281749F0E82FF0E0E45038
:101EE000FE4F3081931719F08F5FF5CF80E020E12E
:101EF000829FC001112422B133B196E03695279517
:101F00009A95E1F7422F36952795369527952870B3
:101F100038E0320F321749F0E22FF0E0E450FE4F84
:101F20005081451719F02F5FF5CF20E0822B90915B
:101F300069009923B9F0E091690091E09E0F9093B8
:101F40006900F0E085A3909169008091680098177E
:101F5000B0F011B881E080931C0080E090E00E9416
:101F6000DD140DC08093680090916800973008F4EC
:101F70005EC090916800943408F059C0DCCF14B86A
:101F800060C082B193B188339B4009F05AC081E0B0
:101F900081B914B81092690054C0809102009091E8
:101FA0000300039709F04DC080916C0091E0980FF9
:101FB00090936C00811134C0E0916A008091FB0025
:101FC000E81770F080E090E00E94DD14809113002B
:101FD000909114000196909314008093130020C0F8
:101FE000F0E0E359FF4F608170E080916B0091E079
:101FF000980F90936B0002C0759567958A95E2F7EC
:102000006170809118000E945C1380916B00863093
:1020100038F010926B0080916A008F5F80936A00A5
:1020200080916C00883068F010926C000AC011B882
:1020300080910F0090911000019690931000809372
:102040000F00FF91EF91DF91CF91BF91AF919F91E1
:102050008F917F916F915F914F913F912F910F9051
:102060000FBE0F901F901895FF920F931F93CF9361
:10207000DF93EC01162FF42E0FB7F89460E08F89F0
:102080000E945C138D899E89612F6068DC01ED914F
:10209000FC910190F081E02D0995182F8D899E8982
:1020A000DC01ED91FC910190F081E02D6F2D0995FF
:1020B00061E08F890E945C130FBF812FDF91CF9168
:1020C0001F910F91FF900895CF93DF93FC01228120
:1020D00033812130310549F0EC0140E061E00E949C
:1020E000341081E090E09B838A8381E0DF91CF917F
:1020F0000895CF92DF92EF92FF920F931F93CF93A9
:10210000DF934C3F08F066C0142F072FF62EEC012A
:10211000E881F9810484F585E02D0995CE010E94BE
:10212000531440E06DE0CE010E9434104A8560E017
:10213000CE010E9434104B8560E0CE010E94341025
:102140004C8560E0CE010E9434104D8560E0CE01E8
:102150000E943410EFB6F89460E08F890E945C13FF
:102160008D899E89DC01ED91FC910190F081E02D3B
:1021700060E80995CF2CD02E012F015068F08D8991
:102180009E89F60161916F01DC01ED91FC91019056
:10219000F081E02D0995F1CF61E08F890E945C13F9
:1021A000EFBE44E0410F62E2CE010E9434108A810A
:1021B0009B81039789F043E061E0CE010E943410D7
:1021C00040E460E4CE010E94341083E090E09B8301
:1021D0008A8302C080E001C081E0DF91CF911F912E
:1021E0000F91FF90EF90DF90CF900895CF93DF9302
:1021F000FC012281338123303105B9F0EC01828169
:102200009381049771F045E061E0CF010E943410A2
:1022100040E060E4CE010E94341084E090E09B83B3
:102220008A83C65EDE4F888101C080E0DF91CF9156
:1022300008950F931F93CF93DF93EC01162F0FB7E1
:10224000F89460E08F890E945C138D899E89612FCC
:102250006F77DC01ED91FC910190F081E02D099503
:102260008D899E89DC01ED91FC910190F081E02D3A
:1022700060E00995182F61E08F890E945C130FBF01
:10228000812FDF91CF911F910F910895EF92FF92CF
:102290000F931F93CF93DF9300D01F92CDB7DEB77C
:1022A0008C010E94910DE82E811102C0E12C90C09A
:1022B000F801808D823029F08330C1F7FF24F39438
:1022C00001C0F12C40E861E0C8010E9434106AE0CE
:1022D00070E080E090E00E94C71361E0C8010E94B6
:1022E0001911803819F760E0F801808D0E948B1376
:1022F000F801818D8F3F49F48091D0048430B0F68D
:1023000091E0980F9093D004818FF801818DE82F90
:10231000F0E0EE0FFF1FEF52FB4F1183008381119E
:1023200003C068E87DE00AC0813019F46FE77DE002
:1023300005C0823009F0BACF66E77DE08F2D0E949C
:10234000671440E06EE0C8010E94341040E06FE086
:10235000C8010E943410C8010E94531443E050E0A9
:1023600062E770E0CE0101960E94D11849816DE1CB
:10237000C8010E9434104A816EE1C8010E943410E5
:102380004B8166E2C8010E94341040E060E2C8015F
:102390000E94341048E061E2C8010E9434104CE60B
:1023A00066E0C8010E94341040E867E0C8010E945E
:1023B000341040E068E0C8010E94341044E06DE44D
:1023C000C8010E94341048E869E0C8010E94341036
:1023D0008E2D0F900F900F90DF91CF911F910F9145
:1023E000FF90EF900895089580E090E00895FC013B
:1023F000538D448D252F30E0842F90E0821B930B6A
:10240000541710F0CF96089501970895FC01918D0F
:10241000828D981761F0828DDF01A80FB11D5D9646
:102420008C91928D9F5F9F73928F90E008958FEFB4
:102430009FEF0895FC01918D828D981731F0828D68
:10244000E80FF11D858D90E008958FEF9FEF0895BF
:10245000FC01918D228D892F90E0805C9F4F821B23
:1024600091098F73992708958EE595E00E942812AF
:1024700021E0892B09F420E0822F0895FC01848D4E
:10248000DF01A80FB11DA35ABF4F2C91848D90E09E
:1024900001968F739927848FA689B7892C93A08979
:1024A000B1898C91837080648C93938D848D981303
:1024B00006C00288F389E02D80818F7D8083089596
:1024C000EF92FF920F931F93CF93DF93EC0181E084
:1024D000888F9B8D8C8D981305C0E889F989808140
:1024E00085FD26C0F62E0B8D10E00F5F1F4F0F737A
:1024F0001127E02E8C8DE8120CC00FB607FCFACF26
:10250000E889F989808185FFF5CFCE010E943E12CE
:10251000F1CF8B8DFE01E80FF11DE35AFF4FF082E2
:102520009FB7F8940B8FEA89FB89808180620AC08B
:102530009FB7F894EE89FF896083E889F9898081E3
:102540008370806480839FBF81E090E0DF91CF91B2
:102550001F910F91FF90EF900895CF93DF93EC01BF
:10256000888D8823C9F0EA89FB89808185FD05C0B3
:10257000A889B9898C9186FD0FC00FB607FCF5CFED
:10258000808185FFF2CFA889B9898C9185FFEDCF35
:10259000CE010E943E12E7CFDF91CF91089580E0F7
:1025A00090E0892B29F00E94341281110C940000D4
:1025B00008950E940A1B1F920F920FB60F921124CA
:1025C0002F933F934F935F936F937F938F939F933B
:1025D000AF93BF93EF93FF938EE595E00E943E1279
:1025E000FF91EF91BF91AF919F918F917F916F91EB
:1025F0005F914F913F912F910F900FBE0F901F90C1
:1026000018951F920F920FB60F9211242F938F934C
:102610009F93EF93FF93E0916E05F0916F0580819A
:10262000E0917405F091750582FD12C09081809152
:1026300077058F5F8F7320917805821751F0E091B5
:102640007705F0E0E25AFA4F958F8093770501C045
:102650008081FF91EF919F918F912F910F900FBEED
:102660000F901F901895833081F028F4813099F0F5
:102670008230A1F008958730A9F08830B9F0843015
:10268000D1F4809180008F7D03C0809180008F778E
:1026900080938000089584B58F7702C084B58F7DC4
:1026A00084BD08958091B0008F7703C08091B00001
:1026B0008F7D8093B00008951F93CF93DF93282FD1
:1026C00030E0F901E654FF4F8491F901EA55FF4FDC
:1026D000D491F901EE56FF4FC491CC23C1F0162FCF
:1026E00081110E943313EC2FF0E0EE0FFF1FE8572B
:1026F000FF4FA591B4919FB7F894111104C08C912C
:10270000D095D82302C0EC91DE2BDC939FBFDF91E4
:10271000CF911F910895CF93DF9390E0FC01EA558C
:10272000FF4F2491FC01EE56FF4F8491882361F105
:1027300090E0880F991FFC01E258FF4FC591D4919A
:10274000FC01E857FF4FA591B491611109C09FB7F3
:10275000F8948881209582238883EC912E230BC0E6
:10276000623061F49FB7F8948881322F30958323CB
:102770008883EC912E2B2C939FBF06C08FB7F894C3
:10278000E8812E2B28838FBFDF91CF9108958F9200
:102790009F92AF92BF92CF92DF92EF92FF926B0126
:1027A0007C010E941E0E4B015C01C114D104E104A6
:1027B000F104F1F00E941E0EDC01CB018819990989
:1027C000AA09BB09883E9340A105B10570F321E039
:1027D000C21AD108E108F10888EE880E83E0981E3D
:1027E000A11CB11CC114D104E104F10419F7DDCF1F
:1027F000FF90EF90DF90CF90BF90AF909F908F9021
:102800000895CF92DF92EF92FF920F931F93CF9391
:10281000DF936C017A018B01C0E0D0E0CE15DF05BB
:1028200081F0D8016D918D01D601ED91FC9101905F
:10283000F081E02DC6010995892B11F02196EECF8C
:102840007E01C701DF91CF911F910F91FF90EF9013
:10285000DF90CF900895EEE5F5E0A089B18982E0A0
:102860008C93A485B5851C92A685B7858FEC8C9337
:10287000108EA489B58986E08C93A289B3898C9146
:1028800080618C93A289B3898C9188608C93A28992
:10289000B3898C9180688C930288F389E02D8081C4
:1028A0008F7D80830895CF93DF93FC012281338154
:1028B0002230310549F0EC0141E061E00E94341022
:1028C00082E090E09B838A83DF91CF9108958230EC
:1028D000B8F4E82FF0E0EE0FFF1FE050FF4F7183D8
:1028E0006083813039F08091690083608093690052
:1028F000E89A0895809169008C6080936900E99A54
:1029000008954F925F926F927F928F929F92AF92B3
:10291000BF92CF92DF92EF92FF920F931F93CF93CC
:10292000DF93EA019A01220F331F220F331FD901CF
:10293000A253BF4FFD0125913591459154918E01D0
:102940000F5F1F4FF801EE0FFF1FEE0FFF1FE25347
:10295000FF4F85909590A590B490FD0145905590BE
:10296000659074900E94201A6B017C01A301920172
:10297000C501B4010E94201A20E030E040E05FE38E
:102980000E9440199B01AC01C701B6010E94FF1AC9
:1029900018160CF08E01C801DF91CF911F910F9195
:1029A000FF90EF90DF90CF90BF90AF909F908F906F
:1029B0007F906F905F904F900895CF93DF93FC01CD
:1029C000228133812230310569F0EC01638D818DE4
:1029D0000E945C1360E0888D0E945C1382E090E0AE
:1029E0009B838A83DF91CF910895DF92EF92FF92CC
:1029F0000F931F93CF93DF93EC0162E10E941911B3
:102A00002A813B812430310521F4982F907A09F0F6
:102A100069C02A813B812430310509F074C086FFEA
:102A200072C063E1CE010E941911082F60E1CE014E
:102A30000E941911482F6DE0CE010E943410DFB6BC
:102A4000F89460E08F890E945C138D899E89DC0177
:102A5000ED91FC910190F081E02D60E009957E01FF
:102A6000BBE1EB0EF11C102F112379F08D899E89AB
:102A7000DC01ED91FC910190F081E02D60E0099581
:102A8000F70181937F011150EFCF61E08F890E94A0
:102A90005C13DFBE0A8F4FEF62E1CE010E9434105B
:102AA0006AE1CE010E94191189588E878A8DFE0134
:102AB000E65EFE4F843090F08B8D8E838C8D8F83FD
:102AC0008D8D88878E8D89878D81811129C09E810A
:102AD0008C81981729F18E818F3F11F18081882395
:102AE00031F026C08F8598890196988B8F874FEF9C
:102AF00062E1CE01DF91CF911F910F91FF90EF9096
:102B0000DF900C9434102A813B812330310579F712
:102B100083FFEDCF8B899C8901969C8B8B8B08C0A2
:102B200089899A8901969A8B898B81E08083D6CF97
:102B3000CE010E945314DBCF6115710579F0FB01C2
:102B400001900020E9F73197AF01461B570BDC01DC
:102B5000ED91FC910280F381E02D099480E090E0FA
:102B600008958F929F92AF92BF92EF92FF920F9330
:102B70001F93CF93DF93CDB7DEB7A1970FB6F8942D
:102B8000DEBF0FBECDBF7C01FA01CB0119A22230FE
:102B900008F42AE08E010F5D1F4F822E912CA12C8C
:102BA000B12CBF01A50194010E94FE19F901CA01CF
:102BB000015011096A3014F4605D01C0695CD801EC
:102BC0006C93232B242B252B61F7B801C7010E949E
:102BD0009C15A1960FB6F894DEBF0FBECDBFDF9156
:102BE000CF911F910F91FF90EF90BF90AF909F906A
:102BF0008F900895CF92DF92EF92FF92CF93DF9361
:102C00006B017C016DE28EE595E00E946012EC01A3
:102C100044275527BA014C195D096E097F092AE03E
:102C20008EE595E00E94B1158C0F9D1FDF91CF912D
:102C3000FF90EF90DF90CF900895CF93DF93AC019A
:102C4000990F660B770B77FF05C0CB01BA010E9485
:102C5000FA1505C02AE08EE595E00E94B115EC0159
:102C60006FE874E08EE595E00E949C158C0F9D1F27
:102C7000DF91CF9108950F931F93CF93DF93EC01D2
:102C80000E949C158C016FE874E0CE010E949C1597
:102C9000800F911FDF91CF911F910F9108950C9498
:102CA0009C15789484B5826084BD84B5816084BDB0
:102CB00085B5826085BD85B5816085BD80916E00DA
:102CC000816080936E00109281008091810082600B
:102CD0008093810080918100816080938100809148
:102CE00080008160809380008091B1008460809337
:102CF000B1008091B00081608093B00080917A0033
:102D0000846080937A0080917A00826080937A0058
:102D100080917A00816080937A0080917A00806847
:102D200080937A001092C10010923F0610924006E4
:102D300010924106109242061092FD051092FE0577
:102D40001092FF05109200060E94430E6B017C0159
:102D50004B015C0128EB820E2BE0921EA11CB11CE2
:102D60000E94430E6C157D058E059F0528F0861682
:102D70009706A806B906A0F78EE595E090933E0663
:102D800080933D060E942B140E94430E6093FD0524
:102D90007093FE058093FF059093000660E874E051
:102DA00080913D0690913E060E944F160E94430E70
:102DB0006B017C014B015C013AE0830E911CA11C6C
:102DC000B11C0E94430E6C157D058E059F0528F0F1
:102DD00086169706A806B906A0F781E0809311062B
:102DE0000E942B1483E496E00E944611811106C0D4
:102DF00062E974E08EE595E00E943B16E0EEF4E0B7
:102E000080E38083818382838383349645E0E83541
:102E1000F407B9F784EF882E99249394A12CB12C50
:102E20000E94430E672B682B692B41F40E94430ECE
:102E3000623071058105910508F409C10E94430EB5
:102E4000C0905A05D0905B05E0905C05F0905D0560
:102E50006C157D058E059F0540F460935A057093AF
:102E60005B0580935C0590935D05C0905A05D090FA
:102E70005B05E0905C05F0905D059B01AC012C19B1
:102E80003D094E095F0969017A013AEFC316D10481
:102E9000E104F10408F4DBC060935A0570935B050C
:102EA00080935C0590935D058092090690920A06D6
:102EB000A0920B06B0920C0610920D0610920E0610
:102EC00010920F0610921006809101069091020652
:102ED000A0910306B0910406809305069093060620
:102EE000A0930706B09308060E94430E6093010664
:102EF0007093020680930306909304060E94430E8B
:102F00006093FD057093FE058093FF059093000686
:102F10000E94430E6B017C016EE974E080913D06D6
:102F200090913E060E944F162AE041E050E060E09A
:102F300070E080913D0690913E060E94B11565EAD1
:102F400074E080913D0690913E060E944F162AE063
:102F5000B701A60180913D0690913E060E94B115F1
:102F600067EA74E080913D0690913E060E944F16FC
:102F70008091010690910206A0910306B09104068B
:102F8000B701A601481B590B6A0B7B0B2AE0809105
:102F90003D0690913E060E94B11567EA74E080916B
:102FA0003D0690913E060E944F16409101065091B9
:102FB00002066091030670910406809105069091C7
:102FC0000606A0910706B0910806481B590B6A0B2C
:102FD0007B0B2AE080913D0690913E060E94B11540
:102FE00069EA74E080913D0690913E060E944F167A
:102FF0000E94430EAB01BC012AE080913D069091F6
:103000003E060E94B1156BEA74E080913D069091F6
:103010003E060E943B160E94430E6B017C012B0171
:103020003C0145E0440E511C611C711C0E94430E82
:103030006C157D058E059F0598F50E94430E6093E3
:103040000106709302068093030690930406809114
:10305000580590915905009719F40E94220B1DC044
:103060008130910549F483E496E00E94F6108823AC
:10307000A1F00E94700411C08230910519F40E94E1
:10308000AD090BC0039719F40E947B0506C062EBE3
:1030900074E08EE595E00E943B160E94CF12C0CEF0
:1030A000461657066806790608F6C7CFEEE5F5E03E
:1030B0001382128288EE93E0A0E0B0E084839583CF
:1030C000A683B78380E192E09183808385EC90E0D2
:1030D0009587848784EC90E09787868780EC90E0E2
:1030E000918B808B81EC90E0938B828B82EC90E0D3
:1030F000958B848B86EC90E0978B868B118E128E4D
:10310000138E148EEBEFF5E016821782108611866F
:10311000128613861486158616861786108A118ADB
:10312000128A138A148A158AA2E6B7E013961C92B3
:103130001E92129715961C921E92149717961C9227
:103140001E92169782E292E011969C938E9340E035
:1031500050E060EA70E440935E0750935F0760932D
:10316000600770936107E3E4F6E0138212828FEF49
:1031700084838287838714861586108A1786128A2D
:10318000118A148A138AB68BA58B9AE0978B26E353
:1031900032E03183208310925D0792E0908F818F1F
:1031A0000895FB01DC0102C005900D924150504092
:1031B000D8F708950E941C1908F481E00895E89456
:1031C00009C097FB3EF490958095709561957F4F6F
:1031D0008F4F9F4F9923A9F0F92F96E9BB2793951D
:1031E000F695879577956795B795F111F8CFFAF42D
:1031F000BB0F11F460FF1BC06F5F7F4F8F4F9F4F5E
:1032000016C0882311F096E911C0772321F09EE8BB
:10321000872F762F05C0662371F096E8862F70E021
:1032200060E02AF09A95660F771F881FDAF7880FFB
:103230009695879597F90895990F0008550FAA0B51
:10324000E0E8FEEF16161706E807F907C0F01216B9
:103250001306E407F50798F0621B730B840B950BBC
:1032600039F40A2661F0232B242B252B21F4089511
:103270000A2609F4A140A6958FEF811D811D0895AE
:103280000E9453190C94C4190E94B61938F00E9478
:10329000BD1920F0952311F00C94AD190C94B319BD
:1032A00011240C94F8190E94D51970F3959FC1F35D
:1032B000950F50E0551F629FF001729FBB27F00DE4
:1032C000B11D639FAA27F00DB11DAA1F649F662739
:1032D000B00DA11D661F829F2227B00DA11D621F88
:1032E000739FB00DA11D621F839FA00D611D221F42
:1032F000749F3327A00D611D231F849F600D211D26
:10330000822F762F6A2F11249F5750409AF0F1F0A8
:1033100088234AF0EE0FFF1FBB1F661F771F881F11
:1033200091505040A9F79E3F510580F00C94AD1983
:103330000C94F8195F3FE4F3983ED4F386957795A3
:103340006795B795F795E7959F5FC1F7FE2B880FB7
:10335000911D9695879597F9089597F99F6780E84D
:1033600070E060E008959FEF80EC089500240A94D7
:103370001616170618060906089500240A94121650
:103380001306140605060895092E0394000C11F483
:10339000882352F0BB0F40F4BF2B11F460FF04C030
:1033A0006F5F7F4F8F4F9F4F089557FD9058440F89
:1033B000551F59F05F3F71F04795880F97FB991F94
:1033C00061F09F3F79F08795089512161306140651
:1033D000551FF2CF4695F1DF08C0161617061806DE
:1033E000991FF1CF86957105610508940895E894B9
:1033F000BB2766277727CB0197F90895A1E21A2EFC
:10340000AA1BBB1BFD010DC0AA1FBB1FEE1FFF1F88
:10341000A217B307E407F50720F0A21BB30BE40BD8
:10342000F50B661F771F881F991F1A9469F760951F
:103430007095809590959B01AC01BD01CF010895D9
:103440005058BB27AA270E94381A0C94C4190E940E
:10345000B61938F00E94BD1920F039F49F3F19F4D5
:1034600026F40C94B3190EF4E095E7FB0C94AD1917
:10347000E92F0E94D51958F3BA176207730784071A
:10348000950720F079F4A6F50C94F7190EF4E09561
:103490000B2EBA2FA02D0B01B90190010C01CA010E
:1034A000A0011124FF27591B99F0593F50F4503EB9
:1034B00068F11A16F040A22F232F342F4427585FAB
:1034C000F3CF469537952795A795F0405395C9F7C3
:1034D0007EF41F16BA0B620B730B840BBAF091507B
:1034E000A1F0FF0FBB1F661F771F881FC2F70EC01A
:1034F000BA0F621F731F841F48F4879577956795ED
:10350000B795F7959E3F08F0B0CF9395880F08F0D8
:103510009927EE0F9795879508950E94A11A0C940C
:10352000C4190E94BD1958F00E94B61940F029F440
:103530005F3F29F00C94AD1951110C94F8190C94BB
:10354000B3190E94D51968F39923B1F3552391F368
:10355000951B550BBB27AA2762177307840738F002
:103560009F5F5F4F220F331F441FAA1FA9F335D05F
:103570000E2E3AF0E0E832D091505040E695001C13
:10358000CAF72BD0FE2F29D0660F771F881FBB1FCD
:10359000261737074807AB07B0E809F0BB0B802DAB
:1035A000BF01FF2793585F4F3AF09E3F510578F0D7
:1035B0000C94AD190C94F8195F3FE4F3983ED4F3E2
:1035C000869577956795B795F7959F5FC9F7880FAB
:1035D000911D9695879597F90895E1E0660F771FFD
:1035E000881FBB1F621773078407BA0720F0621B8E
:1035F000730B840BBA0BEE1F88F7E09508950E94B9
:103600001C1908F48FEF0895EE0FFF1F0590F49139
:10361000E02D099481E090E0F8940C94181BFB01D4
:10362000DC0102C001900D9241505040D8F708953E
:04363000F894FFCF3C
:103634000E0D0E0D6B743100000000000000000040
:103644000000000000000000000000000000000076
:1036540000006B6730000000000000000000000064
:103664000000000000000000000000000000000056
:103674006B67310000000000000000000000000043
:103684000000000000000000000000000000646E64
:1036940031000000000000000000000000000000F5
:1036A4000000000000000000000000006B74330004
:1036B4000000000000000000000000000000000006
:1036C400000000000000000000006B7432000000E5
:1036D40000000000000000000000000000000000E6
:1036E40000000000000000006B6E300000000000CD
:1036F40000000000000000000000000000000000C6
:1037040000000000000074633000000000000000AE
:1037140000000000000000000000000000000000A5
:103724000000000030303400050004040D0E1315B1
:1037340016191A1C232526292A2C323400000000CD
:1037440060120114F711AD12281206121A120000A9
:1037540000002B0D270D230DAF0D110DBA03B60379
:10376400B203000000004611F610320D79100F0D5F
:10377400EA03E203FB032C04DC03D903D603D303DB
:10378400CC03DF03C903C603C303C0036410746915
:103794006E2068696575206775692064656E3A20D6
:1037A4000052535349203A20006E6F646520636FC2
:1037B4006E20636F20746865206B6574206E6F697A
:1037C40020766F692074696E2068696575206D754F
:1037D400632063616F0053656E74206120726570AD
:1037E4006C79006C7575206964206E6F6465206364
:1037F4006F6E0074687563206869656E206B65740C
:10380400206E6F69206275632032007265637620D2
:103814006661696C656400677569206475206C690C
:1038240065752079657520636175206E6F64652008
:10383400636F6E20677569206475206C6965750017
:10384400677569206475206C69657520646F2064F0
:10385400756F630074656D7065726174757265313E
:103864003A20200020205E4300646174613A200005
:10387400736F206C616E206775693A2000736F2046
:103884006C616E206E68616E3A2000746875632006
:103894006869656E206B6574206E6F6920006775BA
:1038A40069206475206C696575207965752063618C
:1038B40075206E6F646520636F6E206B6574206E77
:1038C4006F69206D75632032005253534920613271
:1038D4003A200074687563206869656E206B6574AE
:1038E400206E6F69206D75632032006E6F646520F1
:1038F400636F6E20636F20746865206B6574206E3F
:103904006F6920766F692074696E20686965752017
:103914006D75632074686170006E686179206465F8
:103924006E20646179006775692074696E20686926
:1039340065752079657520636175206B6574206EEB
:103944006F6920766F69206E6F646520636861001B
:1039540074696E2068696575206E68616E2064758F
:103964006F633A2000525353492061313A20007466
:10397400687563206869656E206B6574206E6F6975
:10398400206D756320310064696120636869206972
:1039940064206368613A200074687563206869650F
:1039A4006E206B6574206E6F69206D756320330023
:1039B400564D4450565F317C315F564D4450560D40
:1039C4000A00696E6974206661696C656400564D0D
:1039D4004450455F003A323A007C005F564D4450F3
:0A39E400450074686520656E6400FC
:107E0000112484B714BE81FFF0D085E080938100F7
:107E100082E08093C00088E18093C10086E0809377
:107E2000C20080E18093C4008EE0C9D0259A86E02C
:107E300020E33CEF91E0309385002093840096BBD3
:107E4000B09BFECF1D9AA8958150A9F7CC24DD24C4
:107E500088248394B5E0AB2EA1E19A2EF3E0BF2EE7
:107E6000A2D0813461F49FD0082FAFD0023811F036
:107E7000013811F484E001C083E08DD089C08234E0
:107E800011F484E103C0853419F485E0A6D080C0E4
:107E9000853579F488D0E82EFF2485D0082F10E0AE
:107EA000102F00270E291F29000F111F8ED06801E7
:107EB0006FC0863521F484E090D080E0DECF843638
:107EC00009F040C070D06FD0082F6DD080E0C81688
:107ED00080E7D80618F4F601B7BEE895C0E0D1E017
:107EE00062D089930C17E1F7F0E0CF16F0E7DF06D8
:107EF00018F0F601B7BEE89568D007B600FCFDCFD4
:107F0000A601A0E0B1E02C9130E011968C91119780
:107F100090E0982F8827822B932B1296FA010C0160
:107F200087BEE89511244E5F5F4FF1E0A038BF0790
:107F300051F7F601A7BEE89507B600FCFDCF97BE46
:107F4000E89526C08437B1F42ED02DD0F82E2BD052
:107F50003CD0F601EF2C8F010F5F1F4F84911BD097
:107F6000EA94F801C1F70894C11CD11CFA94CF0C13
:107F7000D11C0EC0853739F428D08EE10CD085E9AC
:107F80000AD08FE07ACF813511F488E018D01DD067
:107F900080E101D065CF982F8091C00085FFFCCF94
:107FA0009093C60008958091C00087FFFCCF809118
:107FB000C00084FD01C0A8958091C6000895E0E648
:107FC000F0E098E1908380830895EDDF803219F02E
:107FD00088E0F5DFFFCF84E1DECF1F93182FE3DFCA
:107FE0001150E9F7F2DF1F91089580E0E8DFEE27F6
:047FF000FF270994CA
:027FFE00040479
:0400000300007E007B
:00000001FF