:100000000C9488030C94E40D0C94BD0D0C94B00377
:100010000C94B0030C94B0030C94B0030C94B00394
:100020000C94B0030C94B0030C94B0030C940B0E1E
:100030000C94B0030C94B0030C94B0030C94B00374
:100040000C94730D0C94B0030C9425120C94FF11B6
:100050000C94B0030C94B0030C94B0030C94B00354
:100060000C94B0030C94B0030000000023002600A1
:10007000290072740092740048940078C400000053
:100080000000240027002A000000000025002800AE
:100090002B00040404040404040402020202020209
:1000A000030303030303010204081020408001023C
:1000B00004081020010204081020000000080002BB
:1000C0000100000304070000000000000000000021
:1000D000C842AEC7C8425C8FC9420A57CA42B81E5E
:1000E000CB4266E6CB4214AECC42C375CD42713DE5
:1000F000CE421F05CF42CDCCCF427B94D042295C6B
:10010000D142D723D24285EBD24233B3D342E17AF4
:10011000D4428F42D5423D0AD642CDCCD6427B94C2
:10012000D742295CD842D723D94285EBD94233B391
:10013000DA42C375DB42713DDC421F05DD42CDCCA6
:10014000DD427B94DE420A57DF42B81EE04266E69B
:10015000E042F6A8E142A470E2425238E3420000D5
:10016000E4428FC2E4423D8AE542CD4CE6427B1434
:10017000E74229DCE742B89EE8426666E942F62893
:10018000EA42A4F0EA4252B8EB42E17AEC428F42F2
:10019000ED421F05EE42CDCCEE425C8FEF420A5796
:1001A000F0429A19F14248E1F142D7A3F242856B3D
:1001B000F342142EF442A4F0F44252B8F542E17A2C
:1001C000F6428F42F7421F05F842AEC7F8425C8FF5
:1001D000F942EC51FA427B14FB4229DCFB42B89E07
:1001E000FC424861FD42F628FE4285EBFE4214AE19
:1001F000FF4252380043299C004371FD0043B85E22
:10020000014300C00143482102431F85024366E6C3
:100210000243AE470343F6A803433D0A0443856BFC
:100220000443CDCC0443142E0543EC91054333F332
:1002300005437B540643C3B506430A170743527868
:1002400007439AD90743E13A0843299C084371FDC3
:100250000843B85E094300C0094348210A438F821E
:100260000A4348E10A438F420B43D7A30B431F05C0
:100270000C4366660C43AEC70C43F6280D433D8A1B
:100280000D43F6E80D433D4A0E4385AB0E43CD0CBE
:100290000F43146E0F43CDCC0F43142E10435C8FCD
:1002A0001043A4F010435C4F1143A4B01143EC1170
:1002B0001243A4701243ECD1124333331343EC9135
:1002C000134333F313437B54144333B314437B146A
:1002D0001543C37515437BD41543C33516437B942F
:1002E0001643C3F516437B541743C3B517437B141A
:1002F0001843C37518437BD41843C33519437B9403
:100300001943C3F519437B541A43C3B51A437B14ED
:100310001B43C3751B437BD41B4333331C437B9468
:100320001C4333F31C437B541D4333B31D43EC1177
:100330001E4333731E43ECD11E43A4301F435C8F16
:100340001F43A4F01F435C4F204314AE2043CD0C49
:100350002143146E2143CDCC2143852B22433D8A7A
:100360002243F6E822433D4A2343F6A82343AE073F
:100370002443666624431FC52443D72325438F8225
:100380002543D7E325438F42264348A12643000057
:100390002743B85E274371BD2743291C2843E17AD0
:1003A00028439AD92843523829430A972943C3F549
:1003B00029437B542A4333B32A43EC112B43146E55
:1003C0002B43CDCC2B43852B2C433D8A2C43F6E885
:1003D0002C43AE472D4366A62D431F052E4348618F
:1003E0002E4300C02E43B81E2F43717D2F4329DCBE
:1003F0002F43523830430A973043C3F530437B5480
:100400003143A4B031435C0F3243146E32433DCAD2
:100410003243F6283343AE873343D7E333438F4227
:10042000344348A1344371FD3443295C354352B809
:1004300035430A173643C3753643ECD13643A430EF
:100440003743CD8C374385EB3743AE47384366A6F9
:1004500038438F0239434861394371BD3943291C00
:100460003A4352783A430AD73A4333333B435C8F9B
:100470003B4314EE3B433D4A3C43F6A83C431F0537
:100480003D4348613D4300C03D43291C3E435278F3
:100490003E430AD73E4333333F435C8F3F4385EBB4
:1004A0003F433D4A404366A640438F024143B85E06
:1004B000414371BD41439A194243C3754243ECD154
:1004C0004243142E4343CD8C4343F6E843431F4538
:1004D000444348A1444371FD44439A594543C3B53D
:1004E0004543EC114643146E46433DCA46436626D7
:1004F00047438F824743B8DE4743E13A48430A9770
:10050000484333F348435C4F494385AB4943AE0707
:100510004A43D7634A4300C04A43291C4B4352789D
:100520004B437BD44B43A4304C43CD8C4C4366E6C9
:100530004C438F424D43B89E4D43E1FA4D430A5719
:100540004E4333B34E43CD0C4F43F6684F431FC564
:100550004F4348215043E17A50430AD75043333345
:1005600051435C8F5143F6E851431F45524348A124
:100570005243E1FA52430A57534333B35343CD0C2A
:100580005443F66854438FC25443B81E5543E17A2E
:1005900055437BD45543A43056433D8A564366E6C3
:1005A000564300405743299C5743C3F55743EC51EA
:1005B000584385AB5843AE0759434861594371BD11
:1005C00059430A175A43A4705A43CDCC5A4366265E
:1005D0005B438F825B4329DC5B43C3355C43EC9117
:1005E0005C4385EB5C431F455D4348A15D43E1FAF5
:1005F0005D437B545E4314AE5E433D0A5F43D76365
:100600005F4371BD5F430A17604333736043CDCCD2
:10061000604366266143008061439AD96143C335D4
:1006200062435C8F6243F6E862438F426343299CD6
:100630006343C3F563435C4F6443F6A864431F05FB
:100640006543B85E654352B86543EC116643856BFC
:1006500066431FC56643B81E674352786743ECD1B3
:100660006743852B68431F856843B8DE6843C335FD
:1006700069435C8F6943F6E869438F426A43299C6A
:100680006A43C3F56A435C4F6B43F6A86B430000B3
:100690006C439A596C4333B36C43CD0C6D4366661F
:1006A0006D4371BD6D430A176E43A4706E433DCA1E
:1006B0006E4348216F43E17A6F437BD46F43142E1E
:1006C00070431F857043B8DE7043523871435C8FAE
:1006D0007143F6E871438F4272439A99724333F340
:1006E00072433D4A7343D7A3734371FD73437B54F5
:1006F000744314AE74431F057543B85E7543C3B5A8
:1007000075435C0F76436666764300C07643741784
:1007100011241FBECFEFD8E0DEBFCDBF14E0A0E0B4
:10072000B1E0E0E7F4E302C005900D92A236B10714
:10073000D9F727E0A2E6B4E001C01D92A231B207CA
:10074000E1F713E0C8E8D3E004C02197FE010E945E
:10075000221AC738D107C9F70E9475150C94361AAA
:100760000C940000FC01738362830895FC0177837D
:1007700066830895FC0175836483089580E008957D
:10078000FC0181850895FC0180850895FC01878125
:100790000895FC0186810895FC01409595854923C3
:1007A000642B65870895FC0164870895FC016387C5
:1007B0000895FC0162870895FC0164830895FC019B
:1007C00065830895FC012281338123303105D1F303
:1007D00081E00895CF93DF93EC01E881F9810280F5
:1007E000F381E02DCE0109958823B9F3DF91CF91F4
:1007F000089581E008958F929F92AF92BF92CF9219
:10080000DF92EF92FF92CF93DF93EC016B010E9496
:10081000670D4B015C01E12CF12C0E94670DDC019E
:10082000CB0188199909AA09BB098C159D05AE054C
:10083000BF0530F48A819B81039779F381E001C081
:1008400080E0DF91CF91FF90EF90DF90CF90BF904D
:10085000AF909F908F9008958F929F92AF92BF928A
:10086000CF92DF92EF92FF92CF93DF93EC016B0177
:100870000E94670D4B015C01E12CF12C0E94670D79
:10088000DC01CB0188199909AA09BB098C159D05C2
:10089000AE05BF0550F4E881F9810280F381E02DB7
:1008A000CE010995882351F301C080E0DF91CF91FB
:1008B000FF90EF90DF90CF90BF90AF909F908F9080
:1008C00008959CB59C7F282F2370922B9CBD2DB53D
:1008D00082FB992790F9822F8E7F892B8DBD0895F9
:1008E000FF920F931F93CF93DF93CDB7DEB7CA511B
:1008F000D1400FB6F894DEBF0FBECDBF8BEFC65E02
:10090000DE4F8883CA51D140AE01465E5E4FBE01C4
:100910006F5F7F4F8BEE95E00E94560C882309F4A1
:10092000D7C061E088E00E94801262E272E086E057
:1009300095E00E947315BE016F5F7F4F86E095E0E2
:100940000E945F1565E372E086E095E00E947315F2
:100950000091F905002E000C110BC8010E944115F1
:1009600089818B3609F05FC08A818E3609F093C089
:10097000FB8080E3F812B2C0083E1F4F0CF4AEC0FB
:100980006DE372E086E095E00E945F1584E0E4E0AC
:10099000F1E0DE01A450BF4F01900D928A95E1F77E
:1009A000ECEFF0E0EC0FFD1F34968AE1DF011D92C1
:1009B0008A95E9F7C150DF4FF882CF5FD040C05031
:1009C000DF4FF882C050D14084E3CF5FDE4F888391
:1009D000C150D1408C81CE5FDE4F8883C250D14060
:1009E0008D81CD5FDE4F8883C350D1408E81CC5F37
:1009F000DE4F8883C450D1404EE1BE0164507F4F2A
:100A00008BEE95E00E949D0F8BEE95E00E94E20335
:100A10006AE672E086E095E00E945F1560E088E09B
:100A20000E9480125BC0843709F058C08A818336E7
:100A300009F054C08B81803309F050C08C81803321
:100A400009F04CC08D81803309F048C08E81843319
:100A500009F044C080E090E011E3FC01EE0FFF1FBD
:100A6000EE0FFF1FE857FB4F2081203379F41083EE
:100A70008F818183888582838985838367E772E09C
:100A800086E095E00E945F1585E690E001968E3144
:100A900091051CF323C0843709F58B818233F1F46F
:100AA0009C8180917404981319C09D818091750474
:100AB000981314C09E818091760498130FC082E031
:100AC00090E0909301058093000567E872E002C012
:100AD0006FE972E086E095E00E945F15C65EDE4F2A
:100AE0000FB6F894DEBF0FBECDBFDF91CF911F913F
:100AF0000F91FF9008954F925F926F927F92AF9205
:100B0000BF92CF92DF92EF92FF920F931F93CF93FA
:100B1000DF93CDB7DEB7CA51D1400FB6F894DEBF30
:100B20000FBECDBF809172049091730403970CF0B7
:100B300067C00E94670DC0906E04D0906F04E09073
:100B40007004F0907104DC01CB018C199D09AE0991
:100B5000BF09813A9F40A105B10558F00E94670D79
:100B600060936E0470936F0480937004909371048B
:100B700047C00E94670DDC01CB018C199D09AE09AD
:100B8000BF09803A9F40A105B105D1F56BEA72E03B
:100B900086E095E00E945F1584E0E2E2F1E0DE018C
:100BA000119601900D928A95E1F7FE0135968AE142
:100BB000DF011D928A95E9F780E38C838D8384E3BE
:100BC0008E834EE1BE016F5F7F4F8BEE95E00E94FA
:100BD0009D0F8BEE95E00E94E2030E94670D6093EB
:100BE0006E0470936F0480937004909371048091ED
:100BF000720490917304019690937304809372042D
:100C00000E94670DC0906A04D0906B04E0906C0461
:100C1000F0906D04DC01CB018C199D09AE09BF0970
:100C2000813A9F40A105B10558F00E94670D60937D
:100C30006A0470936B0480936C0490936D041EC1DE
:100C40000E94670DDC01CB018C199D09AE09BF091B
:100C5000803A9F40A105B10509F010C164ED72E032
:100C600086E095E00E945F1581E480937C0080918E
:100C70007A00806480937A0080917A0086FDFCCFB0
:100C8000609178008091790070E0782B072E000C3D
:100C9000880B990B0E94FF172091060730910707D8
:100CA00040910807509109070E945E1820E030E04B
:100CB00040E85AE30E945E186B017C0120E030E0BE
:100CC00041EE54E40E945E1823E333E848E755E41C
:100CD0000E943F192B013C01A70196016AE47CE0C8
:100CE0008FE192E40E943E199B01AC01C301B20165
:100CF0000E94AB192B013C0107EC10E0EFE8CE2E6F
:100D0000DD24D394A12CB12CF801EE0FFF1FEE0FC0
:100D1000FF1FCF0182539F4F7C01FC01259135912C
:100D200045915491C301B2010E94F817882341F103
:100D3000F7012591359145915491C301B2010E946B
:100D40001D1A18160CF0E5C158019FEFA91AB90A2F
:100D5000F501EE0FFF1FEE0FFF1FE253FF4F25912E
:100D6000359145915491C301B2010E941D1A181684
:100D70000CF4CFC1A801C301B2010E94A5138C01DC
:100D800068EE72E086E095E00E947315A801110FED
:100D9000660B770B77FF05C0CB01BA010E941E15C9
:100DA00005C02AE086E095E00E94D51468EF72E065
:100DB00086E095E00E945F1584E0E0E4F1E0DE016A
:100DC000119601900D928A95E1F7FE0135968AE120
:100DD000DF011D928A95E9F7809174048C838091DC
:100DE00075048D83809176048E8380E38F8388875A
:100DF00094E399878A878B879C870D876DEF72E0D4
:100E000086E095E00E9473152AE04EE150E060E034
:100E100070E086E095E00E94D5146FE374E086E010
:100E200095E00E94C0144EE1BE016F5F7F4F8BEED4
:100E300095E00E949D0F8BEE95E00E94E2030E94D8
:100E4000670D60936A0470936B0480936C049093B5
:100E50006D048091680490916904019690936904EF
:100E60008093680464E073E086E095E00E94731567
:100E700080916804909169040E9441158BEE95E081
:100E80000E941A10882309F41DC18BEFC65EDE4F45
:100E90008883CA51D140AE01465E5E4FBE016F5F8E
:100EA0007F4F8BEE95E00E94560C882309F404C115
:100EB00061E088E00E94801262E272E086E095E0E4
:100EC0000E947315BE016F5F7F4F86E095E00E9420
:100ED0005F1589818B3629F08981843609F0E7C056
:100EE000B3C08A818736C1F78B818133A9F780E04F
:100EF00090E03AE1F32E0CEF10E00C0F1D1F0C5F99
:100F00001F4FFC01EE0FFF1FEE0FFF1FE857FB4FB7
:100F10002081213309F092C02C81203309F08EC04A
:100F20002D81203309F08AC02E81243309F086C038
:100F30003F812181321382C03885228132137EC0E5
:100F40003985238132137AC084E0E0E4F1E0DE01E8
:100F5000A450BF4F01900D928A95E1F7F8012F2D13
:100F600011922A95E9F780917404C150DF4F88836C
:100F7000CF5FD04080917504C050DF4F8883C05050
:100F8000D14080917604CF5FDE4F8883C150D1403D
:100F90008091BE01CE5FDE4F8883C250D1408091E8
:100FA000BF01CD5FDE4F8883C350D1408091C00127
:100FB000CC5FDE4F8883C450D1408A85CB5FDE4F43
:100FC0008883C550D1408B85CA5FDE4F8883C65069
:100FD000D1408C85C95FDE4F8883C750D1408D8555
:100FE000C85FDE4F8883C850D1408E85C75FDE4F13
:100FF0008883C950D1404EE1BE0164507F4F8BEED3
:1010000095E00E949D0F8BEE95E00E94E203809197
:101010006804909169040196909369048093680430
:1010200064E073E086E095E00E94731580916804A7
:10103000909169040E94411585E690E001968E31F9
:1010400091050CF45ECF48CF8A818E3681F58B8175
:10105000813369F59C8180917404981328C09D8127
:1010600080917504981323C09E8180917604981313
:101070001EC08F818033D9F488858033C1F489857F
:101080008433A9F48091660490916704019690934B
:1010900067048093660461E173E086E095E00E9456
:1010A000731580916604909167040E94411560E079
:1010B00088E00E94801206C06FE972E086E095E049
:1010C0000E945F1580916804909169048A309105AF
:1010D00009F051C02091660430916704821B930B84
:1010E00003975CF410926904109268048FEF9FEFED
:1010F00090936704809366043EC01092010510929D
:10110000000580E3809374048093750480937604D3
:1011100032C0F7012591359145915491C301B20137
:101120000E94F81787FF17C06801A1E0CA1AD1080A
:10113000F601EE0FFF1FEE0FFF1FE253FF4F259149
:10114000359145915491C301B2010E94F81787FD72
:1011500002C0A60110CE86010A191B0917FF02C0A2
:101160000F5F1F4F159507950A0D1B1DAC14BD048D
:101170000CF006CEC9CDC65EDE4F0FB6F894DEBFCA
:101180000FBECDBFDF91CF911F910F91FF90EF90D8
:10119000DF90CF90BF90AF907F906F905F904F9017
:1011A0000895CF92DF92EF92FF920F931F93CF9308
:1011B000DF93CDB7DEB7CA51D1400FB6F894DEBF8A
:1011C0000FBECDBF0E94670DC0906204D090630433
:1011D000E0906404F0906504DC01CB018C199D095A
:1011E000AE09BF09813A9F40A105B105A0F50E9453
:1011F000670DDC01CB018C199D09AE09BF09803A4E
:101200009F40A105B10589F56FE173E086E095E0A7
:101210000E945F1584E0EEE5F1E0DE011196019099
:101220000D928A95E1F7FE0135968AE1DF011D9264
:101230008A95E9F780E38C838D8384E38E834EE186
:10124000BE016F5F7F4F8BEE95E00E949D0F8BEE8E
:1012500095E00E94E2030E94670D60936204709320
:10126000630480936404909365048BEE95E00E9480
:101270001A10882309F4FAC08BEFC65EDE4F88830C
:10128000CA51D140AE01465E5E4FBE016F5F7F4FD7
:101290008BEE95E00E94560C882309F4E1C061E0D2
:1012A00088E00E94801262E272E086E095E00E948F
:1012B0007315BE016F5F7F4F86E095E00E945F155A
:1012C0006AE473E086E095E00E9473150091F905E9
:1012D000002E000C110BC8010E94411589818B362C
:1012E00009F065C08A818E3609F099C0FB80B0E3B1
:1012F000FB12BCC0033E1F4F0CF4B8C064E573E0A2
:1013000086E095E00E945F156CE673E086E095E06C
:101310000E945F1584E0EEE5F1E0DE01A450BF4FCE
:1013200001900D928A95E1F7ECEFF0E0EC0FFD1FD4
:1013300034968AE1DF011D928A95E9F7C150DF4FAB
:10134000F882CF5FD040C050DF4FF882C050D1400C
:1013500084E3CF5FDE4F8883C150D1408C81CE5F64
:10136000DE4F8883C250D1408D81CD5FDE4F8883B0
:10137000C350D1408E81CC5FDE4F8883C450D140B2
:101380004EE1BE0164507F4F8BEE95E00E949D0FB1
:101390008BEE95E00E94E2036AE672E086E095E05B
:1013A0000E945F1560E088E00E9480125FC0843771
:1013B00009F05CC08A81833609F058C08B81803384
:1013C00009F054C08C81803309F050C08D81803386
:1013D00009F04CC08E81843309F048C080E090E071
:1013E00011E3FC01EE0FFF1FEE0FFF1FE857FB4F4D
:1013F0002081203379F410838F81818388858283D3
:101400008985838367E772E086E095E00E945F1537
:1014100085E690E001968E3191051CF327C0873652
:1014200029F58B81803311F59C8180917404981388
:101430001DC09D8180917504981318C09E81809174
:101440007604981313C06AE973E086E095E00E9481
:101450005F1583E090E0909301058093000506C03E
:101460006FE972E086E095E00E945F15C65EDE4F90
:101470000FB6F894DEBF0FBECDBFDF91CF911F91A5
:101480000F91FF90EF90DF90CF900895CF92DF9271
:10149000EF92FF920F931F93CF93DF93CDB7DEB7F9
:1014A000CA51D1400FB6F894DEBF0FBECDBF0E9427
:1014B000670DC0906204D0906304E0906404F090E3
:1014C0006504DC01CB018C199D09AE09BF09813A85
:1014D0009F40A105B105A0F50E94670DDC01CB017D
:1014E0008C199D09AE09BF09803A9F40A105B1053D
:1014F00089F566EA73E086E095E00E945F1584E076
:10150000ECE7F1E0DE01119601900D928A95E1F78A
:10151000FE0135968AE1DF011D928A95E9F780E3A5
:101520008C838D8384E38E834EE1BE016F5F7F4F9A
:101530008BEE95E00E949D0F8BEE95E00E94E203FA
:101540000E94670D60936204709363048093640447
:10155000909365048BEE95E00E941A10882309F49D
:1015600071C18BEFC65EDE4F8883CA51D140AE0198
:10157000465E5E4FBE016F5F7F4F8BEE95E00E942F
:10158000560C882309F458C161E088E00E9480125B
:1015900060ED73E086E095E00E947315BE016F5F19
:1015A0007F4F86E095E00E945F1565EE73E086E070
:1015B00095E00E9473158091F905082E000C990B97
:1015C0000E94411589818B3609F031C18A818437A7
:1015D00009F02DC18B81813309F068C08F81803380
:1015E00009F025C11885103309F021C1098504339C
:1015F00009F01DC16FEE73E086E095E00E945F1573
:101600002C81209374049D81909375048E81809326
:10161000760434E0EAE9F1E0DE01A450BF4F019026
:101620000D923A95E1F7ECEFF0E0EC0FFD1F3496E8
:101630003AE1DF011D923A95E9F7C150DF4F288367
:10164000CF5FD040C050DF4F9883C050D140CF5FB4
:10165000DE4F8883C150D140CE5FDE4F1883C25029
:10166000D140CD5FDE4F1883C350D140CC5FDE4FF9
:101670000883C450D14067E074E086E095E00E94A2
:10168000731564E774E086E095E00E945F154EE113
:10169000BE0164507F4F8BEE95E00E949D0F8BEE54
:1016A00095E00E94E20381E090E0BDC0823309F042
:1016B0005CC08F81803309F0BAC01885103309F0FF
:1016C000B6C00985043309F0B2C064E573E086E072
:1016D00095E00E945F152C81209374049D81909366
:1016E00075048E818093760434E0EAE9F1E0DE014E
:1016F000A450BF4F01900D923A95E1F7ECEFF0E066
:10170000EC0FFD1F34963AE1DF011D923A95E9F79F
:10171000C150DF4F2883CF5FD040C050DF4F988348
:10172000C050D140CF5FDE4F8883C150D140CE5FE3
:10173000DE4F1883C250D140CD5FDE4F1883C350B7
:10174000D140CC5FDE4F0883C450D1404EE1BE0192
:1017500064507F4F8BEE95E00E949D0F8BEE95E0DD
:101760000E94E20382E090E05EC0833309F05FC034
:101770008F81803309F05BC01885103309F057C0A2
:101780000985043309F053C068E174E086E095E010
:101790000E945F152C81209374049D8190937504A1
:1017A0008E818093760434E0EAE9F1E0DE01A45012
:1017B000BF4F01900D923A95E1F7ECEFF0E0EC0F9E
:1017C000FD1F34963AE1DF011D923A95E9F7C150C9
:1017D000DF4F2883CF5FD040C050DF4F9883C05089
:1017E000D140CF5FDE4F8883C150D140CE5FDE4F06
:1017F0001883C250D140CD5FDE4F1883C350D14013
:10180000CC5FDE4F0883C450D1404EE1BE0164502E
:101810007F4F8BEE95E00E949D0F8BEE95E00E942E
:10182000E20383E090E0909301058093000560E07F
:1018300088E00E94801206C06FE972E086E095E0C1
:101840000E945F15C65EDE4F0FB6F894DEBF0FBE76
:10185000CDBFDF91CF911F910F91FF90EF90DF905F
:10186000CF90089508958BEF08959FB7F8948091D5
:101870007704882319F0815080937704809177044E
:10188000811103C08CB58F7B8CBD9FBF08958CB533
:101890008F778CBD08958CB580688CBD08956EBD22
:1018A00000000DB407FEFDCF8EB50895CF92DF92F4
:1018B000EF92FF920F931F93CF93DF93EC017B0185
:1018C0008A01E881F9810280F381E02D0995D82E03
:1018D000882331F1E114F104D9F001151105C1F0AB
:1018E000CFB6F8948A8D90E00397F801208130E01C
:1018F000281739071CF08A8D84508083F8014081B5
:1019000050E0BE01615E7F4FC7010E942D1ACFBE1D
:101910008FB7F894FE01E65EFE4F10821A8E8FBFDD
:101920008D2DDF91CF911F910F91FF90EF90DF9060
:10193000CF90089580917D0490917E04009711F0DE
:101940000C941914089580917B0490917C04009765
:1019500011F00C94191408958091790490917A04EF
:10196000009711F00C9419140895CF93DF93EC01B4
:101970008D899E89DC01ED91FC910680F781E02D37
:10198000099561E08F890E94AF1261E08F890E9402
:10199000801264E670E080E090E00E94EB1281E04B
:1019A000DF91CF910895CF93DF93FC01268137819A
:1019B0002115310579F02130310541F02230310512
:1019C00039F02330310531F49CE005C094E003C0C8
:1019D00098E001C090E08CB5837F982B9CBD8481FA
:1019E0009581019709F04AC08CB580628CBD8281D7
:1019F000938101978430910528F4FC01E454FE4F53
:101A0000C08101C0C1E08C2F0E946104DFB7F8944F
:101A100080917704811127C0ECE9F0E08491E0EB3C
:101A2000F0E09491E82FF0E0EE0FFF1FE258FF4F37
:101A3000A591B491EC91E92321F461E08AE00E9440
:101A4000801261E08AE00E94AF128CB580618CBD8B
:101A50008CB580648CBD61E08DE00E94AF1261E0C6
:101A60008BE00E94AF12809177048F5F80937704A0
:101A7000DFBF8C2FDF91CF910C9461049CB59F7DCB
:101A80009CBDB5CF3FB7F8948091840490918504B4
:101A9000A0918604B091870426B5A89B05C02F3F6E
:101AA00019F00196A11DB11D3FBFBA2FA92F982F84
:101AB0008827820F911DA11DB11DBC01CD0142E0FF
:101AC000660F771F881F991F4A95D1F708952FB782
:101AD000F8946091800470918104809182049091C7
:101AE00083042FBF08951F920F920FB60F921124F7
:101AF0002F933F938F939F93AF93BF9380918004D5
:101B000090918104A0918204B091830430917F046C
:101B100023E0230F2D3720F40196A11DB11D05C030
:101B200026E8230F0296A11DB11D20937F04809308
:101B3000800490938104A0938204B09383048091E5
:101B4000840490918504A0918604B0918704019645
:101B5000A11DB11D8093840490938504A0938604F5
:101B6000B0938704BF91AF919F918F913F912F9137
:101B70000F900FBE0F901F9018951F920F920FB6E7
:101B80000F9211242F933F934F935F936F937F9303
:101B90008F939F93AF93BF93EF93FF93E0910201D5
:101BA000F09103010995FF91EF91BF91AF919F9142
:101BB0008F917F916F915F914F913F912F910F90F6
:101BC0000FBE0F901F9018951F920F920FB60F9295
:101BD00011242F933F934F935F936F937F938F9332
:101BE0009F93AF93BF93EF93FF93E0910001F09128
:101BF00001010995FF91EF91BF91AF919F918F9155
:101C00007F916F915F914F913F912F910F900FBEF8
:101C10000F901F9018951F920F920FB60F921124DC
:101C20002F933F934F935F936F937F938F939F93E4
:101C3000AF93BF93CF93DF93EF93FF938091020015
:101C400090910300049709F0CCC02091170030E078
:101C5000F901E654FF4F8491F901EA55FF4FD49101
:101C6000F901EE56FF4FC491CC2379F081110E9407
:101C70005712EC2FF0E0EE0FFF1FE859FF4FA59130
:101C8000B491EC91ED2381E009F480E081709091B2
:101C90001A00892729F090911F009F5F90931F00E1
:101CA00090911E00981761F090B1903510F09DE171
:101CB00001C09BE020B1920F90B980931E0003C039
:101CC00080B18C5E80B980B1803A08F4DEC082B108
:101CD00093B19695879593B982B980911F0085300D
:101CE00028F082B193B1986093B982B980B1805ADB
:101CF00080B910921F0081B1882309F466C084B1B5
:101D00008F5F84B98C3008F4C0C082B193B1982F32
:101D10009F73892F86958695887028E0280F28174D
:101D200049F0E82FF0E0E054FE4F3081931719F0AE
:101D30008F5FF5CF80E020E1829FC001112422B1A6
:101D400033B196E0369527959A95E1F7422F36956F
:101D5000279536952795287038E0320F321749F0CD
:101D6000E22FF0E0E054FE4F5081451719F02F5F4D
:101D7000F5CF20E0822B909169009923B9F0E09192
:101D8000690091E09E0F90936900F0E085A3909127
:101D90006900809168009817B0F011B881E08093D5
:101DA0001C0080E090E00E9401140DC08093680048
:101DB00090916800973008F45EC090916800943468
:101DC00008F059C0DCCF14B860C082B193B1883339
:101DD0009B4009F05AC081E081B914B810926900A3
:101DE00054C08091020090910300039709F04DC008
:101DF00080916C0091E0980F90936C00811134C039
:101E0000E0916A008091FB00E81770F080E090E0BC
:101E10000E940114809113009091140001969093F8
:101E200014008093130020C0F0E0E359FF4F60815D
:101E300070E080916B0091E0980F90936B0002C06E
:101E4000759567958A95E2F76170809118000E94F8
:101E5000801280916B00863038F010926B00809178
:101E60006A008F5F80936A0080916C00883068F010
:101E700010926C000AC011B880910F009091100070
:101E800001969093100080930F00FF91EF91DF91E6
:101E9000CF91BF91AF919F918F917F916F915F9102
:101EA0004F913F912F910F900FBE0F901F9018955B
:101EB000FF920F931F93CF93DF93EC01162FF42E15
:101EC0000FB7F89460E08F890E9480128D899E89F7
:101ED000612F6068DC01ED91FC910190F081E02DB3
:101EE0000995182F8D899E89DC01ED91FC91019057
:101EF000F081E02D6F2D099561E08F890E9480129D
:101F00000FBF812FDF91CF911F910F91FF90089507
:101F1000CF93DF93FC01228133812130310549F0D9
:101F2000EC0140E061E00E94580F81E090E09B836B
:101F30008A8381E0DF91CF910895CF92DF92EF9273
:101F4000FF920F931F93CF93DF934C3F08F066C02F
:101F5000142F072FF62EEC01E881F9810484F58512
:101F6000E02D0995CE010E94771340E06DE0CE018F
:101F70000E94580F4A8560E0CE010E94580F4B85A1
:101F800060E0CE010E94580F4C8560E0CE010E94B7
:101F9000580F4D8560E0CE010E94580FEFB6F894BF
:101FA00060E08F890E9480128D899E89DC01ED910D
:101FB000FC910190F081E02D60E80995CF2CD02EA6
:101FC000012F015068F08D899E89F60161916F01A2
:101FD000DC01ED91FC910190F081E02D0995F1CFAC
:101FE00061E08F890E948012EFBE44E0410F62E2FF
:101FF000CE010E94580F8A819B81039789F043E0AC
:1020000061E0CE010E94580F40E460E4CE010E94DE
:10201000580F83E090E09B838A8302C080E001C078
:1020200081E0DF91CF911F910F91FF90EF90DF90B2
:10203000CF900895CF93DF93FC0122813381233029
:102040003105B9F0EC0182819381049771F045E08C
:1020500061E0CF010E94580F40E060E4CE010E9491
:10206000580F84E090E09B838A83C65EDE4F8881B0
:1020700001C080E0DF91CF9108950F931F93CF931C
:10208000DF93EC01162F0FB7F89460E08F890E9460
:1020900080128D899E89612F6F77DC01ED91FC9113
:1020A0000190F081E02D09958D899E89DC01ED91EB
:1020B000FC910190F081E02D60E00995182F61E01E
:1020C0008F890E9480120FBF812FDF91CF911F91C6
:1020D0000F910895EF92FF920F931F93CF93DF9389
:1020E00000D01F92CDB7DEB78C010E94B50CE82E50
:1020F000811102C0E12C90C0F801808D823029F05E
:102100008330C1F7FF24F39401C0F12C40E861E073
:10211000C8010E94580F6AE070E080E090E00E94E1
:10212000EB1261E0C8010E943D10803819F760E0B1
:10213000F801808D0E94AF12F801818D8F3F49F424
:10214000809178048430B0F691E0980F90937804F1
:10215000818FF801818DE82FF0E0EE0FFF1FE75827
:10216000FB4F11830083811103C06CEA7CE00AC03D
:10217000813019F463EA7CE005C0823009F0BACFFF
:102180006AE97CE08F2D0E948B1340E06EE0C8016D
:102190000E94580F40E06FE0C8010E94580FC8012C
:1021A0000E94771343E050E062E770E0CE010196B1
:1021B0000E94EF1749816DE1C8010E94580F4A81C2
:1021C0006EE1C8010E94580F4B8166E2C8010E946F
:1021D000580F40E060E2C8010E94580F48E061E2F9
:1021E000C8010E94580F4CE666E0C8010E94580FD3
:1021F00040E867E0C8010E94580F40E068E0C8016D
:102200000E94580F44E06DE4C8010E94580F48E84E
:1022100069E0C8010E94580F8E2D0F900F900F900B
:10222000DF91CF911F910F91FF90EF900895089546
:1022300080E090E00895FC01538D448D252F30E01F
:10224000842F90E0821B930B541710F0CF960895C3
:1022500001970895FC01918D828D981761F0828D10
:10226000DF01A80FB11D5D968C91928D9F5F9F73CA
:10227000928F90E008958FEF9FEF0895FC01918D6C
:10228000828D981731F0828DE80FF11D858D90E0D9
:1022900008958FEF9FEF0895FC01918D228D892F76
:1022A00090E0805C9F4F821B91098F73992708955E
:1022B00086E095E00E944C1121E0892B09F420E092
:1022C000822F0895FC01848DDF01A80FB11DA35A50
:1022D000BF4F2C91848D90E001968F739927848F46
:1022E000A689B7892C93A089B1898C918370806469
:1022F0008C93938D848D981306C00288F389E02D0A
:1023000080818F7D80830895EF92FF920F931F93BA
:10231000CF93DF93EC0181E0888F9B8D8C8D981398
:1023200005C0E889F989808185FD26C0F62E0B8DD0
:1023300010E00F5F1F4F0F731127E02E8C8DE812F6
:102340000CC00FB607FCFACFE889F989808185FFB8
:10235000F5CFCE010E946211F1CF8B8DFE01E80F07
:10236000F11DE35AFF4FF0829FB7F8940B8FEA8973
:10237000FB89808180620AC09FB7F894EE89FF894B
:102380006083E889F98980818370806480839FBF3E
:1023900081E090E0DF91CF911F910F91FF90EF903E
:1023A0000895CF93DF93EC01888D8823C9F0EA89E3
:1023B000FB89808185FD05C0A889B9898C9186FD3E
:1023C0000FC00FB607FCF5CF808185FFF2CFA8893B
:1023D000B9898C9185FFEDCFCE010E946211E7CFC4
:1023E000DF91CF91089580E090E0892B29F00E9441
:1023F000581181110C94000008950E94281A1F9210
:102400000F920FB60F9211242F933F934F935F9328
:102410006F937F938F939F93AF93BF93EF93FF93AC
:1024200086E095E00E946211FF91EF91BF91AF911C
:102430009F918F917F916F915F914F913F912F91DC
:102440000F900FBE0F901F9018951F920F920FB60E
:102450000F9211242F938F939F93EF93FF93E0910B
:102460001605F09117058081E0911C05F0911D057E
:1024700082FD12C0908180911F058F5F8F73209124
:102480002005821751F0E0911F05F0E0EA5FFA4F56
:10249000958F80931F0501C08081FF91EF919F91DF
:1024A0008F912F910F900FBE0F901F901895833032
:1024B00081F028F4813099F08230A1F008958730BE
:1024C000A9F08830B9F08430D1F4809180008F7DFC
:1024D00003C0809180008F7780938000089584B539
:1024E0008F7702C084B58F7D84BD08958091B00040
:1024F0008F7703C08091B0008F7D8093B0000895E6
:102500001F93CF93DF93282F30E0F901E654FF4F5C
:102510008491F901EA55FF4FD491F901EE56FF4F2E
:10252000C491CC23C1F0162F81110E945712EC2FB9
:10253000F0E0EE0FFF1FE857FF4FA591B4919FB752
:10254000F894111104C08C91D095D82302C0EC915D
:10255000DE2BDC939FBFDF91CF911F910895CF9326
:10256000DF9390E0FC01EA55FF4F2491FC01EE5609
:10257000FF4F8491882361F190E0880F991FFC013F
:10258000E258FF4FC591D491FC01E857FF4FA59148
:10259000B491611109C09FB7F89488812095822376
:1025A0008883EC912E230BC0623061F49FB7F894BE
:1025B0008881322F309583238883EC912E2B2C93A6
:1025C0009FBF06C08FB7F894E8812E2B28838FBF5A
:1025D000DF91CF9108958F929F92AF92BF92CF9249
:1025E000DF92EF92FF926B017C010E94420D4B0142
:1025F0005C01C114D104E104F104F1F00E94420D28
:10260000DC01CB0188199909AA09BB09883E9340CE
:10261000A105B10570F321E0C21AD108E108F10863
:1026200088EE880E83E0981EA11CB11CC114D10451
:10263000E104F10419F7DDCFFF90EF90DF90CF9028
:10264000BF90AF909F908F900895CF92DF92EF92BE
:10265000FF920F931F93CF93DF936C017A018B014D
:10266000C0E0D0E0CE15DF0581F0D8016D918D017D
:10267000D601ED91FC910190F081E02DC601099504
:10268000892B11F02196EECF7E01C701DF91CF910A
:102690001F910F91FF90EF90DF90CF900895E6E0AB
:1026A000F5E0A089B18982E08C93A485B5851C9260
:1026B000A685B7858FEC8C93108EA489B58986E0AA
:1026C0008C93A289B3898C9180618C93A289B38900
:1026D0008C9188608C93A289B3898C9180688C934B
:1026E0000288F389E02D80818F7D80830895CF93C8
:1026F000DF93FC01228133812230310549F0EC0166
:1027000041E061E00E94580F82E090E09B838A8361
:10271000DF91CF9108958230B8F4E82FF0E0EE0F0A
:10272000FF1FE050FF4F71836083813039F080914B
:102730006900836080936900E89A08958091690038
:102740008C6080936900E99A08954F925F926F922E
:102750007F928F929F92AF92BF92CF92DF92EF9231
:10276000FF920F931F93CF93DF93EA019A01220FF9
:10277000331F220F331FD901A253BF4FFD012591F3
:102780003591459154918E010F5F1F4FF801EE0F67
:10279000FF1FEE0FFF1FE253FF4F85909590A5900E
:1027A000B490FD0145905590659074900E943E193B
:1027B0006B017C01A3019201C501B4010E943E1985
:1027C00020E030E040E05FE30E945E189B01AC0136
:1027D000C701B6010E941D1A18160CF08E01C8011F
:1027E000DF91CF911F910F91FF90EF90DF90CF90ED
:1027F000BF90AF909F908F907F906F905F904F9021
:102800000895CF93DF93FC0122813381223031057B
:1028100069F0EC01638D818D0E94801260E0888DEB
:102820000E94801282E090E09B838A83DF91CF91A7
:102830000895DF92EF92FF920F931F93CF93DF9350
:10284000EC0162E10E943D102A813B812430310578
:1028500021F4982F907A09F069C02A813B812430B5
:10286000310509F074C086FF72C063E1CE010E9499
:102870003D10082F60E1CE010E943D10482F6DE011
:10288000CE010E94580FDFB6F89460E08F890E9455
:1028900080128D899E89DC01ED91FC910190F0817F
:1028A000E02D60E009957E01BBE1EB0EF11C102FDD
:1028B000112379F08D899E89DC01ED91FC910190C5
:1028C000F081E02D60E00995F70181937F011150BF
:1028D000EFCF61E08F890E948012DFBE0A8F4FEF39
:1028E00062E1CE010E94580F6AE1CE010E943D10C4
:1028F00089588E878A8DFE01E65EFE4F843090F007
:102900008B8D8E838C8D8F838D8D88878E8D89871F
:102910008D81811129C09E818C81981729F18E812A
:102920008F3F11F18081882331F026C08F859889EF
:102930000196988B8F874FEF62E1CE01DF91CF91A7
:102940001F910F91FF90EF90DF900C94580F2A8108
:102950003B812330310579F783FFEDCF8B899C894B
:1029600001969C8B8B8B08C089899A8901969A8BDA
:10297000898B81E08083D6CFCE010E947713DBCF95
:102980006115710579F0FB0101900020E9F731979D
:10299000AF01461B570BDC01ED91FC910280F381E6
:1029A000E02D099480E090E008958F929F92AF927D
:1029B000BF92EF92FF920F931F93CF93DF93CDB708
:1029C000DEB7A1970FB6F894DEBF0FBECDBF7C0176
:1029D000FA01CB0119A2223008F42AE08E010F5D22
:1029E0001F4F822E912CA12CB12CBF01A501940167
:1029F0000E941C19F901CA01015011096A3014F42E
:102A0000605D01C0695CD8016C93232B242B252BBE
:102A100061F7B801C7010E94C014A1960FB6F894DF
:102A2000DEBF0FBECDBFDF91CF911F910F91FF9001
:102A3000EF90BF90AF909F908F900895CF92DF92CC
:102A4000EF92FF92CF93DF936B017C016DE286E002
:102A500095E00E948411EC0144275527BA014C19D6
:102A60005D096E097F092AE086E095E00E94D51491
:102A70008C0F9D1FDF91CF91FF90EF90DF90CF9053
:102A80000895CF93DF93AC01990F660B770B77FF17
:102A900005C0CB01BA010E941E1505C02AE086E0E0
:102AA00095E00E94D514EC016FE374E086E095E0B8
:102AB0000E94C0148C0F9D1FDF91CF9108950F933A
:102AC0001F93CF93DF93EC010E94C0148C016FE33E
:102AD00074E0CE010E94C014800F911FDF91CF914E
:102AE0001F910F9108950C94C014789484B582605E
:102AF00084BD84B5816084BD85B5826085BD85B5A2
:102B0000816085BD80916E00816080936E0010921F
:102B1000810080918100826080938100809181009A
:102B2000816080938100809180008160809380002B
:102B30008091B10084608093B1008091B000816089
:102B40008093B00080917A00846080937A008091B5
:102B50007A00826080937A0080917A00816080930D
:102B60007A0080917A00806880937A001092C10088
:102B70001092E7051092E8051092E9051092EA0517
:102B80001092A5051092A6051092A7051092A8050F
:102B90000E94670D6B017C014B015C0128EB820EEA
:102BA0002BE0921EA11CB11C0E94670D6C157D05C7
:102BB0008E059F0528F086169706A806B906A0F789
:102BC00086E095E09093E6058093E5050E944F131B
:102BD0000E94670D6093A5057093A6058093A705D5
:102BE0009093A80560E374E08091E5059091E60577
:102BF0000E9473150E94670D6B017C014B015C0103
:102C00003AE0830E911CA11CB11C0E94670D6C154B
:102C10007D058E059F0528F086169706A806B9063D
:102C2000A0F781E08093B9050E944F138BEE95E0E9
:102C30000E946A10811106C062E474E086E095E0AB
:102C40000E945F15E8E8F4E020E035E080E380834F
:102C500081838283838334962E173F07C1F784EFE5
:102C6000882E99249394A12CB12C0E94670D672B78
:102C7000682B692B41F40E94670D62307105810554
:102C8000910508F409C10E94670DC0900205D0901B
:102C90000305E0900405F09005056C157D058E0593
:102CA0009F0540F46093020570930305809304052B
:102CB00090930505C0900205D0900305E0900405AF
:102CC000F09005059B01AC012C193D094E095F09E7
:102CD00069017A013AEFC316D104E104F10408F462
:102CE000DBC0609302057093030580930405909305
:102CF00005058092B1059092B205A092B305B092FD
:102D0000B4051092B5051092B6051092B705109251
:102D1000B8058091A9059091AA05A091AB05B09145
:102D2000AC058093AD059093AE05A093AF05B0932D
:102D3000B0050E94670D6093A9057093AA05809362
:102D4000AB059093AC050E94670D6093A505709349
:102D5000A6058093A7059093A8050E94670D6B01B7
:102D60007C016EE474E08091E5059091E6050E9497
:102D700073152AE041E050E060E070E08091E505E5
:102D80009091E6050E94D51465E574E08091E50513
:102D90009091E6050E9473152AE0B701A601809183
:102DA000E5059091E6050E94D51467E574E08091F1
:102DB000E5059091E6050E9473158091A905909113
:102DC000AA05A091AB05B091AC05B701A601481BBF
:102DD000590B6A0B7B0B2AE08091E5059091E60583
:102DE0000E94D51467E574E08091E5059091E605B1
:102DF0000E9473154091A9055091AA056091AB05F9
:102E00007091AC058091AD059091AE05A091AF0594
:102E1000B091B005481B590B6A0B7B0B2AE08091DF
:102E2000E5059091E6050E94D51469E574E080916E
:102E3000E5059091E6050E9473150E94670DAB01B0
:102E4000BC012AE08091E5059091E6050E94D51429
:102E50006BE574E08091E5059091E6050E945F15B1
:102E60000E94670D6B017C012B013C0145E0440E83
:102E7000511C611C711C0E94670D6C157D058E052F
:102E80009F0560F50E94670D6093A9057093AA05E0
:102E90008093AB059093AC0580910005909101055E
:102EA000009719F40E94460A16C08130910549F432
:102EB0008BEE95E00E941A10882369F00E9470043E
:102EC0000AC08230910519F40E94D10804C003970A
:102ED00011F40E947B050E94F311C7CE46165706D7
:102EE0006806790640F6CECFE6E0F5E0138212825E
:102EF00088EE93E0A0E0B0E084839583A683B78357
:102F000084ED91E09183808385EC90E095878487C0
:102F100084EC90E09787868780EC90E0918B808BA3
:102F200081EC90E0938B828B82EC90E0958B848B8C
:102F300086EC90E0978B868B118E128E138E148EFA
:102F4000E3EAF5E016821782108611861286138650
:102F50001486158616861786108A118A128A138A95
:102F6000148A158AAAE0B7E013961C921E92129753
:102F700015961C921E92149717961C921E921697E5
:102F800086EE91E011969C938E9340E050E060EACB
:102F900070E4409306075093070760930807709307
:102FA0000907EBEEF5E0138212828FEF84838287AC
:102FB000838714861586108A1786128A118A148AC6
:102FC000138AB68BA58B9AE0978B2AEF31E0318379
:102FD00020831092050792E0908F818F0895FB0166
:102FE000DC0102C005900D9241505040D8F7089581
:102FF0000E943A1808F481E00895E89409C097FB0C
:103000003EF490958095709561957F4F8F4F9F4FBF
:103010009923A9F0F92F96E9BB279395F695879503
:1030200077956795B795F111F8CFFAF4BB0F11F4C6
:1030300060FF1BC06F5F7F4F8F4F9F4F16C088236D
:1030400011F096E911C0772321F09EE8872F762FA3
:1030500005C0662371F096E8862F70E060E02AF0E4
:103060009A95660F771F881FDAF7880F96958795D0
:1030700097F90895990F0008550FAA0BE0E8FEEFA5
:1030800016161706E807F907C0F012161306E4072C
:10309000F50798F0621B730B840B950B39F40A2625
:1030A00061F0232B242B252B21F408950A2609F403
:1030B000A140A6958FEF811D811D08950E94711872
:1030C0000C94E2180E94D41838F00E94DB1820F00B
:1030D000952311F00C94CB180C94D11811240C9456
:1030E00016190E94F31870F3959FC1F3950F50E0E5
:1030F000551F629FF001729FBB27F00DB11D639FAA
:10310000AA27F00DB11DAA1F649F6627B00DA11D4F
:10311000661F829F2227B00DA11D621F739FB00DF5
:10312000A11D621F839FA00D611D221F749F332765
:10313000A00D611D231F849F600D211D822F762FFE
:103140006A2F11249F5750409AF0F1F088234AF0DB
:10315000EE0FFF1FBB1F661F771F881F9150504047
:10316000A9F79E3F510580F00C94CB180C941619CA
:103170005F3FE4F3983ED4F3869577956795B795CE
:10318000F795E7959F5FC1F7FE2B880F911D9695E8
:10319000879597F9089597F99F6780E870E060E058
:1031A00008959FEF80EC089500240A9416161706E0
:1031B00018060906089500240A9412161306140628
:1031C00005060895092E0394000C11F4882352F08B
:1031D000BB0F40F4BF2B11F460FF04C06F5F7F4F43
:1031E0008F4F9F4F089557FD9058440F551F59F02A
:1031F0005F3F71F04795880F97FB991F61F09F3FE4
:1032000079F087950895121613061406551FF2CF0C
:103210004695F1DF08C0161617061806991FF1CF5C
:1032200086957105610508940895E894BB27662783
:103230007727CB0197F90895A1E21A2EAA1BBB1B91
:10324000FD010DC0AA1FBB1FEE1FFF1FA217B30772
:10325000E407F50720F0A21BB30BE40BF50B661F88
:10326000771F881F991F1A9469F76095709580954C
:1032700090959B01AC01BD01CF0108955058BB272B
:10328000AA270E9456190C94E2180E94D41838F00C
:103290000E94DB1820F039F49F3F19F426F40C94B7
:1032A000D1180EF4E095E7FB0C94CB18E92F0E949F
:1032B000F31858F3BA17620773078407950720F0CD
:1032C00079F4A6F50C9415190EF4E0950B2EBA2F8F
:1032D000A02D0B01B90190010C01CA01A00111241C
:1032E000FF27591B99F0593F50F4503E68F11A16C8
:1032F000F040A22F232F342F4427585FF3CF469559
:1033000037952795A795F0405395C9F77EF41F167A
:10331000BA0B620B730B840BBAF09150A1F0FF0F44
:10332000BB1F661F771F881FC2F70EC0BA0F621F30
:10333000731F841F48F4879577956795B795F79520
:103340009E3F08F0B0CF9395880F08F09927EE0FB5
:103350009795879508950E94BF190C94E2180E94D2
:10336000DB1858F00E94D41840F029F45F3F29F090
:103370000C94CB1851110C9416190C94D1180E946E
:10338000F31868F39923B1F3552391F3951B550B6B
:10339000BB27AA2762177307840738F09F5F5F4F28
:1033A000220F331F441FAA1FA9F335D00E2E3AF067
:1033B000E0E832D091505040E695001CCAF72BD07F
:1033C000FE2F29D0660F771F881FBB1F26173707D0
:1033D0004807AB07B0E809F0BB0B802DBF01FF2702
:1033E00093585F4F3AF09E3F510578F00C94CB18FC
:1033F0000C9416195F3FE4F3983ED4F386957795C5
:103400006795B795F7959F5FC9F7880F911D9695BA
:10341000879597F90895E1E0660F771F881FBB1F16
:10342000621773078407BA0720F0621B730B840BC3
:10343000BA0BEE1F88F7E09508950E943A1808F439
:103440008FEF0895EE0FFF1F0590F491E02D099482
:1034500081E090E0F8940C94361AFB01DC0102C084
:1034600001900D9241505040D8F70895F894FFCF45
:10347000320C320C6B7431000000000000000000C0
:10348000000000000000000000000000000000003C
:1034900000006B673000000000000000000000002A
:1034A000000000000000000000000000000000001C
:1034B0006B67310000000000000000000000000009
:1034C00000000000000000000000000000006B741D
:1034D00032000000000000000000000000000000BA
:1034E0000000000000000000000000006B6E3000D3
:1034F00000000000000000000000000000000000CC
:1035000000000000000000000000746330000000B4
:1035100000000000000000000000000000000000AB
:1035200000000000000000003030340005000404FA
:103530000D0E131516191A1C232526292A2C323490
:1035400000000000841125131B11D1114C112A1108
:103550003E11000000004F0C4B0C470CD30C350CF7
:10356000BA03B603B203000000006A101A10560C2A
:103570009D0F330CEA03E203FB032C04DC03D903A5
:10358000D603D303CC03DF03C903C603C303C003BD
:10359000880F74696E206869657520677569206495
:1035A000656E3A200052535349203A20006E6F64F2
:1035B0006520636F6E20636F20746865206B65748F
:1035C000206E6F6920766F692074696E2068696566
:1035D00075206D75632063616F0053656E742061A3
:1035E000207265706C79006C7575206964206E6F4F
:1035F000646520636F6E0074687563206869656E2A
:10360000206B6574206E6F692062756320320072D2
:10361000656376206661696C65640067756920641E
:1036200075206C6965752079657520636175206EFC
:103630006F646520636F6E20677569206475206C08
:1036400069657500677569206475206C696575200A
:10365000646F2064756F630074656D70657261746A
:10366000757265313A20200020205E430064617449
:10367000613A2000736F206C616E206775693A2093
:1036800000736F206C616E206E68616E3A20006777
:103690007569206475206C6965752079657520638E
:1036A0006175206E6F646520636F6E206B6574209A
:1036B0006E6F69206D75632032005253534920614B
:1036C000323A200074687563206869656E206B6506
:1036D00074206E6F69206D75632032006E6F6465B3
:1036E00020636F6E20636F20746865206B657420A3
:1036F0006E6F6920766F692074696E2068696575E0
:10370000206D75632074686170006E68617964650E
:103710006E20646179006775692074696E2068693C
:1037200065752079657520636175206B6574206E01
:103730006F6920766F69206E6F6465206368610031
:1037400074696E2068696575206E68616E206475A5
:103750006F633A2000525353492061313A2000747C
:10376000687563206869656E206B6574206E6F698B
:10377000206D756320310064696120636869206988
:1037800064206368613A2000746875632068696525
:103790006E206B6574206E6F69206D756320330039
:1037A000564D4450565F317C315F564D4450560D56
:1037B0000A00696E6974206661696C656400564D23
:1037C0004450455F003A323A007C005F564D445009
:0237D0004500B2
:00000001FF
