:100000000C9488030C94370E0C94100E0C94B003CF
:100010000C94B0030C94B0030C94B0030C94B00394
:100020000C94B0030C94B0030C94B0030C945E0ECB
:100030000C94B0030C94B0030C94B0030C94B00374
:100040000C94C60D0C94B0030C9478120C945212BC
:100050000C94B0030C94B0030C94B0030C94B00354
:100060000C94B0030C94B0030000000023002600A1
:10007000290072740092740048940078C400000053
:100080000000240027002A000000000025002800AE
:100090002B00040404040404040402020202020209
:1000A000030303030303010204081020408001023C
:1000B00004081020010204081020000000080002BB
:1000C0000100000304070000000000000000000021
:1000D000C842AEC7C8425C8FC9420A57CA42B81E5E
:1000E000CB4266E6CB4214AECC42C375CD42713DE5
:1000F000CE421F05CF42CDCCCF427B94D042295C6B
:10010000D142D723D24285EBD24233B3D342E17AF4
:10011000D4428F42D5423D0AD642CDCCD6427B94C2
:10012000D742295CD842D723D94285EBD94233B391
:10013000DA42C375DB42713DDC421F05DD42CDCCA6
:10014000DD427B94DE420A57DF42B81EE04266E69B
:10015000E042F6A8E142A470E2425238E3420000D5
:10016000E4428FC2E4423D8AE542CD4CE6427B1434
:10017000E74229DCE742B89EE8426666E942F62893
:10018000EA42A4F0EA4252B8EB42E17AEC428F42F2
:10019000ED421F05EE42CDCCEE425C8FEF420A5796
:1001A000F0429A19F14248E1F142D7A3F242856B3D
:1001B000F342142EF442A4F0F44252B8F542E17A2C
:1001C000F6428F42F7421F05F842AEC7F8425C8FF5
:1001D000F942EC51FA427B14FB4229DCFB42B89E07
:1001E000FC424861FD42F628FE4285EBFE4214AE19
:1001F000FF4252380043299C004371FD0043B85E22
:10020000014300C00143482102431F85024366E6C3
:100210000243AE470343F6A803433D0A0443856BFC
:100220000443CDCC0443142E0543EC91054333F332
:1002300005437B540643C3B506430A170743527868
:1002400007439AD90743E13A0843299C084371FDC3
:100250000843B85E094300C0094348210A438F821E
:100260000A4348E10A438F420B43D7A30B431F05C0
:100270000C4366660C43AEC70C43F6280D433D8A1B
:100280000D43F6E80D433D4A0E4385AB0E43CD0CBE
:100290000F43146E0F43CDCC0F43142E10435C8FCD
:1002A0001043A4F010435C4F1143A4B01143EC1170
:1002B0001243A4701243ECD1124333331343EC9135
:1002C000134333F313437B54144333B314437B146A
:1002D0001543C37515437BD41543C33516437B942F
:1002E0001643C3F516437B541743C3B517437B141A
:1002F0001843C37518437BD41843C33519437B9403
:100300001943C3F519437B541A43C3B51A437B14ED
:100310001B43C3751B437BD41B4333331C437B9468
:100320001C4333F31C437B541D4333B31D43EC1177
:100330001E4333731E43ECD11E43A4301F435C8F16
:100340001F43A4F01F435C4F204314AE2043CD0C49
:100350002143146E2143CDCC2143852B22433D8A7A
:100360002243F6E822433D4A2343F6A82343AE073F
:100370002443666624431FC52443D72325438F8225
:100380002543D7E325438F42264348A12643000057
:100390002743B85E274371BD2743291C2843E17AD0
:1003A00028439AD92843523829430A972943C3F549
:1003B00029437B542A4333B32A43EC112B43146E55
:1003C0002B43CDCC2B43852B2C433D8A2C43F6E885
:1003D0002C43AE472D4366A62D431F052E4348618F
:1003E0002E4300C02E43B81E2F43717D2F4329DCBE
:1003F0002F43523830430A973043C3F530437B5480
:100400003143A4B031435C0F3243146E32433DCAD2
:100410003243F6283343AE873343D7E333438F4227
:10042000344348A1344371FD3443295C354352B809
:1004300035430A173643C3753643ECD13643A430EF
:100440003743CD8C374385EB3743AE47384366A6F9
:1004500038438F0239434861394371BD3943291C00
:100460003A4352783A430AD73A4333333B435C8F9B
:100470003B4314EE3B433D4A3C43F6A83C431F0537
:100480003D4348613D4300C03D43291C3E435278F3
:100490003E430AD73E4333333F435C8F3F4385EBB4
:1004A0003F433D4A404366A640438F024143B85E06
:1004B000414371BD41439A194243C3754243ECD154
:1004C0004243142E4343CD8C4343F6E843431F4538
:1004D000444348A1444371FD44439A594543C3B53D
:1004E0004543EC114643146E46433DCA46436626D7
:1004F00047438F824743B8DE4743E13A48430A9770
:10050000484333F348435C4F494385AB4943AE0707
:100510004A43D7634A4300C04A43291C4B4352789D
:100520004B437BD44B43A4304C43CD8C4C4366E6C9
:100530004C438F424D43B89E4D43E1FA4D430A5719
:100540004E4333B34E43CD0C4F43F6684F431FC564
:100550004F4348215043E17A50430AD75043333345
:1005600051435C8F5143F6E851431F45524348A124
:100570005243E1FA52430A57534333B35343CD0C2A
:100580005443F66854438FC25443B81E5543E17A2E
:1005900055437BD45543A43056433D8A564366E6C3
:1005A000564300405743299C5743C3F55743EC51EA
:1005B000584385AB5843AE0759434861594371BD11
:1005C00059430A175A43A4705A43CDCC5A4366265E
:1005D0005B438F825B4329DC5B43C3355C43EC9117
:1005E0005C4385EB5C431F455D4348A15D43E1FAF5
:1005F0005D437B545E4314AE5E433D0A5F43D76365
:100600005F4371BD5F430A17604333736043CDCCD2
:10061000604366266143008061439AD96143C335D4
:1006200062435C8F6243F6E862438F426343299CD6
:100630006343C3F563435C4F6443F6A864431F05FB
:100640006543B85E654352B86543EC116643856BFC
:1006500066431FC56643B81E674352786743ECD1B3
:100660006743852B68431F856843B8DE6843C335FD
:1006700069435C8F6943F6E869438F426A43299C6A
:100680006A43C3F56A435C4F6B43F6A86B430000B3
:100690006C439A596C4333B36C43CD0C6D4366661F
:1006A0006D4371BD6D430A176E43A4706E433DCA1E
:1006B0006E4348216F43E17A6F437BD46F43142E1E
:1006C00070431F857043B8DE7043523871435C8FAE
:1006D0007143F6E871438F4272439A99724333F340
:1006E00072433D4A7343D7A3734371FD73437B54F5
:1006F000744314AE74431F057543B85E7543C3B5A8
:1007000075435C0F76436666764300C076432819CE
:1007100011241FBECFEFD8E0DEBFCDBF14E0A0E0B4
:10072000B1E0E2E4F8E302C005900D92AA39B10706
:10073000D9F727E0AAE9B4E001C01D92A235B207BB
:10074000E1F713E0C8E8D3E004C02197FE010E945E
:100750000B1CC738D107C9F70E9423170C941F1C24
:100760000C940000FC01738362830895FC0177837D
:1007700066830895FC0175836483089580E008957D
:10078000FC0181850895FC0180850895FC01878125
:100790000895FC0186810895FC01409595854923C3
:1007A000642B65870895FC0164870895FC016387C5
:1007B0000895FC0162870895FC0164830895FC019B
:1007C00065830895FC012281338123303105D1F303
:1007D00081E00895CF93DF93EC01E881F9810280F5
:1007E000F381E02DCE0109958823B9F3DF91CF91F4
:1007F000089581E008958F929F92AF92BF92CF9219
:10080000DF92EF92FF92CF93DF93EC016B010E9496
:10081000BA0D4B015C01E12CF12C0E94BA0DDC01F8
:10082000CB0188199909AA09BB098C159D05AE054C
:10083000BF0530F48A819B81039779F381E001C081
:1008400080E0DF91CF91FF90EF90DF90CF90BF904D
:10085000AF909F908F9008958F929F92AF92BF928A
:10086000CF92DF92EF92FF92CF93DF93EC016B0177
:100870000E94BA0D4B015C01E12CF12C0E94BA0DD3
:10088000DC01CB0188199909AA09BB098C159D05C2
:10089000AE05BF0550F4E881F9810280F381E02DB7
:1008A000CE010995882351F301C080E0DF91CF91FB
:1008B000FF90EF90DF90CF90BF90AF909F908F9080
:1008C0000895CF93DF93CDB7DEB72E970FB6F89488
:1008D000DEBF0FBECDBFDC01FB018C918983119679
:1008E0008C9111978A8312968C918B8380E38C83F1
:1008F0008D8386E38E8383818F838481888785813E
:1009000089878091B2048A878091B0048B87809117
:10091000AE048C87809100018D874EE0BE016F5F31
:100920007F4F8BE296E00E94F00F8BE296E00E94F0
:10093000E20368EF71E086E495E00E94B2152E961E
:100940000FB6F894DEBF0FBECDBFDF91CF910895F3
:100950009CB59C7F282F2370922B9CBD2DB582FBCC
:10096000992790F9822F8E7F892B8DBD08950F9343
:100970001F93CF93DF93CDB7DEB7CA51D1400FB6E7
:10098000F894DEBF0FBECDBF8BEFC65EDE4F88830F
:10099000CA51D140AE01465E5E4FBE016F5F7F4FD0
:1009A0008BE296E00E94A90C882309F49AC061E0CA
:1009B00088E00E94D3126EE272E086E495E00E9425
:1009C000C615BE016F5F7F4F86E495E00E94B215A9
:1009D00061E472E086E495E00E94C6150091390654
:1009E000002E000C110BC8010E94941589818B36D2
:1009F00099F58A818E3609F057C08B81803309F0D2
:100A000076C00D3C1F4F0CF472C069E472E086E4BE
:100A100095E00E94B21584E0E8E2F1E0DE01A45026
:100A2000BF4F01900D928A95E1F7ECEFF0E0EC0FEB
:100A3000FD1F34968AE1DF011D928A95E9F7BE0118
:100A40006F5F7F4FCE0184509F4F0E94610460E032
:100A500088E00E94D3124BC0843709F048C08A81D5
:100A6000833609F044C08B81803371F48C818033EC
:100A7000F1F58D818033D9F58E818633C1F5CE01B4
:100A800001960E947D1633C0813389F58C818033B5
:100A900071F58D81803359F58E81863341F5CE0114
:100AA00001960E94351623C0843709F58B81823365
:100AB000F1F49C818091B404981319C09D818091B8
:100AC000B504981314C09E818091B60498130FC08A
:100AD00082E090E0909341058093400566E772E0E4
:100AE00002C06EE872E086E495E00E94B215C65E30
:100AF000DE4F0FB6F894DEBF0FBECDBFDF91CF91B2
:100B00001F910F9108954F925F926F927F92AF92D3
:100B1000BF92CF92DF92EF92FF920F931F93CF93EA
:100B2000DF93CDB7DEB7C452D1400FB6F894DEBF25
:100B30000FBECDBF8091AC049091AD0403970CF033
:100B400067C00E94BA0DC090A804D090A904E0909C
:100B5000AA04F090AB04DC01CB018C199D09AE090D
:100B6000BF09813A9F40A105B10558F00E94BA0D16
:100B70006093A8047093A9048093AA049093AB0493
:100B800047C00E94BA0DDC01CB018C199D09AE094A
:100B9000BF09803A9F40A105B105D1F56AE972E02D
:100BA00086E495E00E94B21584E0E6E4F1E0DE011F
:100BB000119601900D928A95E1F7FE01359683E03A
:100BC000DF011D928A95E9F780E38C838D8386E3AC
:100BD0008E8347E0BE016F5F7F4F8BE296E00E94FD
:100BE000F00F8BE296E00E94E2030E94BA0D609340
:100BF000A8047093A9048093AA049093AB048091F5
:100C0000AC049091AD0401969093AD048093AC0434
:100C10000E94BA0DC090A404D090A504E090A60450
:100C2000F090A704DC01CB018C199D09AE09BF0926
:100C300089399A43A105B10558F00E94BA0D609315
:100C4000A4047093A5048093A6049093A70437C1CD
:100C50000E94BA0DDC01CB018C199D09AE09BF09B8
:100C600088399A43A105B10509F029C163EC72E006
:100C700086E495E00E94B21581E480937C00809127
:100C80007A00806480937A0080917A0086FDFCCFA0
:100C9000609178008091790070E0782B072E000C2D
:100CA000880B990B0E94E81920914607309147075D
:100CB00040914807509149070E94471A20E030E0D0
:100CC00040E85AE30E94471A6B017C0120E030E0C3
:100CD00041EE54E40E94471A23E333E848E755E421
:100CE0000E94281B2B013C01A70196016AE47CE0CD
:100CF0008FE192E40E94271B9B01AC01C301B2016A
:100D00000E94941B2B013C0107EC10E09FE8A92EE8
:100D1000BB24B394C12CD12CF801EE0FFF1FEE0FB2
:100D2000FF1FCF0182539F4F7C01FC01259135911C
:100D300045915491C301B2010E94E119882341F108
:100D4000F7012591359145915491C301B2010E945B
:100D5000061C18160CF013C368019FEFC91AD90AB4
:100D6000F601EE0FFF1FEE0FFF1FE253FF4F25911D
:100D7000359145915491C301B2010E94061C181689
:100D80000CF4FDC2A801C301B2010E94F8138C014A
:100D90004AE0BE0164507F4FC8010E94AC1967ED64
:100DA00072E086E495E00E94C615A801110F660B5B
:100DB000770B77FF05C0CB01BA010E94711505C002
:100DC0002AE086E495E00E94281567EE72E086E44A
:100DD00095E00E94B21584E0EDE4F1E0DE011196A9
:100DE00001900D928A95E1F7FE0135968BE0DF01C7
:100DF0001D928A95E9F78091B4048C838091B504A3
:100E00008D838091B6048E8380E38F83888796E3F9
:100E100099878A878B879C87C450DF4F8881CC5FF6
:100E2000D0408D87C350DF4F8881CD5FD0408E8703
:100E30006CEE72E086E495E00E94C6152AE04FE071
:100E400050E060E070E086E495E00E9428156EE6D0
:100E500074E086E495E00E941315BE016F5F7F4F3A
:100E600086E495E00E94B2154FE0BE016F5F7F4FB0
:100E70008BE296E00E94F00F8BE296E00E94E20384
:100E80000E94BA0D6093A4047093A5048093A604F5
:100E90009093A7048091A2049091A304019690934B
:100EA000A3048093A20463EF72E086E495E00E94BD
:100EB000C6158091A2049091A3040E9494158BE220
:100EC00096E00E946D10882309F42AC28BEFCC5D56
:100ED000DE4F8883C452D140AE014C5D5E4FBE01EF
:100EE0006F5F7F4F8BE296E00E94A90C882309F484
:100EF00011C261E088E00E94D3126EE272E086E4E3
:100F000095E00E94C615BE016F5F7F4F86E495E0B5
:100F10000E94B21589818B3609F05BC18A818736C0
:100F200009F01CC18B81813309F0EFC14D8550E080
:100F300060E070E02AE086E495E00E94281568EE03
:100F400072E086E495E00E94B21580E090E03BE01C
:100F5000B32E4CEFE42EF12CEC0EFD1EB4E0EB0EA4
:100F6000F11C56E0A52E6AE1C62EDD24D394CC0EEA
:100F7000DD1EE4E0CE0ED11CFC01EE0FFF1FEE0FD4
:100F8000FF1FE853FB4F2081213309F0E1C02C8182
:100F9000203309F0DDC01D81103309F0D9C00E8166
:100FA000063309F0D5C03F8121813213D1C0388585
:100FB00022813213CDC0398523813213C9C084E028
:100FC000EDE4F1E0DE01A450BF4F01900D928A954F
:100FD000E1F7D701EB2D1D92EA95E9F78091B40472
:100FE000C150DF4F8883CF5FD0408091B504C0509F
:100FF000DF4F8883C050D1408091B604CF5FDE4F71
:101000008883C150D140CE5FDE4F1883C250D1409B
:10101000CD5FDE4F1883C350D140CC5FDE4F0883D5
:10102000C450D1408A85CB5FDE4F8883C550D14004
:101030008B85CA5FDE4F8883C650D1408C85C95FDF
:10104000DE4F8883C750D1408D85C85FDE4F8883CF
:10105000C850D1408E85C75FDE4F8883C950D140CC
:1010600060E073E086E495E00E94C615BE0164501E
:101070007F4F86E495E00E94B2156CEB72E080E051
:1010800090E00E943E134FE0BE0164507F4F8BE220
:1010900096E00E94F00F8BE296E00E94E2038091BE
:1010A000A2049091A30401969093A3048093A204B8
:1010B00063EF72E086E495E00E94C6158091A20479
:1010C0009091A3040E94941584E0ECE5F1E0DE0128
:1010D000A65EBE4F01900D928A95E1F7D601EA2DEA
:1010E0001D92EA95E9F7C35EDE4F1883CD51D140DA
:1010F000C25EDE4F1883CE51D140C15EDE4F088301
:10110000CF51D1408F81C05EDE4F8883C052D14025
:101110008885CF5DDE4F8883C152D1408985CE5D01
:10112000DE4F8883C252D1406CEB72E080E090E0E9
:101130000E943E134AE0BE01665E7E4F8BE296E05F
:101140000E94F00F8BE296E00E94E20385E690E0B9
:1011500001968E3191050CF40FCFD7C08E3609F071
:10116000D4C08B81803309F0D0C06BE173E086E49A
:1011700095E00E94B21584E0E6E6F1E0DE01A450BD
:10118000BF4F01900D928A95E1F7ECEFF0E0EC0F84
:10119000FD1F34968AE1DF011D928A95E9F7BE01B1
:1011A0006F5F7F4FCE0184509F4F0E94610460E0CB
:1011B00088E00E94D31262E373E086E495E00E9427
:1011C000C615BE0164507F4F86E495E00E94B215BB
:1011D0009CC0843761F58A81833609F096C08B8183
:1011E000803389F48C81803309F08FC08D81803306
:1011F00009F08BC08E81863309F087C0CE0101963D
:101200000E947D1682C0813309F07FC08C818033BB
:1012100009F07BC08D81803309F077C08E818633E1
:1012200009F073C0CE0101960E9435166EC0843657
:10123000C9F58A818E3609F068C08B81813309F047
:1012400064C09C818091B40498135FC09D8180919B
:10125000B50498135AC09E818091B604981355C066
:101260008F81803309F051C08885803309F04DC0EB
:101270008985863309F049C08091A0049091A1042A
:1012800001969093A1048093A00466E473E086E441
:1012900095E00E94C6158091A0049091A1040E943F
:1012A000941533C08E3689F58A81873671F58B8126
:1012B000853759F59C818091B404981326C09D818F
:1012C0008091B504981321C09E818091B604981333
:1012D0001CC064E573E086E495E00E94B21560E10D
:1012E00077E280E090E00E943E131092A3041092F7
:1012F000A2041092A1041092A00462E673E086E4B6
:1013000095E00E94B2150E94830560E088E00E948B
:10131000D31206C06EE872E086E495E00E94B21532
:101320008091A2049091A3048A30910509F059C0DC
:101330002091A0043091A104821B930B05975CF4CB
:101340001092A3041092A2048FEF9FEF9093A10438
:101350008093A00446C0109241051092400580E39E
:101360008093B4048093B5048093B6041092A304D0
:101370001092A2041092A1041092A00432C0F701AE
:101380002591359145915491C301B2010E94E11913
:1013900087FF17C05801A1E0AA1AB108F501EE0FA6
:1013A000FF1FEE0FFF1FE253FF4F2591359145912F
:1013B0005491C301B2010E94E11987FD02C0A50149
:1013C000E2CC85010C191D0917FF02C00F5F1F4FEA
:1013D000159507950C0D1D1DCA14DB040CF0D8CC17
:1013E0009BCCCC5DDE4F0FB6F894DEBF0FBECDBFF9
:1013F000DF91CF911F910F91FF90EF90DF90CF90F1
:10140000BF90AF907F906F905F904F900895CF9274
:10141000DF92EF92FF920F931F93CF93DF93CDB79D
:10142000DEB7CA51D1400FB6F894DEBF0FBECDBFB4
:101430000E94BA0DC0909C04D0909D04E0909E0440
:10144000F0909F04DC01CB018C199D09AE09BF0906
:1014500089399A43A105B105A0F50E94BA0DDC01B6
:10146000CB018C199D09AE09BF0988399A43A105A2
:10147000B10589F56BE673E086E495E00E94B2154C
:1014800084E0E4E8F1E0DE01119601900D928A9586
:10149000E1F7FE01359683E0DF011D928A95E9F7B9
:1014A00080E38C838D8386E38E8347E0BE016F5F8C
:1014B0007F4F8BE296E00E94F00F8BE296E00E9455
:1014C000E2030E94BA0D60939C0470939D04809384
:1014D0009E0490939F048BE296E00E946D108823F7
:1014E00009F4B7C08BEFC65EDE4F8883CA51D14086
:1014F000AE01465E5E4FBE016F5F7F4F8BE296E0AE
:101500000E94A90C882309F49EC061E088E00E9433
:10151000D3126EE272E086E495E00E94C615BE0129
:101520006F5F7F4F86E495E00E94B21566E973E035
:1015300086E495E00E94C61500913906002E000C45
:10154000110BC8010E94941589818B36C9F58A81D7
:101550008E3609F05DC08B81803309F07AC00C3C77
:101560001F4F0CF076C06DE973E086E495E00E94B1
:10157000B21565EB73E086E495E00E94B21584E055
:10158000E4E8F1E0DE01A450BF4F01900D928A958E
:10159000E1F7ECEFF0E0EC0FFD1F34968AE1DF019C
:1015A0001D928A95E9F7BE016F5F7F4FCE0184508F
:1015B0009F4F0E94610460E088E00E94D31249C0FE
:1015C000843709F046C08A81833609F042C08B8196
:1015D000803371F48C818033E1F58D818033C9F5DE
:1015E0008E818633B1F5CE0101960E947D1631C001
:1015F000813379F58C81803361F58D81803349F5B4
:101600008E81863331F5CE0101960E94351621C0B8
:101610008736F9F48B818033E1F49C818091B404A6
:10162000981317C09D818091B504981312C09E81B4
:101630008091B60498130DC083E090E0909341052B
:101640008093400506C06EE872E086E495E00E9453
:10165000B215C65EDE4F0FB6F894DEBF0FBECDBF2B
:10166000DF91CF911F910F91FF90EF90DF90CF907E
:101670000895CF92DF92EF92FF920F931F93CF9333
:10168000DF93CDB7DEB7CC5FD1090FB6F894DEBFDC
:101690000FBECDBF0E94BA0DC0909C04D0909D0497
:1016A000E0909E04F0909F04DC01CB018C199D0911
:1016B000AE09BF09813A9F40A105B105A0F50E947E
:1016C000BA0DDC01CB018C199D09AE09BF09803A26
:1016D0009F40A105B10589F563EE73E086E495E0CE
:1016E0000E94B21584E0EBE8F1E0DE011196019072
:1016F0000D928A95E1F7FE01359683E0DF011D9298
:101700008A95E9F780E38C838D8386E38E8347E0B7
:10171000BE016F5F7F4F8BE296E00E94F00F8BE27D
:1017200096E00E94E2030E94BA0D60939C047093BD
:101730009D0480939E0490939F048BE296E00E9408
:101740006D10882309F4D1C08BEFC450DF4F88831C
:10175000CC5FD040AE0144505F4FBE016F5F7F4F02
:101760008BE296E00E94A90C882309F4B8C061E0DE
:1017700088E00E94D3126DE074E086E495E00E9458
:10178000C615BE016F5F7F4F86E495E00E94B215DB
:1017900065EE72E086E495E00E94B21566E973E0BA
:1017A00086E495E00E94C61500913906002E000CD3
:1017B000110BC8010E94941589818B3609F08AC0EB
:1017C0008A81843709F086C08B818133F9F48F8157
:1017D000803309F07FC08885803309F07BC089851C
:1017E000863309F077C062E274E086E495E00E94F7
:1017F000B21560E971E080E090E00E943E13CE01F6
:1018000001960E94C81581E090E020C0823319F54E
:101810008F81803309F05EC08885803309F05AC01B
:101820008985863309F056C06DE973E086E495E05A
:101830000E94B21560E971E080E090E00E943E13E2
:10184000CE0101960E94C81582E090E09093410578
:10185000809340053FC08333E9F58F818033D1F514
:1018600088858033B9F589858633A1F5033E1F4FFE
:101870003CF480919A0490919B048B309105CCF0BC
:101880006AE374E086E495E00E94B21564EF71E0CB
:1018900080E090E00E943E13CE0101960E94C815A0
:1018A00064EF71E080E090E00E943E1383E090E0FE
:1018B000CDCF019690939B0480939A0462E574E0E7
:1018C00086E495E00E94C61580919A0490919B044D
:1018D0000E94941560E088E00E94D31206C06EE872
:1018E00072E086E495E00E94B215C450DF4F0FB657
:1018F000F894DEBF0FBECDBFDF91CF911F910F9146
:10190000FF90EF90DF90CF90089508958BEF0895AA
:101910009FB7F8948091B704882319F08150809381
:10192000B7048091B704811103C08CB58F7B8CBD47
:101930009FBF08958CB58F778CBD08958CB5806856
:101940008CBD08956EBD00000DB407FEFDCF8EB5B1
:101950000895CF92DF92EF92FF920F931F93CF9350
:10196000DF93EC017B018A01E881F9810280F38138
:10197000E02D0995D82E882331F1E114F104D9F036
:1019800001151105C1F0CFB6F8948A8D90E0039748
:10199000F801208130E0281739071CF08A8D845027
:1019A0008083F801408150E0BE01615E7F4FC70136
:1019B0000E94161CCFBE8FB7F894FE01E65EFE4F64
:1019C00010821A8E8FBF8D2DDF91CF911F910F91B5
:1019D000FF90EF90DF90CF9008958091BD0490919B
:1019E000BE04009711F00C946C1408958091BB0410
:1019F0009091BC04009711F00C946C1408958091A0
:101A0000B9049091BA04009711F00C946C140895E5
:101A1000CF93DF93EC018D899E89DC01ED91FC91E0
:101A20000680F781E02D099561E08F890E940213FD
:101A300061E08F890E94D31264E670E080E090E05C
:101A40000E943E1381E0DF91CF910895CF93DF9301
:101A5000FC01268137812115310579F021303105CE
:101A600041F02230310539F02330310531F49CE06A
:101A700005C094E003C098E001C090E08CB5837F7E
:101A8000982B9CBD84819581019709F04AC08CB543
:101A900080628CBD8281938101978430910528F406
:101AA000FC01EE56FE4FC08101C0C1E08C2F0E94A8
:101AB000A804DFB7F8948091B704811127C0ECE93E
:101AC000F0E08491E0EBF0E09491E82FF0E0EE0F8D
:101AD000FF1FE258FF4FA591B491EC91E92321F447
:101AE00061E08AE00E94D31261E08AE00E94021362
:101AF0008CB580618CBD8CB580648CBD61E08DE05F
:101B00000E94021361E08BE00E9402138091B704EF
:101B10008F5F8093B704DFBF8C2FDF91CF910C9440
:101B2000A8049CB59F7D9CBDB5CF3FB7F89480912C
:101B3000C4049091C504A091C604B091C70426B511
:101B4000A89B05C02F3F19F00196A11DB11D3FBFF5
:101B5000BA2FA92F982F8827820F911DA11DB11D83
:101B6000BC01CD0142E0660F771F881F991F4A957F
:101B7000D1F708952FB7F8946091C0047091C10413
:101B80008091C2049091C3042FBF08951F920F92B9
:101B90000FB60F9211242F933F938F939F93AF9380
:101BA000BF938091C0049091C104A091C204B091F0
:101BB000C3043091BF0423E0230F2D3720F4019696
:101BC000A11DB11D05C026E8230F0296A11DB11D60
:101BD0002093BF048093C0049093C104A093C204D7
:101BE000B093C3048091C4049091C504A091C6042D
:101BF000B091C7040196A11DB11D8093C4049093B8
:101C0000C504A093C604B093C704BF91AF919F9140
:101C10008F913F912F910F900FBE0F901F901895AD
:101C20001F920F920FB60F9211242F933F934F9351
:101C30005F936F937F938F939F93AF93BF93EF9334
:101C4000FF93E0910401F09105010995FF91EF9157
:101C5000BF91AF919F918F917F916F915F914F91C4
:101C60003F912F910F900FBE0F901F9018951F92CC
:101C70000F920FB60F9211242F933F934F935F93C0
:101C80006F937F938F939F93AF93BF93EF93FF9344
:101C9000E0910201F09103010995FF91EF91BF914D
:101CA000AF919F918F917F916F915F914F913F91F4
:101CB0002F910F900FBE0F901F9018951F920F92AB
:101CC0000FB60F9211242F933F934F935F936F930F
:101CD0007F938F939F93AF93BF93CF93DF93EF93B4
:101CE000FF938091020090910300049709F0CCC00B
:101CF0002091170030E0F901E654FF4F8491F9017B
:101D0000EA55FF4FD491F901EE56FF4FC491CC2311
:101D100079F081110E94AA12EC2FF0E0EE0FFF1F64
:101D2000E859FF4FA591B491EC91ED2381E009F4BE
:101D300080E0817090911A00892729F090911F000E
:101D40009F5F90931F0090911E00981761F090B1D3
:101D5000903510F09DE101C09BE020B1920F90B949
:101D600080931E0003C080B18C5E80B980B1803A40
:101D700008F4DEC082B193B19695879593B982B984
:101D800080911F00853028F082B193B1986093B99B
:101D900082B980B1805A80B910921F0081B1882326
:101DA00009F466C084B18F5F84B98C3008F4C0C078
:101DB00082B193B1982F9F73892F869586958870ED
:101DC00028E0280F281749F0E82FF0E0EA56FE4FE8
:101DD0003081931719F08F5FF5CF80E020E1829F6B
:101DE000C001112422B133B196E0369527959A951A
:101DF000E1F7422F3695279536952795287038E0DC
:101E0000320F321749F0E22FF0E0EA56FE4F5081D0
:101E1000451719F02F5FF5CF20E0822B90916900D4
:101E20009923B9F0E091690091E09E0F90936900C9
:101E3000F0E085A390916900809168009817B0F058
:101E400011B881E080931C0080E090E00E9454145F
:101E50000DC08093680090916800973008F45EC0D0
:101E600090916800943408F059C0DCCF14B860C079
:101E700082B193B188339B4009F05AC081E081B9A7
:101E800014B81092690054C0809102009091030030
:101E9000039709F04DC080916C0091E0980F9093EA
:101EA0006C00811134C0E0916A008091FB00E8175A
:101EB00070F080E090E00E945414809113009091A3
:101EC00014000196909314008093130020C0F0E05A
:101ED000E359FF4F608170E080916B0091E0980FB3
:101EE00090936B0002C0759567958A95E2F76170D3
:101EF000809118000E94D31280916B00863038F0D8
:101F000010926B0080916A008F5F80936A008091CD
:101F10006C00883068F010926C000AC011B8809193
:101F20000F009091100001969093100080930F0085
:101F3000FF91EF91DF91CF91BF91AF919F918F91E1
:101F40007F916F915F914F913F912F910F900FBEB5
:101F50000F901F901895FF920F931F93CF93DF93CD
:101F6000EC01162FF42E0FB7F89460E08F890E94D1
:101F7000D3128D899E89612F6068DC01ED91FC91FF
:101F80000190F081E02D0995182F8D899E89DC0143
:101F9000ED91FC910190F081E02D6F2D099561E0AC
:101FA0008F890E94D3120FBF812FDF91CF911F9194
:101FB0000F91FF900895CF93DF93FC01228133812D
:101FC0002130310549F0EC0140E061E00E94AB0FA7
:101FD00081E090E09B838A8381E0DF91CF91089537
:101FE000CF92DF92EF92FF920F931F93CF93DF93E5
:101FF0004C3F08F066C0142F072FF62EEC01E88145
:10200000F9810484F585E02D0995CE010E94CA135B
:1020100040E06DE0CE010E94AB0F4A8560E0CE014A
:102020000E94AB0F4B8560E0CE010E94AB0F4C8548
:1020300060E0CE010E94AB0F4D8560E0CE010E94B2
:10204000AB0FEFB6F89460E08F890E94D3128D89B0
:102050009E89DC01ED91FC910190F081E02D60E81A
:102060000995CF2CD02E012F015068F08D899E89C3
:10207000F60161916F01DC01ED91FC910190F0811D
:10208000E02D0995F1CF61E08F890E94D312EFBE58
:1020900044E0410F62E2CE010E94AB0F8A819B8136
:1020A000039789F043E061E0CE010E94AB0F40E46A
:1020B00060E4CE010E94AB0F83E090E09B838A83B3
:1020C00002C080E001C081E0DF91CF911F910F91AC
:1020D000FF90EF90DF90CF900895CF93DF93FC01B6
:1020E0002281338123303105B9F0EC018281938163
:1020F000049771F045E061E0CF010E94AB0F40E032
:1021000060E4CE010E94AB0F84E090E09B838A8361
:10211000C65EDE4F888101C080E0DF91CF910895D7
:102120000F931F93CF93DF93EC01162F0FB7F89403
:1021300060E08F890E94D3128D899E89612F6F770D
:10214000DC01ED91FC910190F081E02D09958D89E4
:102150009E89DC01ED91FC910190F081E02D60E021
:102160000995182F61E08F890E94D3120FBF812F2C
:10217000DF91CF911F910F910895EF92FF920F93EE
:102180001F93CF93DF9300D01F92CDB7DEB78C01A2
:102190000E94080DE82E811102C0E12C90C0F801C8
:1021A000808D823029F08330C1F7FF24F39401C081
:1021B000F12C40E861E0C8010E94AB0F6AE070E0DA
:1021C00080E090E00E943E1361E0C8010E94901000
:1021D000803819F760E0F801808D0E940213F80141
:1021E000818D8F3F49F48091B8048430B0F691E03E
:1021F000980F9093B804818FF801818DE82FF0E05B
:10220000EE0FFF1FE754FB4F11830083811103C0C2
:102210006FEF7CE00AC0813019F466EF7CE005C006
:10222000823009F0BACF6DEE7CE08F2D0E94DE1374
:1022300040E06EE0C8010E94AB0F40E06FE0C801D3
:102240000E94AB0FC8010E94CA1343E050E062E74E
:1022500070E0CE0101960E94A31949816DE1C80189
:102260000E94AB0F4A816EE1C8010E94AB0F4B8107
:1022700066E2C8010E94AB0F40E060E2C8010E9424
:10228000AB0F48E061E2C8010E94AB0F4CE666E08C
:10229000C8010E94AB0F40E867E0C8010E94AB0F85
:1022A00040E068E0C8010E94AB0F44E06DE4C80163
:1022B0000E94AB0F48E869E0C8010E94AB0F8E2D69
:1022C0000F900F900F90DF91CF911F910F91FF9082
:1022D000EF900895089580E090E00895FC01538DFB
:1022E000448D252F30E0842F90E0821B930B5417F0
:1022F00010F0CF96089501970895FC01918D828D7D
:10230000981761F0828DDF01A80FB11D5D968C9149
:10231000928D9F5F9F73928F90E008958FEF9FEF54
:102320000895FC01918D828D981731F0828DE80F10
:10233000F11D858D90E008958FEF9FEF0895FC01CA
:10234000918D228D892F90E0805C9F4F821B910997
:102350008F739927089586E495E00E949F1121E0EC
:10236000892B09F420E0822F0895FC01848DDF0180
:10237000A80FB11DA35ABF4F2C91848D90E00196F8
:102380008F739927848FA689B7892C93A089B189E7
:102390008C91837080648C93938D848D981306C088
:1023A0000288F389E02D80818F7D80830895EF92EC
:1023B000FF920F931F93CF93DF93EC0181E0888FFF
:1023C0009B8D8C8D981305C0E889F989808185FDE6
:1023D00026C0F62E0B8D10E00F5F1F4F0F731127D5
:1023E000E02E8C8DE8120CC00FB607FCFACFE889FE
:1023F000F989808185FFF5CFCE010E94B511F1CF1B
:102400008B8DFE01E80FF11DE35AFF4FF0829FB75D
:10241000F8940B8FEA89FB89808180620AC09FB79C
:10242000F894EE89FF896083E889F9898081837057
:10243000806480839FBF81E090E0DF91CF911F9106
:102440000F91FF90EF900895CF93DF93EC01888D6B
:102450008823C9F0EA89FB89808185FD05C0A889A8
:10246000B9898C9186FD0FC00FB607FCF5CF80812E
:1024700085FFF2CFA889B9898C9185FFEDCFCE0178
:102480000E94B511E7CFDF91CF91089580E090E0F1
:10249000892B29F00E94AB1181110C940000089542
:1024A0000E94111C1F920F920FB60F9211242F93AE
:1024B0003F934F935F936F937F938F939F93AF93CC
:1024C000BF93EF93FF9386E495E00E94B511FF91CF
:1024D000EF91BF91AF919F918F917F916F915F919C
:1024E0004F913F912F910F900FBE0F901F90189515
:1024F0001F920F920FB60F9211242F938F939F93D9
:10250000EF93FF93E0915605F09157058081E0919C
:102510005C05F0915D0582FD12C0908180915F05A0
:102520008F5F8F7320916005821751F0E0915F05F6
:10253000F0E0EA5BFA4F958F80935F0501C08081E0
:10254000FF91EF919F918F912F910F900FBE0F9060
:102550001F901895833081F028F4813099F08230F3
:10256000A1F008958730A9F08830B9F08430D1F413
:10257000809180008F7D03C0809180008F77809351
:102580008000089584B58F7702C084B58F7D84BDA7
:1025900008958091B0008F7703C08091B0008F7D47
:1025A0008093B00008951F93CF93DF93282F30E0DE
:1025B000F901E654FF4F8491F901EA55FF4FD49198
:1025C000F901EE56FF4FC491CC23C1F0162F8111B3
:1025D0000E94AA12EC2FF0E0EE0FFF1FE857FF4F0A
:1025E000A591B4919FB7F894111104C08C91D09526
:1025F000D82302C0EC91DE2BDC939FBFDF91CF91FB
:102600001F910895CF93DF9390E0FC01EA55FF4FAF
:102610002491FC01EE56FF4F8491882361F190E0F4
:10262000880F991FFC01E258FF4FC591D491FC011E
:10263000E857FF4FA591B491611109C09FB7F89475
:102640008881209582238883EC912E230BC06230F1
:1026500061F49FB7F8948881322F30958323888363
:10266000EC912E2B2C939FBF06C08FB7F894E88176
:102670002E2B28838FBFDF91CF9108958F929F9249
:10268000AF92BF92CF92DF92EF92FF926B017C01EB
:102690000E94950D4B015C01C114D104E104F104C9
:1026A000F1F00E94950DDC01CB0188199909AA0966
:1026B000BB09883E9340A105B10570F321E0C21A21
:1026C000D108E108F10888EE880E83E0981EA11C6D
:1026D000B11CC114D104E104F10419F7DDCFFF905E
:1026E000EF90DF90CF90BF90AF909F908F90089524
:1026F000CF92DF92EF92FF920F931F93CF93DF93CE
:102700006C017A018B01C0E0D0E0CE15DF0581F0CD
:10271000D8016D918D01D601ED91FC910190F08170
:10272000E02DC6010995892B11F02196EECF7E018F
:10273000C701DF91CF911F910F91FF90EF90DF9034
:10274000CF900895E6E4F5E0A089B18982E08C930A
:10275000A485B5851C92A685B7858FEC8C93108EC9
:10276000A489B58986E08C93A289B3898C91806114
:102770008C93A289B3898C9188608C93A289B38948
:102780008C9180688C930288F389E02D80818F7D05
:1027900080830895CF93DF93FC012281338122301F
:1027A000310549F0EC0141E061E00E94AB0F82E0AD
:1027B00090E09B838A83DF91CF9108958230B8F4B3
:1027C000E82FF0E0EE0FFF1FEE5FFE4F7183608396
:1027D000813039F080916900836080936900E89AC4
:1027E0000895809169008C6080936900E99A08954A
:1027F0004F925F926F927F928F929F92AF92BF9211
:10280000CF92DF92EF92FF920F931F93CF93DF93BC
:10281000EA019A01220F331F220F331FD901A2535D
:10282000BF4FFD0125913591459154918E010F5F68
:102830001F4FF801EE0FFF1FEE0FFF1FE253FF4F78
:1028400085909590A590B490FD0145905590659028
:1028500074900E94271B6B017C01A3019201C501AA
:10286000B4010E94271B20E030E040E05FE30E94BB
:10287000471A9B01AC01C701B6010E94061C18163D
:102880000CF08E01C801DF91CF911F910F91FF9045
:10289000EF90DF90CF90BF90AF909F908F907F9000
:1028A0006F905F904F900895CF93DF93FC0122814A
:1028B00033812230310569F0EC01638D818D0E94F6
:1028C000D31260E0888D0E94D31282E090E09B8357
:1028D0008A83DF91CF910895DF92EF92FF920F9359
:1028E0001F93CF93DF93EC0162E10E9490102A8145
:1028F0003B812430310521F4982F907A09F069C08A
:102900002A813B812430310509F074C086FF72C0F2
:1029100063E1CE010E949010082F60E1CE010E9479
:102920009010482F6DE0CE010E94AB0FDFB6F894F7
:1029300060E08F890E94D3128D899E89DC01ED9120
:10294000FC910190F081E02D60E009957E01BBE1F2
:10295000EB0EF11C102F112379F08D899E89DC017B
:10296000ED91FC910190F081E02D60E00995F70177
:1029700081937F011150EFCF61E08F890E94D312C4
:10298000DFBE0A8F4FEF62E1CE010E94AB0F6AE11A
:10299000CE010E94901089588E878A8DFE01E65ED6
:1029A000FE4F843090F08B8D8E838C8D8F838D8D38
:1029B00088878E8D89878D81811129C09E818C8128
:1029C000981729F18E818F3F11F18081882331F092
:1029D00026C08F8598890196988B8F874FEF62E18B
:1029E000CE01DF91CF911F910F91FF90EF90DF907B
:1029F0000C94AB0F2A813B812330310579F783FF9B
:102A0000EDCF8B899C8901969C8B8B8B08C0898923
:102A10009A8901969A8B898B81E08083D6CFCE01EB
:102A20000E94CA13DBCF6115710579F0FB0101909B
:102A30000020E9F73197AF01461B570BDC01ED9100
:102A4000FC910280F381E02D099480E090E00895EC
:102A50008F929F92AF92BF92EF92FF920F931F932C
:102A6000CF93DF93CDB7DEB7A1970FB6F894DEBF53
:102A70000FBECDBF7C01FA01CB0119A2223008F4B0
:102A80002AE08E010F5D1F4F822E912CA12CB12CBC
:102A9000BF01A50194010E94051BF901CA01015063
:102AA00011096A3014F4605D01C0695CD8016C934F
:102AB000232B242B252B61F7B801C7010E94131586
:102AC000A1960FB6F894DEBF0FBECDBFDF91CF91B8
:102AD0001F910F91FF90EF90BF90AF909F908F90BC
:102AE0000895CF92DF92EF92FF92CF93DF936B0125
:102AF0007C016DE286E495E00E94D711EC01442749
:102B00005527BA014C195D096E097F092AE086E450
:102B100095E00E9428158C0F9D1FDF91CF91FF90AB
:102B2000EF90DF90CF900895CF93DF93AC01990F92
:102B3000660B770B77FF05C0CB01BA010E947115B8
:102B400005C02AE086E495E00E942815EC016EE6B7
:102B500074E086E495E00E9413158C0F9D1FDF91B1
:102B6000CF9108950F931F93CF93DF93EC010E94B1
:102B700013158C016EE674E0CE010E941315800FD0
:102B8000911FDF91CF911F910F9108950C94131510
:102B9000CF93DF93CDB7DEB761970FB6F894DEBF62
:102BA0000FBECDBFFC016381A4EBB4E06C935481F4
:102BB00011965C931197258112962C934185842F51
:102BC00090E09093B3048093B204828590E00196E4
:102BD0009093B1048093B00473853485E32FF0E0C3
:102BE000F093AF04E093AE0494E0E6E0F1E0DE01A0
:102BF000119601900D929A95E1F7FE0135969DE0B0
:102C0000DF011D929A95E9F76C835D832E8390E333
:102C10009F83988726E329874A878B877C873D8710
:102C20009E879F87288B41E1BE016F5F7F4F8BE2BC
:102C300096E00E94F00F8BE296E00E94E203BE0154
:102C40006F5F7F4F86E495E00E94B21565E072E009
:102C500086E495E00E94B21561960FB6F894DEBF47
:102C60000FBECDBFDF91CF910895CF93DF93CDB746
:102C7000DEB761970FB6F894DEBF0FBECDBFFC0183
:102C80008081898381818A8382818B838091B4044E
:102C90008C838091B5048D838091B6048E8380E30C
:102CA0008F83888786E38987DF011996CE010A968C
:102CB000AF01405F5F4F2D91FC012193CF01A4171D
:102CC000B507C9F760E971E080E090E00E943E132B
:102CD00041E1BE016F5F7F4F8BE296E00E94F00FF3
:102CE0008BE296E00E94E20361960FB6F894DEBF95
:102CF0000FBECDBFDF91CF910895AF92BF92CF921B
:102D0000DF92EF92FF920F931F93CF93DF93CDB794
:102D1000DEB761970FB6F894DEBF0FBECDBF8C0152
:102D200080E090E031E3B32E4DE0A42E7E0125E05B
:102D3000E20EF11C56E3C52EFC01EE0FFF1FEE0F55
:102D4000FF1FE853FB4FD080A0E3DA1266C0B082C9
:102D5000D80116968C911697818317968C911797A8
:102D6000828318968C9183836DE072E086E495E00F
:102D70000E94B215809100019091010101969093FB
:102D800001018093000184E0E7E1F1E0DE011196AA
:102D900001900D928A95E1F7F7012A2D11922A955B
:102DA000E9F78091B4048C838091B5048D83809180
:102DB000B6048E83DF82D886C986D80116968C9198
:102DC00016978A8717968C9117978B8718968C91F0
:102DD0008C87DD86DE86CF866AE872E080E090E050
:102DE0000E943E1341E1BE016F5F7F4F8BE296E090
:102DF0000E94F00F8BE296E00E94E2036DE172E028
:102E000086E495E00E94C615BE016F5F7F4F86E4A1
:102E100095E00E94B21585E690E001968E3191050D
:102E20000CF48ACF61960FB6F894DEBF0FBECDBF0B
:102E3000DF91CF911F910F91FF90EF90DF90CF9096
:102E4000BF90AF900895789484B5826084BD84B5B6
:102E5000816084BD85B5826085BD85B5816085BD95
:102E600080916E00816080936E001092810080914D
:102E700081008260809381008091810081608093D5
:102E80008100809180008160809380008091B100FA
:102E900084608093B1008091B00081608093B00025
:102EA00080917A00846080937A0080917A008260B9
:102EB00080937A0080917A00816080937A0080917B
:102EC0007A00806880937A001092C10010922706E1
:102ED000109228061092290610922A061092E505F3
:102EE0001092E6051092E7051092E8050E94BA0DCF
:102EF0006B017C014B015C0128EB820E2BE0921EE2
:102F0000A11CB11C0E94BA0D6C157D058E059F0594
:102F100028F086169706A806B906A0F786E495E07D
:102F200090932606809325060E94A2130E94BA0D54
:102F30006093E5057093E6058093E7059093E805B7
:102F40006FE574E080912506909126060E94C615D3
:102F50000E94BA0D6B017C014B015C013AE0830ECB
:102F6000911CA11CB11C0E94BA0D6C157D058E052B
:102F70009F0528F086169706A806B906A0F781E0F7
:102F80008093F9050E94A2138BE296E00E94BD1087
:102F9000811106C061E774E086E495E00E94B215F5
:102FA000E8ECF4E080E3808381838283838334963A
:102FB00045E0E034F407B9F784EF882E9924939420
:102FC000A12CB12C0E94BA0D672B682B692B41F400
:102FD0000E94BA0D623071058105910508F409C19E
:102FE0000E94BA0DC0904205D0904305E090440580
:102FF000F09045056C157D058E059F0540F46093A6
:103000004205709343058093440590934505C09015
:103010004205D0904305E0904405F09045059B01A2
:10302000AC012C193D094E095F0969017A013AEF9B
:10303000C316D104E104F10408F4DBC06093420537
:103040007093430580934405909345058092F10564
:103050009092F205A092F305B092F4051092F50556
:103060001092F6051092F7051092F8058091E90587
:103070009091EA05A091EB05B091EC058093ED05E8
:103080009093EE05A093EF05B093F0050E94BA0D62
:103090006093E9057093EA058093EB059093EC0546
:1030A0000E94BA0D6093E5057093E6058093E705ED
:1030B0009093E8050E94BA0D6B017C016DE774E006
:1030C00080912506909126060E94C6152AE041E0CF
:1030D00050E060E070E080912506909126060E9405
:1030E000281564E874E080912506909126060E94D8
:1030F000C6152AE0B701A601809125069091260603
:103100000E94281566E874E08091250690912606B5
:103110000E94C6158091E9059091EA05A091EB0502
:10312000B091EC05B701A601481B590B6A0B7B0B4C
:103130002AE080912506909126060E94281566E8CF
:1031400074E080912506909126060E94C615409154
:10315000E9055091EA056091EB057091EC058091CD
:10316000ED059091EE05A091EF05B091F005481B9B
:10317000590B6A0B7B0B2AE080912506909126065D
:103180000E94281568E874E0809125069091260633
:103190000E94C6150E94BA0DAB01BC012AE08091C5
:1031A0002506909126060E9428156AE874E0809111
:1031B0002506909126060E94B2150E94BA0D6B0159
:1031C0007C012B013C0145E0440E511C611C711C2B
:1031D0000E94BA0D6C157D058E059F0598F50E941D
:1031E000BA0D6093E9057093EA058093EB0590931F
:1031F000EC058091400590914105009719F40E94DB
:10320000390B1DC08130910549F48BE296E00E9494
:103210006D108823A1F00E94B70411C0823091057F
:1032200019F40E94070A0BC0039719F40E94830542
:1032300006C061E974E086E495E00E94B2150E9440
:103240004612C0CE461657066806790608F6C7CF5E
:10325000E6E4F5E01382128288EE93E0A0E0B0E0AD
:1032600084839583A683B7838AEA91E091838083E0
:1032700085EC90E09587848784EC90E0978786873B
:1032800080EC90E0918B808B81EC90E0938B828B33
:1032900082EC90E0958B848B86EC90E0978B868B0C
:1032A000118E128E138E148EE3EEF5E016821782C5
:1032B0001086118612861386148615861686178642
:1032C000108A118A128A138A148A158AAAE4B7E02E
:1032D00013961C921E92129715961C921E9214978A
:1032E00017961C921E9216978CEB91E011969C9368
:1032F0008E9340E050E060EA70E4409346075093BC
:1033000047076093480770934907EBE2F6E01382A2
:1033100012828FEF84838287838714861586108AB2
:103320001786128A118A148A138AB68BA58B9AE0A3
:10333000978B20ED31E0318320831092450792E096
:10334000908F818F0895FB01DC0102C005900D92E2
:1033500041505040D8F70895BB274A3031F49923A3
:1033600022F4BDE2909581959F4F0C94B819BB272C
:10337000FB015527AA27880F991FAA1FA41710F031
:10338000A41B83955051B9F7A05DAA3308F0A95D3D
:10339000A193009779F7B111B1931192CB010C94DD
:1033A000D119DC01FC01672F71917723E1F7329786
:1033B00004C07C916D9370836291AE17BF07C8F310
:1033C00008950E94231A08F481E00895E89409C042
:1033D00097FB3EF490958095709561957F4F8F4F48
:1033E0009F4F9923A9F0F92F96E9BB279395F6955E
:1033F000879577956795B795F111F8CFFAF4BB0FDC
:1034000011F460FF1BC06F5F7F4F8F4F9F4F16C03F
:10341000882311F096E911C0772321F09EE8872FC9
:10342000762F05C0662371F096E8862F70E060E085
:103430002AF09A95660F771F881FDAF7880F9695FE
:10344000879597F90895990F0008550FAA0BE0E8A2
:10345000FEEF16161706E807F907C0F01216130656
:10346000E407F50798F0621B730B840B950B39F496
:103470000A2661F0232B242B252B21F408950A26FC
:1034800009F4A140A6958FEF811D811D08950E942A
:103490005A1A0C94CB1A0E94BD1A38F00E94C41A12
:1034A00020F0952311F00C94B41A0C94BA1A11243C
:1034B0000C94FF1A0E94DC1A70F3959FC1F3950FCC
:1034C00050E0551F629FF001729FBB27F00DB11DA8
:1034D000639FAA27F00DB11DAA1F649F6627B00D38
:1034E000A11D661F829F2227B00DA11D621F739F21
:1034F000B00DA11D621F839FA00D611D221F749F2F
:103500003327A00D611D231F849F600D211D822F75
:10351000762F6A2F11249F5750409AF0F1F088239C
:103520004AF0EE0FFF1FBB1F661F771F881F9150C9
:103530005040A9F79E3F510580F00C94B41A0C94AA
:10354000FF1A5F3FE4F3983ED4F38695779567952D
:10355000B795F795E7959F5FC1F7FE2B880F911DF3
:103560009695879597F9089597F99F6780E870E099
:1035700060E008959FEF80EC089500240A941616E9
:10358000170618060906089500240A941216130651
:10359000140605060895092E0394000C11F48823DF
:1035A00052F0BB0F40F4BF2B11F460FF04C06F5FFB
:1035B0007F4F8F4F9F4F089557FD9058440F551FD1
:1035C00059F05F3F71F04795880F97FB991F61F0A5
:1035D0009F3F79F087950895121613061406551F1C
:1035E000F2CF4695F1DF08C0161617061806991F88
:1035F000F1CF86957105610508940895E894BB277D
:1036000066277727CB0197F90895A1E21A2EAA1B06
:10361000BB1BFD010DC0AA1FBB1FEE1FFF1FA21782
:10362000B307E407F50720F0A21BB30BE40BF50B7F
:10363000661F771F881F991F1A9469F76095709508
:10364000809590959B01AC01BD01CF010895505824
:10365000BB27AA270E943F1B0C94CB1A0E94BD1ABD
:1036600038F00E94C41A20F039F49F3F19F426F470
:103670000C94BA1A0EF4E095E7FB0C94B41AE92FF7
:103680000E94DC1A58F3BA1762077307840795077C
:1036900020F079F4A6F50C94FE1A0EF4E0950B2EAA
:1036A000BA2FA02D0B01B90190010C01CA01A00194
:1036B0001124FF27591B99F0593F50F4503E68F1EF
:1036C0001A16F040A22F232F342F4427585FF3CF30
:1036D000469537952795A795F0405395C9F77EF401
:1036E0001F16BA0B620B730B840BBAF09150A1F04A
:1036F000FF0FBB1F661F771F881FC2F70EC0BA0FD0
:10370000621F731F841F48F4879577956795B79557
:10371000F7959E3F08F0B0CF9395880F08F0992752
:10372000EE0F9795879508950E94A81B0C94CB1ACD
:103730000E94C41A58F00E94BD1A40F029F45F3F5D
:1037400029F00C94B41A51110C94FF1A0C94BA1A63
:103750000E94DC1A68F39923B1F3552391F3951B6A
:10376000550BBB27AA2762177307840738F09F5FA2
:103770005F4F220F331F441FAA1FA9F335D00E2E0F
:103780003AF0E0E832D091505040E695001CCAF77C
:103790002BD0FE2F29D0660F771F881FBB1F26173F
:1037A00037074807AB07B0E809F0BB0B802DBF0116
:1037B000FF2793585F4F3AF09E3F510578F00C94E5
:1037C000B41A0C94FF1A5F3FE4F3983ED4F3869545
:1037D00077956795B795F7959F5FC9F7880F911D06
:1037E0009695879597F90895E1E0660F771F881FF2
:1037F000BB1F621773078407BA0720F0621B730BA5
:10380000840BBA0BEE1F88F7E09508950E94231AE7
:1038100008F48FEF0895EE0FFF1F0590F491E02D4F
:10382000099481E090E0F8940C941F1CFB01DC01EA
:1038300002C001900D9241505040D8F70895F8947D
:02384000FFCFB8
:103842000100850C850C746330000000000000004C
:10385200000000000000007463310000000000005E
:1038620000000000000000006B7431000000000046
:103872000000000000000000000000000000000046
:103882000000000000006B6730000000006B673131
:10389200000000000000000000000000646E310023
:1038A2000000000000006B74330000000000000004
:1038B2000000000000000000000000000000000006
:1038C200000000006B7432000000006B6E300000DC
:1038D2000000050004040D0E131516191A1C2325E9
:1038E20026292A2C323400000000D71178136E11D9
:1038F20024129F117D11911100000000A20C9E0C58
:103902009A0C260D880CBA03B603B203000000001D
:10391200BD106D10A90CF00F860CEA03E203FB0345
:103922002C04DC03D903D603D303CC03DF03C9037E
:10393200C603C303C003DB0F53656E74206120729C
:1039420065706C790053656E74206B74006C7575CC
:10395200206964206E6F646520636F6E0064752059
:103962006C696575206461206775693A2000746925
:103972006E2068696575206775692064656E3A20F6
:103982000052535349203A20006E6F646520636FE2
:103992006E20636F20746865206B6574206E6F699A
:1039A20020766F692074696E2068696575206D756F
:1039B200632063616F0074687563206869656E20B7
:1039C2006B6574206E6F69206275632032007265C8
:1039D2006376206661696C65640067756920647549
:1039E200206C6965752079657520636175206E6F3D
:1039F200646520636F6E20677569206475206C6949
:103A0200657500677569206475206C696575206449
:103A12006F2064756F630074656D70657261747593
:103A22007265313A20200020205E43006461746197
:103A32003A2000736F206C616E206775693A20002E
:103A4200677569206475206C696575206C656E20E8
:103A52006E6F6465206368613A2000746875632044
:103A62006869656E206B6574206E6F69206B6E30BD
:103A720020006475206C6965752074727579656EB5
:103A82002064693A2000736F206C616E206E686159
:103A92006E3A200074687563206869656E206E67EF
:103AA20075007468756320646179006775692064C4
:103AB20075206C6965752079657520636175206E66
:103AC2006F646520636F6E206B6574206E6F692072
:103AD2006D7563203200525353493A200074687561
:103AE20063206869656E206B6574206E6F69206D56
:103AF20075632032006E6F646520636F6E20636FA2
:103B020020746865206B6574206E6F6920766F691A
:103B12002074696E2068696575206D75632074680C
:103B22006170006775692074696E20686965752027
:103B320079657520636175206B6574206E6F6920ED
:103B4200766F69206E6F6465206368610074696EC8
:103B52002068696575206E68616E2064756F633ACE
:103B6200200074687563206869656E206B65742037
:103B72006E6F69206D75632031007468756320680B
:103B820069656E206B6574206E6F69206D756320A8
:103B92003300736F206C616E2064656D3A200056AD
:103BA2004D4450565F317C315F564D4450560D0A9C
:103BB20000696E6974206661696C656400564D44E3
:103BC20050455F003A323A007C005F564D44504502
:0A3BD2000074686520656E64000051
:107E0000112484B714BE81FFF0D085E080938100F7
:107E100082E08093C00088E18093C10086E0809377
:107E2000C20080E18093C4008EE0C9D0259A86E02C
:107E300020E33CEF91E0309385002093840096BBD3
:107E4000B09BFECF1D9AA8958150A9F7CC24DD24C4
:107E500088248394B5E0AB2EA1E19A2EF3E0BF2EE7
:107E6000A2D0813461F49FD0082FAFD0023811F036
:107E7000013811F484E001C083E08DD089C08234E0
:107E800011F484E103C0853419F485E0A6D080C0E4
:107E9000853579F488D0E82EFF2485D0082F10E0AE
:107EA000102F00270E291F29000F111F8ED06801E7
:107EB0006FC0863521F484E090D080E0DECF843638
:107EC00009F040C070D06FD0082F6DD080E0C81688
:107ED00080E7D80618F4F601B7BEE895C0E0D1E017
:107EE00062D089930C17E1F7F0E0CF16F0E7DF06D8
:107EF00018F0F601B7BEE89568D007B600FCFDCFD4
:107F0000A601A0E0B1E02C9130E011968C91119780
:107F100090E0982F8827822B932B1296FA010C0160
:107F200087BEE89511244E5F5F4FF1E0A038BF0790
:107F300051F7F601A7BEE89507B600FCFDCF97BE46
:107F4000E89526C08437B1F42ED02DD0F82E2BD052
:107F50003CD0F601EF2C8F010F5F1F4F84911BD097
:107F6000EA94F801C1F70894C11CD11CFA94CF0C13
:107F7000D11C0EC0853739F428D08EE10CD085E9AC
:107F80000AD08FE07ACF813511F488E018D01DD067
:107F900080E101D065CF982F8091C00085FFFCCF94
:107FA0009093C60008958091C00087FFFCCF809118
:107FB000C00084FD01C0A8958091C6000895E0E648
:107FC000F0E098E1908380830895EDDF803219F02E
:107FD00088E0F5DFFFCF84E1DECF1F93182FE3DFCA
:107FE0001150E9F7F2DF1F91089580E0E8DFEE27F6
:047FF000FF270994CA
:027FFE00040479
:0400000300007E007B
:00000001FF