:100000000C9488030C94CB0D0C94A40D0C94B003A9
:100010000C94B0030C94B0030C94B0030C94B00394
:100020000C94B0030C94B0030C94B0030C94F20D38
:100030000C94B0030C94B0030C94B0030C94B00374
:100040000C945A0D0C94B0030C940C120C94E61101
:100050000C94B0030C94B0030C94B0030C94B00354
:100060000C94B0030C94B0030000000023002600A1
:10007000290072740092740048940078C400000053
:100080000000240027002A000000000025002800AE
:100090002B00040404040404040402020202020209
:1000A000030303030303010204081020408001023C
:1000B00004081020010204081020000000080002BB
:1000C0000100000304070000000000000000000021
:1000D000C842AEC7C8425C8FC9420A57CA42B81E5E
:1000E000CB4266E6CB4214AECC42C375CD42713DE5
:1000F000CE421F05CF42CDCCCF427B94D042295C6B
:10010000D142D723D24285EBD24233B3D342E17AF4
:10011000D4428F42D5423D0AD642CDCCD6427B94C2
:10012000D742295CD842D723D94285EBD94233B391
:10013000DA42C375DB42713DDC421F05DD42CDCCA6
:10014000DD427B94DE420A57DF42B81EE04266E69B
:10015000E042F6A8E142A470E2425238E3420000D5
:10016000E4428FC2E4423D8AE542CD4CE6427B1434
:10017000E74229DCE742B89EE8426666E942F62893
:10018000EA42A4F0EA4252B8EB42E17AEC428F42F2
:10019000ED421F05EE42CDCCEE425C8FEF420A5796
:1001A000F0429A19F14248E1F142D7A3F242856B3D
:1001B000F342142EF442A4F0F44252B8F542E17A2C
:1001C000F6428F42F7421F05F842AEC7F8425C8FF5
:1001D000F942EC51FA427B14FB4229DCFB42B89E07
:1001E000FC424861FD42F628FE4285EBFE4214AE19
:1001F000FF4252380043299C004371FD0043B85E22
:10020000014300C00143482102431F85024366E6C3
:100210000243AE470343F6A803433D0A0443856BFC
:100220000443CDCC0443142E0543EC91054333F332
:1002300005437B540643C3B506430A170743527868
:1002400007439AD90743E13A0843299C084371FDC3
:100250000843B85E094300C0094348210A438F821E
:100260000A4348E10A438F420B43D7A30B431F05C0
:100270000C4366660C43AEC70C43F6280D433D8A1B
:100280000D43F6E80D433D4A0E4385AB0E43CD0CBE
:100290000F43146E0F43CDCC0F43142E10435C8FCD
:1002A0001043A4F010435C4F1143A4B01143EC1170
:1002B0001243A4701243ECD1124333331343EC9135
:1002C000134333F313437B54144333B314437B146A
:1002D0001543C37515437BD41543C33516437B942F
:1002E0001643C3F516437B541743C3B517437B141A
:1002F0001843C37518437BD41843C33519437B9403
:100300001943C3F519437B541A43C3B51A437B14ED
:100310001B43C3751B437BD41B4333331C437B9468
:100320001C4333F31C437B541D4333B31D43EC1177
:100330001E4333731E43ECD11E43A4301F435C8F16
:100340001F43A4F01F435C4F204314AE2043CD0C49
:100350002143146E2143CDCC2143852B22433D8A7A
:100360002243F6E822433D4A2343F6A82343AE073F
:100370002443666624431FC52443D72325438F8225
:100380002543D7E325438F42264348A12643000057
:100390002743B85E274371BD2743291C2843E17AD0
:1003A00028439AD92843523829430A972943C3F549
:1003B00029437B542A4333B32A43EC112B43146E55
:1003C0002B43CDCC2B43852B2C433D8A2C43F6E885
:1003D0002C43AE472D4366A62D431F052E4348618F
:1003E0002E4300C02E43B81E2F43717D2F4329DCBE
:1003F0002F43523830430A973043C3F530437B5480
:100400003143A4B031435C0F3243146E32433DCAD2
:100410003243F6283343AE873343D7E333438F4227
:10042000344348A1344371FD3443295C354352B809
:1004300035430A173643C3753643ECD13643A430EF
:100440003743CD8C374385EB3743AE47384366A6F9
:1004500038438F0239434861394371BD3943291C00
:100460003A4352783A430AD73A4333333B435C8F9B
:100470003B4314EE3B433D4A3C43F6A83C431F0537
:100480003D4348613D4300C03D43291C3E435278F3
:100490003E430AD73E4333333F435C8F3F4385EBB4
:1004A0003F433D4A404366A640438F024143B85E06
:1004B000414371BD41439A194243C3754243ECD154
:1004C0004243142E4343CD8C4343F6E843431F4538
:1004D000444348A1444371FD44439A594543C3B53D
:1004E0004543EC114643146E46433DCA46436626D7
:1004F00047438F824743B8DE4743E13A48430A9770
:10050000484333F348435C4F494385AB4943AE0707
:100510004A43D7634A4300C04A43291C4B4352789D
:100520004B437BD44B43A4304C43CD8C4C4366E6C9
:100530004C438F424D43B89E4D43E1FA4D430A5719
:100540004E4333B34E43CD0C4F43F6684F431FC564
:100550004F4348215043E17A50430AD75043333345
:1005600051435C8F5143F6E851431F45524348A124
:100570005243E1FA52430A57534333B35343CD0C2A
:100580005443F66854438FC25443B81E5543E17A2E
:1005900055437BD45543A43056433D8A564366E6C3
:1005A000564300405743299C5743C3F55743EC51EA
:1005B000584385AB5843AE0759434861594371BD11
:1005C00059430A175A43A4705A43CDCC5A4366265E
:1005D0005B438F825B4329DC5B43C3355C43EC9117
:1005E0005C4385EB5C431F455D4348A15D43E1FAF5
:1005F0005D437B545E4314AE5E433D0A5F43D76365
:100600005F4371BD5F430A17604333736043CDCCD2
:10061000604366266143008061439AD96143C335D4
:1006200062435C8F6243F6E862438F426343299CD6
:100630006343C3F563435C4F6443F6A864431F05FB
:100640006543B85E654352B86543EC116643856BFC
:1006500066431FC56643B81E674352786743ECD1B3
:100660006743852B68431F856843B8DE6843C335FD
:1006700069435C8F6943F6E869438F426A43299C6A
:100680006A43C3F56A435C4F6B43F6A86B430000B3
:100690006C439A596C4333B36C43CD0C6D4366661F
:1006A0006D4371BD6D430A176E43A4706E433DCA1E
:1006B0006E4348216F43E17A6F437BD46F43142E1E
:1006C00070431F857043B8DE7043523871435C8FAE
:1006D0007143F6E871438F4272439A99724333F340
:1006E00072433D4A7343D7A3734371FD73437B54F5
:1006F000744314AE74431F057543B85E7543C3B5A8
:1007000075435C0F76436666764300C07643A51852
:1007100011241FBECFEFD8E0DEBFCDBF14E0A0E0B4
:10072000B1E0ECE3F7E302C005900D92A635B10706
:10073000D9F727E0A6E5B4E001C01D92AE30B207BC
:10074000E1F713E0C8E8D3E004C02197FE010E945E
:10075000881BC738D107C9F70E94A0160C949C1BB0
:100760000C940000FC01738362830895FC0177837D
:1007700066830895FC0175836483089580E008957D
:10078000FC0181850895FC0180850895FC01878125
:100790000895FC0186810895FC01409595854923C3
:1007A000642B65870895FC0164870895FC016387C5
:1007B0000895FC0162870895FC0164830895FC019B
:1007C00065830895FC012281338123303105D1F303
:1007D00081E00895CF93DF93EC01E881F9810280F5
:1007E000F381E02DCE0109958823B9F3DF91CF91F4
:1007F000089581E008958F929F92AF92BF92CF9219
:10080000DF92EF92FF92CF93DF93EC016B010E9496
:100810004E0D4B015C01E12CF12C0E944E0DDC01D0
:10082000CB0188199909AA09BB098C159D05AE054C
:10083000BF0530F48A819B81039779F381E001C081
:1008400080E0DF91CF91FF90EF90DF90CF90BF904D
:10085000AF909F908F9008958F929F92AF92BF928A
:10086000CF92DF92EF92FF92CF93DF93EC016B0177
:100870000E944E0D4B015C01E12CF12C0E944E0DAB
:10088000DC01CB0188199909AA09BB098C159D05C2
:10089000AE05BF0550F4E881F9810280F381E02DB7
:1008A000CE010995882351F301C080E0DF91CF91FB
:1008B000FF90EF90DF90CF90BF90AF909F908F9080
:1008C0000895CF93DF93CDB7DEB72E970FB6F89488
:1008D000DEBF0FBECDBFDC01FB018C918983119679
:1008E0008C9111978A8312968C918B8380E38C83F1
:1008F0008D8386E38E8383818F838481888785813E
:10090000898780916E048A8780916C048B8780919F
:100910006A048C87809100018D874EE0BE016F5F75
:100920007F4F87EE95E00E94840F87EE95E00E944E
:10093000E20368E072E082E095E00E9446152E96A0
:100940000FB6F894DEBF0FBECDBFDF91CF910895F3
:100950009CB59C7F282F2370922B9CBD2DB582FBCC
:10096000992790F9822F8E7F892B8DBD08950F9343
:100970001F93CF93DF93CDB7DEB7CA51D1400FB6E7
:10098000F894DEBF0FBECDBF8BEFC65EDE4F88830F
:10099000CA51D140AE01465E5E4FBE016F5F7F4FD0
:1009A00087EE95E00E943D0C882309F49AC061E02F
:1009B00088E00E9467126DE172E082E095E00E949B
:1009C0005A15BE016F5F7F4F82E095E00E94461589
:1009D00060E372E082E095E00E945A150091F5050F
:1009E000002E000C110BC8010E94281589818B363E
:1009F00099F58A818E3609F057C08B81803309F0D2
:100A000076C0033E1F4F0CF472C068E372E082E0D0
:100A100095E00E94461584E0E8E2F1E0DE01A45092
:100A2000BF4F01900D928A95E1F7ECEFF0E0EC0FEB
:100A3000FD1F34968AE1DF011D928A95E9F7BE0118
:100A40006F5F7F4FCE0184509F4F0E94610460E032
:100A500088E00E9467124BC0843709F048C08A8141
:100A6000833609F044C08B81803371F48C818033EC
:100A7000F1F58D818033D9F58E818633C1F5CE01B4
:100A800001960E949E1533C0813389F58C81803395
:100A900071F58D81803359F58E81863341F5CE0114
:100AA00001960E945C1523C0843709F58B8182333F
:100AB000F1F49C8180917004981319C09D818091FC
:100AC0007104981314C09E818091720498130FC012
:100AD00082E090E09093FD048093FC0465E672E070
:100AE00002C06DE772E082E095E00E944615C65EA6
:100AF000DE4F0FB6F894DEBF0FBECDBFDF91CF91B2
:100B00001F910F9108954F925F926F927F92AF92D3
:100B1000BF92CF92DF92EF92FF920F931F93CF93EA
:100B2000DF93CDB7DEB7C452D1400FB6F894DEBF25
:100B30000FBECDBF809168049091690403970CF0BB
:100B400067C00E944E0DC0906404D0906504E09090
:100B50006604F0906704DC01CB018C199D09AE0995
:100B6000BF09813A9F40A105B10558F00E944E0D82
:100B700060936404709365048093660490936704A3
:100B800047C00E944E0DDC01CB018C199D09AE09B6
:100B9000BF09803A9F40A105B105D1F569E872E02F
:100BA00082E095E00E94461584E0E6E4F1E0DE0193
:100BB000119601900D928A95E1F7FE01359683E03A
:100BC000DF011D928A95E9F780E38C838D8386E3AC
:100BD0008E8347E0BE016F5F7F4F87EE95E00E94F6
:100BE000840F87EE95E00E94E2030E944E0D609311
:100BF0006404709365048093660490936704809105
:100C00006804909169040196909369048093680444
:100C10000E944E0DC0906004D0906104E090620488
:100C2000F0906304DC01CB018C199D09AE09BF096A
:100C300081319742A105B10558F00E944E0D609395
:100C4000600470936104809362049093630437C1DD
:100C50000E944E0DDC01CB018C199D09AE09BF0924
:100C600080319742A105B10509F029C162EB72E01C
:100C700082E095E00E94461581E480937C0080919B
:100C80007A00806480937A0080917A0086FDFCCFA0
:100C9000609178008091790070E0782B072E000C2D
:100CA000880B990B0E946519209102073091030768
:100CB00040910407509105070E94C41920E030E0DC
:100CC00040E85AE30E94C4196B017C0120E030E047
:100CD00041EE54E40E94C41923E333E848E755E4A5
:100CE0000E94A51A2B013C01A70196016AE47CE051
:100CF0008FE192E40E94A41A9B01AC01C301B201EE
:100D00000E94111B2B013C0107EC10E09FE8C92E4B
:100D1000DD24D394A12CB12CF801EE0FFF1FEE0FB0
:100D2000FF1FCF0182539F4F7C01FC01259135911C
:100D300045915491C301B2010E945E19882341F18B
:100D4000F7012591359145915491C301B2010E945B
:100D5000831B18160CF0B9C258019FEFA91AB90AE3
:100D6000F501EE0FFF1FEE0FFF1FE253FF4F25911E
:100D7000359145915491C301B2010E94831B18160D
:100D80000CF4A3C2A801C301B2010E948C138C0110
:100D90004AE0BE0164507F4FC8010E94291966ECE9
:100DA00072E082E095E00E945A15A801110F660BCF
:100DB000770B77FF05C0CB01BA010E94051505C06E
:100DC0002AE082E095E00E94BC1466ED72E082E0C9
:100DD00095E00E94461584E0EDE4F1E0DE01119615
:100DE00001900D928A95E1F7FE0135968BE0DF01C7
:100DF0001D928A95E9F7809170048C83809171042B
:100E00008D83809172048E8380E38F83888796E33D
:100E100099878A878B879C87C450DF4F8881CC5FF6
:100E2000D0408D87C350DF4F8881CD5FD0408E8703
:100E30006BED72E082E095E00E945A152AE04FE0E7
:100E400050E060E070E082E095E00E94BC146BE24C
:100E500074E082E095E00E94A714BE016F5F7F4FAF
:100E600082E095E00E9446154FE0BE016F5F7F4F24
:100E700087EE95E00E94840F87EE95E00E94E203E2
:100E80000E944E0D6093600470936104809362042D
:100E90009093630480915E0490915F040196909317
:100EA0005F0480935E0462EE72E082E095E00E944F
:100EB0005A1580915E0490915F040E94281587EE78
:100EC00095E00E940110882309F4D0C18BEFCC5D1E
:100ED000DE4F8883C452D140AE014C5D5E4FBE01EF
:100EE0006F5F7F4F87EE95E00E943D0C882309F4E9
:100EF000B7C161E088E00E9467126DE172E082E0B4
:100F000095E00E945A15BE016F5F7F4F82E095E029
:100F10000E94461589818B3609F03CC18A8187364B
:100F200009F0FDC08B81813309F095C14D8550E0FA
:100F300060E070E02AE082E095E00E94BC1467ED7A
:100F400072E082E095E00E94461580E090E03AE091
:100F5000B32E4CEFE42EF12CEC0EFD1EB4E0EB0EA4
:100F6000F11C56E0A52E6AE1C62EDD24D394CC0EEA
:100F7000DD1EE4E0CE0ED11CFC01EE0FFF1FEE0FD4
:100F8000FF1FEC57FB4F2081213309F0C2C02C8199
:100F9000203309F0BEC01D81103309F0BAC00E81A4
:100FA000063309F0B6C03F8121813213B2C03885C3
:100FB00022813213AEC0398523813213AAC084E066
:100FC000EDE4F1E0DE01A450BF4F01900D928A954F
:100FD000E1F7D701EB2D1D92EA95E9F780917004B6
:100FE000C150DF4F8883CF5FD04080917104C050E3
:100FF000DF4F8883C050D14080917204CF5FDE4FB5
:101000008883C150D140CE5FDE4F1883C250D1409B
:10101000CD5FDE4F1883C350D140CC5FDE4F0883D5
:10102000C450D1408A85CB5FDE4F8883C550D14004
:101030008B85CA5FDE4F8883C650D1408C85C95FDF
:10104000DE4F8883C750D1408D85C85FDE4F8883CF
:10105000C850D1404EE0BE0164507F4F87EE95E00E
:101060000E94840F87EE95E00E94E20380915E0467
:1010700090915F04019690935F0480935E0462EE0A
:1010800072E082E095E00E945A1580915E04909192
:101090005F040E94281584E0ECE5F1E0DE01A65E25
:1010A000BE4F01900D928A95E1F7D601EA2D1D926F
:1010B000EA95E9F7C35EDE4F1883CD51D140C25E99
:1010C000DE4F1883CE51D140C15EDE4F0883CF5131
:1010D000D1408F81C05EDE4F8883C052D140888569
:1010E000CF5DDE4F8883C152D1408985CE5DDE4F12
:1010F0008883C252D1404AE0BE01665E7E4F87EED1
:1011000095E00E94840F87EE95E00E94E20385E659
:1011100090E001968E3191050CF42ECF9CC08E3656
:1011200009F099C08B81803309F095C06FEE72E0B1
:1011300082E095E00E94461584E0E6E6F1E0DE01FB
:10114000A450BF4F01900D928A95E1F7ECEFF0E0CB
:10115000EC0FFD1F34968AE1DF011D928A95E9F7B5
:10116000BE016F5F7F4FCE0184509F4F0E9461048C
:1011700060E088E00E94671266E073E082E095E03C
:101180000E945A15BE0164507F4F82E095E00E9494
:10119000461561C0843751F58A81833609F05BC0FA
:1011A0008B81803389F48C81803309F054C08D8128
:1011B000803309F050C08E81863309F04CC0CE01D7
:1011C00001960E949E1547C0813309F044C08C816E
:1011D000803309F040C08D818033E9F58E818633FC
:1011E000D1F5CE0101960E945C1535C0843699F583
:1011F0008A818E3681F58B81813369F59C8180915E
:101200007004981328C09D8180917104981323C0A5
:101210009E818091720498131EC08F818033D9F40F
:1012200088858033C1F489858633A9F480915C0474
:1012300090915D04019690935D0480935C046AE153
:1012400073E082E095E00E945A1580915C049091D1
:101250005D040E94281560E088E00E94671206C0C5
:101260006DE772E082E095E00E94461580915E0491
:1012700090915F048A30910509F059C020915C0477
:1012800030915D04821B930B05975CF410925F0410
:1012900010925E048FEF9FEF90935D0480935C0447
:1012A00046C01092FD041092FC0480E38093700409
:1012B000809371048093720410925F0410925E0414
:1012C00010925D0410925C0432C0F70125913591B3
:1012D00045915491C301B2010E945E1987FF17C066
:1012E0006801A1E0CA1AD108F601EE0FFF1FEE0F48
:1012F000FF1FE253FF4F2591359145915491C30152
:10130000B2010E945E1987FD02C0A6013CCD860194
:101310000A191B0917FF02C00F5F1F4F159507958C
:101320000A0D1B1DAC14BD040CF032CDF5CCCC5D08
:10133000DE4F0FB6F894DEBF0FBECDBFDF91CF9169
:101340001F910F91FF90EF90DF90CF90BF90AF90E3
:101350007F906F905F904F900895CF92DF92EF92C1
:10136000FF920F931F93CF93DF93CDB7DEB7CA5190
:10137000D1400FB6F894DEBF0FBECDBF0E944E0D18
:10138000C0905804D0905904E0905A04F0905B0447
:10139000DC01CB018C199D09AE09BF09813A9F4040
:1013A000A105B105A0F50E944E0DDC01CB018C1901
:1013B0009D09AE09BF09803A9F40A105B10589F595
:1013C00068E273E082E095E00E94461584E0E4E87C
:1013D000F1E0DE01119601900D928A95E1F7FE0190
:1013E000359683E0DF011D928A95E9F780E38C83CF
:1013F0008D8386E38E8347E0BE016F5F7F4F87EE6C
:1014000095E00E94840F87EE95E00E94E2030E941F
:101410004E0D609358047093590480935A0490932E
:101420005B0487EE95E00E940110882309F4B7C0A1
:101430008BEFC65EDE4F8883CA51D140AE01465E57
:101440005E4FBE016F5F7F4F87EE95E00E943D0CBF
:10145000882309F49EC061E088E00E9467126DE174
:1014600072E082E095E00E945A15BE016F5F7F4FE7
:1014700082E095E00E94461563E573E082E095E026
:101480000E945A150091F505002E000C110BC801A1
:101490000E94281589818B36C9F58A818E3609F01C
:1014A0005DC08B81803309F07AC0023E1F4F0CF083
:1014B00076C06AE573E082E095E00E94461562E737
:1014C00073E082E095E00E94461584E0E4E8F1E0F4
:1014D000DE01A450BF4F01900D928A95E1F7ECEF29
:1014E000F0E0EC0FFD1F34968AE1DF011D928A9532
:1014F000E9F7BE016F5F7F4FCE0184509F4F0E947E
:10150000610460E088E00E94671249C0843709F0F6
:1015100046C08A81833609F042C08B81803371F4E2
:101520008C818033E1F58D818033C9F58E818633DE
:10153000B1F5CE0101960E949E1531C0813379F537
:101540008C81803361F58D81803349F58E818633BE
:1015500031F5CE0101960E945C1521C08736F9F461
:101560008B818033E1F49C8180917004981317C0C3
:101570009D8180917104981312C09E8180917204A4
:1015800098130DC083E090E09093FD048093FC04D9
:1015900006C06DE772E082E095E00E944615C65EE7
:1015A000DE4F0FB6F894DEBF0FBECDBFDF91CF91F7
:1015B0001F910F91FF90EF90DF90CF900895CF9201
:1015C000DF92EF92FF920F931F93CF93DF93CDB7EC
:1015D000DEB7CC5FD1090FB6F894DEBF0FBECDBF2A
:1015E0000E944E0DC0905804D0905904E0905A04C7
:1015F000F0905B04DC01CB018C199D09AE09BF0999
:10160000813A9F40A105B105A0F50E944E0DDC0175
:10161000CB018C199D09AE09BF09803A9F40A105F5
:10162000B10589F560EA73E082E095E00E94461515
:1016300084E0EBE8F1E0DE01119601900D928A95CD
:10164000E1F7FE01359683E0DF011D928A95E9F707
:1016500080E38C838D8386E38E8347E0BE016F5FDA
:101660007F4F87EE95E00E94840F87EE95E00E9401
:10167000E2030E944E0D60935804709359048093C6
:101680005A0490935B0487EE95E00E940110882332
:1016900009F4BFC08BEFC450DF4F8883CC5FD040CC
:1016A000AE0144505F4FBE016F5F7F4F87EE95E004
:1016B0000E943D0C882309F4A6C061E088E00E94E6
:1016C00067126AEC73E082E095E00E945A15BE0151
:1016D0006F5F7F4F82E095E00E94461564ED72E0F7
:1016E00082E095E00E94461563E573E082E095E0B4
:1016F0000E945A150091F505002E000C110BC8012F
:101700000E94281589818B3609F078C08A81843738
:1017100009F074C08B818133F9F48F81803309F033
:101720006DC08885803309F069C08985863309F0EA
:1017300065C06FED73E082E095E00E94461560E9B8
:1017400071E080E090E00E94D212CE0101960E94EA
:10175000331681E090E01AC08233E9F48F81803340
:1017600009F04CC08885803309F048C089858633EC
:1017700009F044C06AE573E082E095E00E944615F6
:10178000CE0101960E94331682E090E09093FD0412
:101790008093FC0433C0833389F58F81803371F5E6
:1017A0008885803359F58985863341F5033E1F4F7F
:1017B0003CF480915604909157048B3091056CF065
:1017C00067EF73E082E095E00E944615CE01019636
:1017D0000E94331683E090E0D9CF0196909357048E
:1017E000809356046FE074E082E095E00E945A1501
:1017F00080915604909157040E94281560E088E07B
:101800000E94671206C06DE772E082E095E00E94D8
:101810004615C450DF4F0FB6F894DEBF0FBECDBFE4
:10182000DF91CF911F910F91FF90EF90DF90CF90BC
:10183000089508958BEF08959FB7F89480917304ED
:10184000882319F08150809373048091730481116F
:1018500003C08CB58F7B8CBD9FBF08958CB58F77EF
:101860008CBD08958CB580688CBD08956EBD000058
:101870000DB407FEFDCF8EB50895CF92DF92EF92A3
:10188000FF920F931F93CF93DF93EC017B018A01AB
:10189000E881F9810280F381E02D0995D82E882313
:1018A00031F1E114F104D9F001151105C1F0CFB601
:1018B000F8948A8D90E00397F801208130E0281792
:1018C00039071CF08A8D84508083F801408150E0F4
:1018D000BE01615E7F4FC7010E94931BCFBE8FB7D1
:1018E000F894FE01E65EFE4F10821A8E8FBF8D2D9A
:1018F000DF91CF911F910F91FF90EF90DF90CF90EC
:1019000008958091790490917A04009711F00C94D5
:10191000001408958091770490917804009711F055
:101920000C940014089580917504909176040097AA
:1019300011F00C9400140895CF93DF93EC018D897E
:101940009E89DC01ED91FC910680F781E02D0995DF
:1019500061E08F890E94961261E08F890E94671270
:1019600064E670E080E090E00E94D21281E0DF91B6
:10197000CF910895CF93DF93FC0126813781211504
:10198000310579F02130310541F02230310539F04F
:101990002330310531F49CE005C094E003C098E0A9
:1019A00001C090E08CB5837F982B9CBD848195818C
:1019B000019709F04AC08CB580628CBD8281938109
:1019C00001978430910528F4FC01EE56FE4FC0814A
:1019D00001C0C1E08C2F0E94A804DFB7F894809169
:1019E0007304811127C0ECE9F0E08491E0EBF0E0B2
:1019F0009491E82FF0E0EE0FFF1FE258FF4FA59102
:101A0000B491EC91E92321F461E08AE00E9467122D
:101A100061E08AE00E9496128CB580618CBD8CB525
:101A200080648CBD61E08DE00E94961261E08BE0E5
:101A30000E949612809173048F5F80937304DFBFBE
:101A40008C2FDF91CF910C94A8049CB59F7D9CBDF9
:101A5000B5CF3FB7F8948091800490918104A09114
:101A60008204B091830426B5A89B05C02F3F19F0CE
:101A70000196A11DB11D3FBFBA2FA92F982F88270E
:101A8000820F911DA11DB11DBC01CD0142E0660F69
:101A9000771F881F991F4A95D1F708952FB7F8949B
:101AA00060917C0470917D0480917E0490917F040C
:101AB0002FBF08951F920F920FB60F9211242F93EC
:101AC0003F938F939F93AF93BF9380917C049091AA
:101AD0007D04A0917E04B0917F0430917B0423E0CB
:101AE000230F2D3720F40196A11DB11D05C026E856
:101AF000230F0296A11DB11D20937B0480937C04CB
:101B000090937D04A0937E04B0937F048091800421
:101B100090918104A0918204B09183040196A11D4B
:101B2000B11D8093800490938104A0938204B093AC
:101B30008304BF91AF919F918F913F912F910F900F
:101B40000FBE0F901F9018951F920F920FB60F9215
:101B500011242F933F934F935F936F937F938F93B2
:101B60009F93AF93BF93EF93FF93E0910401F091A4
:101B700005010995FF91EF91BF91AF919F918F91D1
:101B80007F916F915F914F913F912F910F900FBE79
:101B90000F901F9018951F920F920FB60F9211245D
:101BA0002F933F934F935F936F937F938F939F9365
:101BB000AF93BF93EF93FF93E0910201F091030184
:101BC0000995FF91EF91BF91AF919F918F917F9177
:101BD0006F915F914F913F912F910F900FBE0F909A
:101BE0001F9018951F920F920FB60F9211242F93EA
:101BF0003F934F935F936F937F938F939F93AF9395
:101C0000BF93CF93DF93EF93FF9380910200909166
:101C10000300049709F0CCC02091170030E0F901CF
:101C2000E654FF4F8491F901EA55FF4FD491F90131
:101C3000EE56FF4FC491CC2379F081110E943E12E1
:101C4000EC2FF0E0EE0FFF1FE859FF4FA591B49184
:101C5000EC91ED2381E009F480E0817090911A000D
:101C6000892729F090911F009F5F90931F0090910A
:101C70001E00981761F090B1903510F09DE101C001
:101C80009BE020B1920F90B980931E0003C080B1F9
:101C90008C5E80B980B1803A08F4DEC082B193B125
:101CA0009695879593B982B980911F00853028F069
:101CB00082B193B1986093B982B980B1805A80B9EA
:101CC00010921F0081B1882309F466C084B18F5F30
:101CD00084B98C3008F4C0C082B193B1982F9F733F
:101CE000892F86958695887028E0280F281749F057
:101CF000E82FF0E0EA56FE4F3081931719F08F5F1E
:101D0000F5CF80E020E1829FC001112422B133B1E0
:101D100096E0369527959A95E1F7422F36952795C7
:101D200036952795287038E0320F321749F0E22FA8
:101D3000F0E0EA56FE4F5081451719F02F5FF5CFBE
:101D400020E0822B909169009923B9F0E09169001D
:101D500091E09E0F90936900F0E085A39091690057
:101D6000809168009817B0F011B881E080931C0052
:101D700080E090E00E94E8130DC08093680090918D
:101D80006800973008F45EC090916800943408F0C1
:101D900059C0DCCF14B860C082B193B188339B4086
:101DA00009F05AC081E081B914B81092690054C09A
:101DB0008091020090910300039709F04DC080913B
:101DC0006C0091E0980F90936C00811134C0E09109
:101DD0006A008091FB00E81770F080E090E00E94BC
:101DE000E8138091130090911400019690931400D1
:101DF0008093130020C0F0E0E359FF4F608170E052
:101E000080916B0091E0980F90936B0002C07595E4
:101E100067958A95E2F76170809118000E946712B9
:101E200080916B00863038F010926B0080916A00D0
:101E30008F5F80936A0080916C00883068F0109208
:101E40006C000AC011B880910F00909110000196AB
:101E50009093100080930F00FF91EF91DF91CF914D
:101E6000BF91AF919F918F917F916F915F914F91B2
:101E70003F912F910F900FBE0F901F901895FF92DA
:101E80000F931F93CF93DF93EC01162FF42E0FB710
:101E9000F89460E08F890E9467128D899E89612F76
:101EA0006068DC01ED91FC910190F081E02D0995D5
:101EB000182F8D899E89DC01ED91FC910190F081B4
:101EC000E02D6F2D099561E08F890E9467120FBF89
:101ED000812FDF91CF911F910F91FF900895CF93A4
:101EE000DF93FC01228133812130310549F0EC017F
:101EF00040E061E00E943F0F81E090E09B838A8395
:101F000081E0DF91CF910895CF92DF92EF92FF921F
:101F10000F931F93CF93DF934C3F08F066C0142FAD
:101F2000072FF62EEC01E881F9810484F585E02D78
:101F30000995CE010E945E1340E06DE0CE010E9443
:101F40003F0F4A8560E0CE010E943F0F4B8560E065
:101F5000CE010E943F0F4C8560E0CE010E943F0FF2
:101F60004D8560E0CE010E943F0FEFB6F89460E02F
:101F70008F890E9467128D899E89DC01ED91FC9109
:101F80000190F081E02D60E80995CF2CD02E012F33
:101F9000015068F08D899E89F60161916F01DC0125
:101FA000ED91FC910190F081E02D0995F1CF61E078
:101FB0008F890E946712EFBE44E0410F62E2CE01BA
:101FC0000E943F0F8A819B81039789F043E061E083
:101FD000CE010E943F0F40E460E4CE010E943F0F1B
:101FE00083E090E09B838A8302C080E001C081E0AF
:101FF000DF91CF911F910F91FF90EF90DF90CF90E5
:102000000895CF93DF93FC01228133812330310582
:10201000B9F0EC0182819381049771F045E061E0B1
:10202000CF010E943F0F40E060E4CE010E943F0FCD
:1020300084E090E09B838A83C65EDE4F888101C086
:1020400080E0DF91CF9108950F931F93CF93DF939B
:10205000EC01162F0FB7F89460E08F890E94671289
:102060008D899E89612F6F77DC01ED91FC91019044
:10207000F081E02D09958D899E89DC01ED91FC911F
:102080000190F081E02D60E00995182F61E08F89C3
:102090000E9467120FBF812FDF91CF911F910F9187
:1020A0000895EF92FF920F931F93CF93DF9300D089
:1020B0001F92CDB7DEB78C010E949C0CE82E8111D7
:1020C00002C0E12C90C0F801808D823029F083306D
:1020D000C1F7FF24F39401C0F12C40E861E0C8018E
:1020E0000E943F0F6AE070E080E090E00E94D21210
:1020F00061E0C8010E942410803819F760E0F801FF
:10210000808D0E949612F801818D8F3F49F4809155
:1021100074048430B0F691E0980F90937404818F2A
:10212000F801818DE82FF0E0EE0FFF1FEB58FB4F19
:1021300011830083811103C063E97CE00AC0813010
:1021400019F46AE87CE005C0823009F0BACF61E892
:102150007CE08F2D0E94721340E06EE0C8010E9467
:102160003F0F40E06FE0C8010E943F0FC8010E948E
:102170005E1343E050E062E770E0CE0101960E94FA
:10218000201949816DE1C8010E943F0F4A816EE12B
:10219000C8010E943F0F4B8166E2C8010E943F0FB9
:1021A00040E060E2C8010E943F0F48E061E2C801E0
:1021B0000E943F0F4CE666E0C8010E943F0F40E8D6
:1021C00067E0C8010E943F0F40E068E0C8010E943C
:1021D0003F0F44E06DE4C8010E943F0F48E869E00A
:1021E000C8010E943F0F8E2D0F900F900F90DF912E
:1021F000CF911F910F91FF90EF900895089580E087
:1022000090E00895FC01538D448D252F30E0842FFC
:1022100090E0821B930B541710F0CF96089501970E
:102220000895FC01918D828D981761F0828DDF01F8
:10223000A80FB11D5D968C91928D9F5F9F73928FB9
:1022400090E008958FEF9FEF0895FC01918D828DAE
:10225000981731F0828DE80FF11D858D90E008957B
:102260008FEF9FEF0895FC01918D228D892F90E0D3
:10227000805C9F4F821B91098F739927089582E09C
:1022800095E00E94331121E0892B09F420E0822F90
:102290000895FC01848DDF01A80FB11DA35ABF4F23
:1022A0002C91848D90E001968F739927848FA68955
:1022B000B7892C93A089B1898C91837080648C93A9
:1022C000938D848D981306C00288F389E02D808158
:1022D0008F7D80830895EF92FF920F931F93CF938A
:1022E000DF93EC0181E0888F9B8D8C8D981305C066
:1022F000E889F989808185FD26C0F62E0B8D10E0D6
:102300000F5F1F4F0F731127E02E8C8DE8120CC04A
:102310000FB607FCFACFE889F989808185FFF5CFF0
:10232000CE010E944911F1CF8B8DFE01E80FF11D06
:10233000E35AFF4FF0829FB7F8940B8FEA89FB892D
:10234000808180620AC09FB7F894EE89FF8960831C
:10235000E889F98980818370806480839FBF81E0F0
:1023600090E0DF91CF911F910F91FF90EF90089532
:10237000CF93DF93EC01888D8823C9F0EA89FB892C
:10238000808185FD05C0A889B9898C9186FD0FC023
:102390000FB607FCF5CF808185FFF2CFA889B989F8
:1023A0008C9185FFEDCFCE010E944911E7CFDF91DF
:1023B000CF91089580E090E0892B29F00E943F1191
:1023C00081110C94000008950E948E1B1F920F92A1
:1023D0000FB60F9211242F933F934F935F936F93F8
:1023E0007F938F939F93AF93BF93EF93FF9382E07D
:1023F00095E00E944911FF91EF91BF91AF919F919C
:102400008F917F916F915F914F913F912F910F909D
:102410000FBE0F901F9018951F920F920FB60F923C
:1024200011242F938F939F93EF93FF93E0911205C5
:10243000F09113058081E0911805F091190582FD56
:1024400012C0908180911B058F5F8F7320911C05B6
:10245000821751F0E0911B05F0E0EE5FFA4F958F87
:1024600080931B0501C08081FF91EF919F918F9117
:102470002F910F900FBE0F901F901895833081F011
:1024800028F4813099F08230A1F008958730A9F0C6
:102490008830B9F08430D1F4809180008F7D03C002
:1024A000809180008F7780938000089584B58F7726
:1024B00002C084B58F7D84BD08958091B0008F7770
:1024C00003C08091B0008F7D8093B00008951F936A
:1024D000CF93DF93282F30E0F901E654FF4F84912A
:1024E000F901EA55FF4FD491F901EE56FF4FC4911F
:1024F000CC23C1F0162F81110E943E12EC2FF0E088
:10250000EE0FFF1FE857FF4FA591B4919FB7F894C6
:10251000111104C08C91D095D82302C0EC91DE2B10
:10252000DC939FBFDF91CF911F910895CF93DF93ED
:1025300090E0FC01EA55FF4F2491FC01EE56FF4F5D
:102540008491882361F190E0880F991FFC01E25883
:10255000FF4FC591D491FC01E857FF4FA591B4916D
:10256000611109C09FB7F8948881209582238883E0
:10257000EC912E230BC0623061F49FB7F8948881F0
:10258000322F309583238883EC912E2B2C939FBF81
:1025900006C08FB7F894E8812E2B28838FBFDF9178
:1025A000CF9108958F929F92AF92BF92CF92DF9278
:1025B000EF92FF926B017C010E94290D4B015C019F
:1025C000C114D104E104F104F1F00E94290DDC01F1
:1025D000CB0188199909AA09BB09883E9340A10536
:1025E000B10570F321E0C21AD108E108F10888EEC4
:1025F000880E83E0981EA11CB11CC114D104E10413
:10260000F10419F7DDCFFF90EF90DF90CF90BF90EE
:10261000AF909F908F900895CF92DF92EF92FF92AC
:102620000F931F93CF93DF936C017A018B01C0E06E
:10263000D0E0CE15DF0581F0D8016D918D01D60176
:10264000ED91FC910190F081E02DC6010995892B57
:1026500011F02196EECF7E01C701DF91CF911F913E
:102660000F91FF90EF90DF90CF900895E2E0F5E0BA
:10267000A089B18982E08C93A485B5851C92A6853A
:10268000B7858FEC8C93108EA489B58986E08C93E6
:10269000A289B3898C9180618C93A289B3898C9132
:1026A00088608C93A289B3898C9180688C9302880E
:1026B000F389E02D80818F7D80830895CF93DF9310
:1026C000FC01228133812230310549F0EC0141E0E7
:1026D00061E00E943F0F82E090E09B838A83DF915C
:1026E000CF9108958230B8F4E82FF0E0EE0FFF1F8D
:1026F000EE5FFE4F71836083813039F08091690015
:10270000836080936900E89A0895809169008C60E5
:1027100080936900E99A08954F925F926F927F9239
:102720008F929F92AF92BF92CF92DF92EF92FF92E1
:102730000F931F93CF93DF93EA019A01220F331F68
:10274000220F331FD901A253BF4FFD0125913591AF
:10275000459154918E010F5F1F4FF801EE0FFF1F3F
:10276000EE0FFF1FE253FF4F85909590A590B49018
:10277000FD0145905590659074900E94A41A6B01DC
:102780007C01A3019201C501B4010E94A41A20E0BA
:1027900030E040E05FE30E94C4199B01AC01C70137
:1027A000B6010E94831B18160CF08E01C801DF9140
:1027B000CF911F910F91FF90EF90DF90CF90BF903E
:1027C000AF909F908F907F906F905F904F90089503
:1027D000CF93DF93FC01228133812230310569F0F0
:1027E000EC01638D818D0E94671260E0888D0E94EC
:1027F000671282E090E09B838A83DF91CF910895F6
:10280000DF92EF92FF920F931F93CF93DF93EC0130
:1028100062E10E9424102A813B812430310521F499
:10282000982F907A09F069C02A813B8124303105C4
:1028300009F074C086FF72C063E1CE010E942410CB
:10284000082F60E1CE010E942410482F6DE0CE01D8
:102850000E943F0FDFB6F89460E08F890E946712F4
:102860008D899E89DC01ED91FC910190F081E02D34
:1028700060E009957E01BBE1EB0EF11C102F1123E6
:1028800079F08D899E89DC01ED91FC910190F081B8
:10289000E02D60E00995F70181937F011150EFCFA2
:1028A00061E08F890E946712DFBE0A8F4FEF62E1FD
:1028B000CE010E943F0F6AE1CE010E942410895888
:1028C0008E878A8DFE01E65EFE4F843090F08B8D00
:1028D0008E838C8D8F838D8D88878E8D89878D815A
:1028E000811129C09E818C81981729F18E818F3F9B
:1028F00011F18081882331F026C08F859889019657
:10290000988B8F874FEF62E1CE01DF91CF911F91BE
:102910000F91FF90EF90DF900C943F0F2A813B8145
:102920002330310579F783FFEDCF8B899C890196A0
:102930009C8B8B8B08C089899A8901969A8B898B8D
:1029400081E08083D6CFCE010E945E13DBCF61157C
:10295000710579F0FB0101900020E9F73197AF0193
:10296000461B570BDC01ED91FC910280F381E02DB9
:10297000099480E090E008958F929F92AF92BF9269
:10298000EF92FF920F931F93CF93DF93CDB7DEB7F4
:10299000A1970FB6F894DEBF0FBECDBF7C01FA0140
:1029A000CB0119A2223008F42AE08E010F5D1F4FDF
:1029B000822E912CA12CB12CBF01A50194010E9463
:1029C000821AF901CA01015011096A3014F4605DDC
:1029D00001C0695CD8016C93232B242B252B61F754
:1029E000B801C7010E94A714A1960FB6F894DEBFE4
:1029F0000FBECDBFDF91CF911F910F91FF90EF9050
:102A0000BF90AF909F908F900895CF92DF92EF92FA
:102A1000FF92CF93DF936B017C016DE282E095E042
:102A20000E946B11EC0144275527BA014C195D092E
:102A30006E097F092AE082E095E00E94BC148C0FA9
:102A40009D1FDF91CF91FF90EF90DF90CF90089581
:102A5000CF93DF93AC01990F660B770B77FF05C01F
:102A6000CB01BA010E94051505C02AE082E095E07D
:102A70000E94BC14EC016BE274E082E095E00E94DD
:102A8000A7148C0F9D1FDF91CF9108950F931F9373
:102A9000CF93DF93EC010E94A7148C016BE274E0EA
:102AA000CE010E94A714800F911FDF91CF911F913B
:102AB0000F9108950C94A714CF93DF93CDB7DEB791
:102AC00061970FB6F894DEBF0FBECDBFFC018081C9
:102AD000898381818A8382818B83809170048C8336
:102AE000809171048D83809172048E8380E38F8343
:102AF000888786E38987DF011996CE010A96AF01A0
:102B0000405F5F4F2D91FC012193CF01A417B507C2
:102B1000C9F741E1BE016F5F7F4F87EE95E00E94EC
:102B2000840F87EE95E00E94E20361960FB6F89459
:102B3000DEBF0FBECDBFDF91CF9108958F929F92E0
:102B4000AF92BF92CF92DF92EF92FF920F931F93BB
:102B5000CF93DF93CDB7DEB761970FB6F894DEBFA2
:102B60000FBECDBF8C0180E090E031E3B32E4DE08D
:102B7000A42E7E0125E0E20EF11C56E3952E68019D
:102B8000A0E1CA0ED11CFC01EE0FFF1FEE0FFF1FCC
:102B9000EC57FB4F8080B0E38B124DC0B082D80160
:102BA00016968C911697818317968C91179782832E
:102BB00018968C91838368EF71E082E095E00E9423
:102BC00046158091000190910101019690930101B9
:102BD0008093000184E0E6E0F1E0DE0111960190CF
:102BE0000D928A95E1F7F7012A2D11922A95E9F7BE
:102BF000809170048C83809171048D838091720424
:102C00008E838F8288869986F8013996DE011A961E
:102C100081918D93EC15FD05D9F741E1BE016F5F00
:102C20007F4F87EE95E00E94840F87EE95E00E942B
:102C3000E20385E690E001968E3191050CF4A3CF76
:102C400061960FB6F894DEBF0FBECDBFDF91CF9176
:102C50001F910F91FF90EF90DF90CF90BF90AF90BA
:102C60009F908F900895CF93DF93CDB7DEB7619794
:102C70000FB6F894DEBF0FBECDBFFC016381A0E7A5
:102C8000B4E06C93548111965C9311972581129650
:102C90002C934185842F90E090936F0480936E0471
:102CA000828590E0019690936D0480936C04738507
:102CB0003485E32FF0E0F0936B04E0936A0494E032
:102CC000E7E1F1E0DE01119601900D929A95E1F7AE
:102CD000FE0135969DE0DF011D929A95E9F76C8320
:102CE0005D832E8390E39F83988726E329874A8715
:102CF0008B877C873D879E879F87288B41E1BE011C
:102D00006F5F7F4F87EE95E00E94840F87EE95E01E
:102D10000E94E203BE016F5F7F4F82E095E00E9458
:102D2000461565E172E082E095E00E9446156196E5
:102D30000FB6F894DEBF0FBECDBFDF91CF910895DF
:102D4000789484B5826084BD84B5816084BD85B586
:102D5000826085BD85B5816085BD80916E00816092
:102D600080936E0010928100809181008260809338
:102D7000810080918100816080938100809180003A
:102D80008160809380008091B10084608093B10065
:102D90008091B00081608093B00080917A0084605F
:102DA00080937A0080917A00826080937A0080918B
:102DB0007A00816080937A0080917A0080688093A5
:102DC0007A001092C1001092E3051092E40510926F
:102DD000E5051092E6051092A1051092A205109249
:102DE000A3051092A4050E944E0D6B017C014B01BE
:102DF0005C0128EB820E2BE0921EA11CB11C0E94EC
:102E00004E0D6C157D058E059F0528F086169706DC
:102E1000A806B906A0F782E095E09093E2058093BA
:102E2000E1050E9436130E944E0D6093A105709338
:102E3000A2058093A3059093A4056CE174E08091B2
:102E4000E1059091E2050E945A150E944E0D6B011A
:102E50007C014B015C013AE0830E911CA11CB11C6A
:102E60000E944E0D6C157D058E059F0528F0861677
:102E70009706A806B906A0F781E08093B5050E94E1
:102E8000361387EE95E00E945110811106C06EE264
:102E900074E082E095E00E944615E4E8F4E080E307
:102EA0008083818382838383349644E0EC3FF407FC
:102EB000B9F784EF882E99249394A12CB12C0E9409
:102EC0004E0D672B682B692B41F40E944E0D62302A
:102ED00071058105910508F409C10E944E0DC0904D
:102EE000FE04D090FF04E0900005F09001056C1501
:102EF0007D058E059F0540F46093FE047093FF04EA
:102F00008093000590930105C090FE04D090FF04CB
:102F1000E0900005F09001059B01AC012C193D09E2
:102F20004E095F0969017A013AEFC316D104E10441
:102F3000F10408F4DBC06093FE047093FF048093F7
:102F40000005909301058092AD059092AE05A09288
:102F5000AF05B092B0051092B1051092B205109273
:102F6000B3051092B4058091A5059091A605A09196
:102F7000A705B091A8058093A9059093AA05A093F1
:102F8000AB05B093AC050E944E0D6093A505709300
:102F9000A6058093A7059093A8050E944E0D609307
:102FA000A1057093A2058093A3059093A4050E94A8
:102FB0004E0D6B017C016AE374E08091E105909114
:102FC000E2050E945A152AE041E050E060E070E01E
:102FD0008091E1059091E2050E94BC1461E474E0E7
:102FE0008091E1059091E2050E945A152AE0B7010F
:102FF000A6018091E1059091E2050E94BC1463E472
:1030000074E08091E1059091E2050E945A1580914B
:10301000A5059091A605A091A705B091A805B701B7
:10302000A601481B590B6A0B7B0B2AE08091E10536
:103030009091E2050E94BC1463E474E08091E10584
:103040009091E2050E945A154091A5055091A60560
:103050006091A7057091A8058091A9059091AA0596
:10306000A091AB05B091AC05481B590B6A0B7B0BCB
:103070002AE08091E1059091E2050E94BC1465E48C
:1030800074E08091E1059091E2050E945A150E943A
:103090004E0DAB01BC012AE08091E1059091E20563
:1030A0000E94BC1467E474E08091E1059091E20510
:1030B0000E9446150E944E0D6B017C012B013C01C4
:1030C00045E0440E511C611C711C0E944E0D6C1594
:1030D0007D058E059F0598F50E944E0D6093A50510
:1030E0007093A6058093A7059093A8058091FC0492
:1030F0009091FD04009719F40E94DF0A1DC08130F1
:10310000910549F487EE95E00E9401108823A1F013
:103110000E94B70411C08230910519F40E94AD09D4
:103120000BC0039719F40E94830506C06EE474E097
:1031300082E095E00E9446150E94DA11C0CE461644
:1031400057066806790608F6C7CFE2E0F5E0138275
:10315000128288EE93E0A0E0B0E084839583A6839A
:10316000B7838AEA91E09183808385EC90E095872C
:10317000848784EC90E09787868780EC90E0918B41
:10318000808B81EC90E0938B828B82EC90E0958B2E
:10319000848B86EC90E0978B868B118E128E138E2B
:1031A000148EEFE9F5E016821782108611861286DA
:1031B00013861486158616861786108A118A128A37
:1031C000138A148A158AA6E0B7E013961C921E9201
:1031D000129715961C921E92149717961C921E9287
:1031E00016978CEB91E011969C938E9340E050E003
:1031F00060EA70E44093020750930307609304076A
:1032000070930507E7EEF5E0138212828FEF848357
:103210008287838714861586108A1786128A118AF8
:10322000148A138AB68BA58B9AE0978B20ED31E038
:10323000318320831092010792E0908F818F08954F
:10324000FB01DC0102C005900D9241505040D8F7BF
:103250000895BB274A3031F4992322F4BDE29095BA
:1032600081959F4F0C943519BB27FB015527AA2741
:10327000880F991FAA1FA41710F0A41B8395505103
:10328000B9F7A05DAA3308F0A95DA193009779F77B
:10329000B111B1931192CB010C944E19DC01FC01D8
:1032A000672F71917723E1F7329704C07C916D937A
:1032B00070836291AE17BF07C8F308950E94A019EA
:1032C00008F481E00895E89409C097FB3EF49095D6
:1032D0008095709561957F4F8F4F9F4F9923A9F0EF
:1032E000F92F96E9BB279395F6958795779567957E
:1032F000B795F111F8CFFAF4BB0F11F460FF1BC0C2
:103300006F5F7F4F8F4F9F4F16C0882311F096E954
:1033100011C0772321F09EE8872F762F05C0662302
:1033200071F096E8862F70E060E02AF09A95660FBB
:10333000771F881FDAF7880F9695879597F9089574
:10334000990F0008550FAA0BE0E8FEEF16161706B6
:10335000E807F907C0F012161306E407F50798F01E
:10336000621B730B840B950B39F40A2661F0232B37
:10337000242B252B21F408950A2609F4A140A695B3
:103380008FEF811D811D08950E94D7190C94481A52
:103390000E943A1A38F00E94411A20F0952311F049
:1033A0000C94311A0C94371A11240C947C1A0E9434
:1033B000591A70F3959FC1F3950F50E0551F629F06
:1033C000F001729FBB27F00DB11D639FAA27F00D7E
:1033D000B11DAA1F649F6627B00DA11D661F829FA5
:1033E0002227B00DA11D621F739FB00DA11D621F8A
:1033F000839FA00D611D221F749F3327A00D611DA7
:10340000231F849F600D211D822F762F6A2F112488
:103410009F5750409AF0F1F088234AF0EE0FFF1FBB
:10342000BB1F661F771F881F91505040A9F79E3F12
:10343000510580F00C94311A0C947C1A5F3FE4F330
:10344000983ED4F3869577956795B795F795E79568
:103450009F5FC1F7FE2B880F911D9695879597F971
:10346000089597F99F6780E870E060E008959FEF06
:1034700080EC089500240A9416161706180609060B
:10348000089500240A9412161306140605060895DA
:10349000092E0394000C11F4882352F0BB0F40F462
:1034A000BF2B11F460FF04C06F5F7F4F8F4F9F4FA2
:1034B000089557FD9058440F551F59F05F3F71F024
:1034C0004795880F97FB991F61F09F3F79F087958B
:1034D0000895121613061406551FF2CF4695F1DF14
:1034E00008C0161617061806991FF1CF86957105A4
:1034F000610508940895E894BB2766277727CB01D8
:1035000097F90895A1E21A2EAA1BBB1BFD010DC05D
:10351000AA1FBB1FEE1FFF1FA217B307E407F50783
:1035200020F0A21BB30BE40BF50B661F771F881F5F
:10353000991F1A9469F760957095809590959B01F5
:10354000AC01BD01CF0108955058BB27AA270E94A6
:10355000BC1A0C94481A0E943A1A38F00E94411A78
:1035600020F039F49F3F19F426F40C94371A0EF426
:10357000E095E7FB0C94311AE92F0E94591A58F391
:10358000BA17620773078407950720F079F4A6F548
:103590000C947B1A0EF4E0950B2EBA2FA02D0B0184
:1035A000B90190010C01CA01A0011124FF27591B88
:1035B00099F0593F50F4503E68F11A16F040A22F8E
:1035C000232F342F4427585FF3CF469537952795FF
:1035D000A795F0405395C9F77EF41F16BA0B620BFE
:1035E000730B840BBAF09150A1F0FF0FBB1F661F45
:1035F000771F881FC2F70EC0BA0F621F731F841F88
:1036000048F4879577956795B795F7959E3F08F0AD
:10361000B0CF9395880F08F09927EE0F979587956F
:1036200008950E94251B0C94481A0E94411A58F0D4
:103630000E943A1A40F029F45F3F29F00C94311AA5
:1036400051110C947C1A0C94371A0E94591A68F381
:103650009923B1F3552391F3951B550BBB27AA274B
:1036600062177307840738F09F5F5F4F220F331F85
:10367000441FAA1FA9F335D00E2E3AF0E0E832D04D
:1036800091505040E695001CCAF72BD0FE2F29D050
:10369000660F771F881FBB1F261737074807AB0722
:1036A000B0E809F0BB0B802DBF01FF2793585F4F97
:1036B0003AF09E3F510578F00C94311A0C947C1A24
:1036C0005F3FE4F3983ED4F3869577956795B79579
:1036D000F7959F5FC9F7880F911D9695879597F984
:1036E0000895E1E0660F771F881FBB1F62177307FD
:1036F0008407BA0720F0621B730B840BBA0BEE1F12
:1037000088F7E09508950E94A01908F48FEF0895B6
:10371000EE0FFF1F0590F491E02D099481E090E0F9
:10372000F8940C949C1BFB01DC0102C001900D92EB
:0C37300041505040D8F70895F894FFCFA6
:10373C000100190C190C746331000000000000002A
:10374C000000000000000074633000000000000066
:10375C0000000000000000006B743100000000004D
:10376C00000000000000000000000000000000004D
:10377C000000000000006B6730000000006B673138
:10378C00000000000000000000000000646E31002A
:10379C000000000000006B7433000000000000000B
:1037AC00000000000000000000000000000000000D
:1037BC00000000006B7432000000006B6E300000E3
:1037CC000000050004040D0E131516191A1C2325F0
:1037DC0026292A2C3234000000006B110C13021124
:1037EC00B81133111111251100000000360C320CE8
:1037FC002E0CBA0C1C0CBA03B603B203000000006A
:10380C00511001103D0C840F1A0CEA03E203FB0368
:10381C002C04DC03D903D603D303CC03DF03C90385
:10382C00C603C303C0036F0F6C7575206964206EEB
:10383C006F646520636F6E0053656E742061207237
:10384C0065706C790053656E74206B740074696ECE
:10385C002068696575206775692064656E3A20007B
:10386C0052535349203A20006E6F646520636F6E8B
:10387C0020636F20746865206B6574206E6F6920FF
:10388C00766F692074696E2068696575206D756343
:10389C002063616F0074687563206869656E206BC6
:1038AC006574206E6F6920627563203200726563E7
:1038BC0076206661696C65640067756920647520A3
:1038CC006C6965752079657520636175206E6F6410
:1038DC006520636F6E20677569206475206C69655F
:1038EC007500677569206475206C69657520646F57
:1038FC002064756F630074656D70657261747572A8
:10390C0065313A20200020205E4300646174613AE6
:10391C002000736F206C616E206775693A2000740B
:10392C00687563206869656E206B6574206E6F69BD
:10393C00206B6E3020006475206C69657520747284
:10394C007579656E2064693A2000736F206C616E26
:10395C00206E68616E3A2000677569206475206C72
:10396C006965752079657520636175206E6F646576
:10397C0020636F6E206B6574206E6F69206D7563AC
:10398C00203200525353493A200074687563206802
:10399C0069656E206B6574206E6F69206D75632090
:1039AC0032006E6F646520636F6E20636F207468E5
:1039BC0065206B6574206E6F6920766F6920746961
:1039CC006E2068696575206D756320746861700080
:1039DC006775692074696E206869657520796575ED
:1039EC0020636175206B6574206E6F6920766F693A
:1039FC00206E6F6465206368610074696E2068696D
:103A0C006575206E68616E2064756F633A20007472
:103A1C00687563206869656E206B6574206E6F69CC
:103A2C00206D756320310074687563206869656E5C
:103A3C00206B6574206E6F69206D75632033007385
:103A4C006F206C616E2064656D3A2000564D4450B9
:103A5C00565F317C315F564D4450560D0A00696EED
:103A6C006974206661696C656400564D4450455F0D
:103A7C00003A323A007C005F564D44504500746861
:063A8C006520656E640078
:107E0000112484B714BE81FFF0D085E080938100F7
:107E100082E08093C00088E18093C10086E0809377
:107E2000C20080E18093C4008EE0C9D0259A86E02C
:107E300020E33CEF91E0309385002093840096BBD3
:107E4000B09BFECF1D9AA8958150A9F7CC24DD24C4
:107E500088248394B5E0AB2EA1E19A2EF3E0BF2EE7
:107E6000A2D0813461F49FD0082FAFD0023811F036
:107E7000013811F484E001C083E08DD089C08234E0
:107E800011F484E103C0853419F485E0A6D080C0E4
:107E9000853579F488D0E82EFF2485D0082F10E0AE
:107EA000102F00270E291F29000F111F8ED06801E7
:107EB0006FC0863521F484E090D080E0DECF843638
:107EC00009F040C070D06FD0082F6DD080E0C81688
:107ED00080E7D80618F4F601B7BEE895C0E0D1E017
:107EE00062D089930C17E1F7F0E0CF16F0E7DF06D8
:107EF00018F0F601B7BEE89568D007B600FCFDCFD4
:107F0000A601A0E0B1E02C9130E011968C91119780
:107F100090E0982F8827822B932B1296FA010C0160
:107F200087BEE89511244E5F5F4FF1E0A038BF0790
:107F300051F7F601A7BEE89507B600FCFDCF97BE46
:107F4000E89526C08437B1F42ED02DD0F82E2BD052
:107F50003CD0F601EF2C8F010F5F1F4F84911BD097
:107F6000EA94F801C1F70894C11CD11CFA94CF0C13
:107F7000D11C0EC0853739F428D08EE10CD085E9AC
:107F80000AD08FE07ACF813511F488E018D01DD067
:107F900080E101D065CF982F8091C00085FFFCCF94
:107FA0009093C60008958091C00087FFFCCF809118
:107FB000C00084FD01C0A8958091C6000895E0E648
:107FC000F0E098E1908380830895EDDF803219F02E
:107FD00088E0F5DFFFCF84E1DECF1F93182FE3DFCA
:107FE0001150E9F7F2DF1F91089580E0E8DFEE27F6
:047FF000FF270994CA
:027FFE00040479
:0400000300007E007B
:00000001FF