:100000000C9488030C94250D0C94FE0C0C94B003F6
:100010000C94B0030C94B0030C94B0030C94B00394
:100020000C94B0030C94B0030C94B0030C944C0DDE
:100030000C94B0030C94B0030C94B0030C94B00374
:100040000C94B40C0C94B0030C9466110C944011F5
:100050000C94B0030C94B0030C94B0030C94B00354
:100060000C94B0030C94B0030000000023002600A1
:10007000290072740092740048940078C400000053
:100080000000240027002A000000000025002800AE
:100090002B00040404040404040402020202020209
:1000A000030303030303010204081020408001023C
:1000B00004081020010204081020000000080002BB
:1000C0000100000304070000000000000000000021
:1000D000C842AEC7C8425C8FC9420A57CA42B81E5E
:1000E000CB4266E6CB4214AECC42C375CD42713DE5
:1000F000CE421F05CF42CDCCCF427B94D042295C6B
:10010000D142D723D24285EBD24233B3D342E17AF4
:10011000D4428F42D5423D0AD642CDCCD6427B94C2
:10012000D742295CD842D723D94285EBD94233B391
:10013000DA42C375DB42713DDC421F05DD42CDCCA6
:10014000DD427B94DE420A57DF42B81EE04266E69B
:10015000E042F6A8E142A470E2425238E3420000D5
:10016000E4428FC2E4423D8AE542CD4CE6427B1434
:10017000E74229DCE742B89EE8426666E942F62893
:10018000EA42A4F0EA4252B8EB42E17AEC428F42F2
:10019000ED421F05EE42CDCCEE425C8FEF420A5796
:1001A000F0429A19F14248E1F142D7A3F242856B3D
:1001B000F342142EF442A4F0F44252B8F542E17A2C
:1001C000F6428F42F7421F05F842AEC7F8425C8FF5
:1001D000F942EC51FA427B14FB4229DCFB42B89E07
:1001E000FC424861FD42F628FE4285EBFE4214AE19
:1001F000FF4252380043299C004371FD0043B85E22
:10020000014300C00143482102431F85024366E6C3
:100210000243AE470343F6A803433D0A0443856BFC
:100220000443CDCC0443142E0543EC91054333F332
:1002300005437B540643C3B506430A170743527868
:1002400007439AD90743E13A0843299C084371FDC3
:100250000843B85E094300C0094348210A438F821E
:100260000A4348E10A438F420B43D7A30B431F05C0
:100270000C4366660C43AEC70C43F6280D433D8A1B
:100280000D43F6E80D433D4A0E4385AB0E43CD0CBE
:100290000F43146E0F43CDCC0F43142E10435C8FCD
:1002A0001043A4F010435C4F1143A4B01143EC1170
:1002B0001243A4701243ECD1124333331343EC9135
:1002C000134333F313437B54144333B314437B146A
:1002D0001543C37515437BD41543C33516437B942F
:1002E0001643C3F516437B541743C3B517437B141A
:1002F0001843C37518437BD41843C33519437B9403
:100300001943C3F519437B541A43C3B51A437B14ED
:100310001B43C3751B437BD41B4333331C437B9468
:100320001C4333F31C437B541D4333B31D43EC1177
:100330001E4333731E43ECD11E43A4301F435C8F16
:100340001F43A4F01F435C4F204314AE2043CD0C49
:100350002143146E2143CDCC2143852B22433D8A7A
:100360002243F6E822433D4A2343F6A82343AE073F
:100370002443666624431FC52443D72325438F8225
:100380002543D7E325438F42264348A12643000057
:100390002743B85E274371BD2743291C2843E17AD0
:1003A00028439AD92843523829430A972943C3F549
:1003B00029437B542A4333B32A43EC112B43146E55
:1003C0002B43CDCC2B43852B2C433D8A2C43F6E885
:1003D0002C43AE472D4366A62D431F052E4348618F
:1003E0002E4300C02E43B81E2F43717D2F4329DCBE
:1003F0002F43523830430A973043C3F530437B5480
:100400003143A4B031435C0F3243146E32433DCAD2
:100410003243F6283343AE873343D7E333438F4227
:10042000344348A1344371FD3443295C354352B809
:1004300035430A173643C3753643ECD13643A430EF
:100440003743CD8C374385EB3743AE47384366A6F9
:1004500038438F0239434861394371BD3943291C00
:100460003A4352783A430AD73A4333333B435C8F9B
:100470003B4314EE3B433D4A3C43F6A83C431F0537
:100480003D4348613D4300C03D43291C3E435278F3
:100490003E430AD73E4333333F435C8F3F4385EBB4
:1004A0003F433D4A404366A640438F024143B85E06
:1004B000414371BD41439A194243C3754243ECD154
:1004C0004243142E4343CD8C4343F6E843431F4538
:1004D000444348A1444371FD44439A594543C3B53D
:1004E0004543EC114643146E46433DCA46436626D7
:1004F00047438F824743B8DE4743E13A48430A9770
:10050000484333F348435C4F494385AB4943AE0707
:100510004A43D7634A4300C04A43291C4B4352789D
:100520004B437BD44B43A4304C43CD8C4C4366E6C9
:100530004C438F424D43B89E4D43E1FA4D430A5719
:100540004E4333B34E43CD0C4F43F6684F431FC564
:100550004F4348215043E17A50430AD75043333345
:1005600051435C8F5143F6E851431F45524348A124
:100570005243E1FA52430A57534333B35343CD0C2A
:100580005443F66854438FC25443B81E5543E17A2E
:1005900055437BD45543A43056433D8A564366E6C3
:1005A000564300405743299C5743C3F55743EC51EA
:1005B000584385AB5843AE0759434861594371BD11
:1005C00059430A175A43A4705A43CDCC5A4366265E
:1005D0005B438F825B4329DC5B43C3355C43EC9117
:1005E0005C4385EB5C431F455D4348A15D43E1FAF5
:1005F0005D437B545E4314AE5E433D0A5F43D76365
:100600005F4371BD5F430A17604333736043CDCCD2
:10061000604366266143008061439AD96143C335D4
:1006200062435C8F6243F6E862438F426343299CD6
:100630006343C3F563435C4F6443F6A864431F05FB
:100640006543B85E654352B86543EC116643856BFC
:1006500066431FC56643B81E674352786743ECD1B3
:100660006743852B68431F856843B8DE6843C335FD
:1006700069435C8F6943F6E869438F426A43299C6A
:100680006A43C3F56A435C4F6B43F6A86B430000B3
:100690006C439A596C4333B36C43CD0C6D4366661F
:1006A0006D4371BD6D430A176E43A4706E433DCA1E
:1006B0006E4348216F43E17A6F437BD46F43142E1E
:1006C00070431F857043B8DE7043523871435C8FAE
:1006D0007143F6E871438F4272439A99724333F340
:1006E00072433D4A7343D7A3734371FD73437B54F5
:1006F000744314AE74431F057543B85E7543C3B5A8
:1007000075435C0F76436666764300C07643B51644
:1007100011241FBECFEFD8E0DEBFCDBF13E0A0E0B5
:10072000B1E0E2EFF2E302C005900D92A432B1070E
:10073000D9F726E0A4E2B3E001C01D92AC3EB207B7
:10074000E1F713E0C8E8D3E004C02197FE010E945E
:100750006319C738D107C9F70E94B6140C947719EA
:100760000C940000FC01738362830895FC0177837D
:1007700066830895FC0175836483089580E008957D
:10078000FC0181850895FC0180850895FC01878125
:100790000895FC0186810895FC01409595854923C3
:1007A000642B65870895FC0164870895FC016387C5
:1007B0000895FC0162870895FC0164830895FC019B
:1007C00065830895FC012281338123303105D1F303
:1007D00081E00895CF93DF93EC01E881F9810280F5
:1007E000F381E02DCE0109958823B9F3DF91CF91F4
:1007F000089581E008958F929F92AF92BF92CF9219
:10080000DF92EF92FF92CF93DF93EC016B010E9496
:10081000A80C4B015C01E12CF12C0E94A80CDC011E
:10082000CB0188199909AA09BB098C159D05AE054C
:10083000BF0530F48A819B81039779F381E001C081
:1008400080E0DF91CF91FF90EF90DF90CF90BF904D
:10085000AF909F908F9008958F929F92AF92BF928A
:10086000CF92DF92EF92FF92CF93DF93EC016B0177
:100870000E94A80C4B015C01E12CF12C0E94A80CF9
:10088000DC01CB0188199909AA09BB098C159D05C2
:10089000AE05BF0550F4E881F9810280F381E02DB7
:1008A000CE010995882351F301C080E0DF91CF91FB
:1008B000FF90EF90DF90CF90BF90AF909F908F9080
:1008C00008959CB59C7F282F2370922B9CBD2DB53D
:1008D00082FB992790F9822F8E7F892B8DBD0895F9
:1008E000FF920F931F93CF93DF93CDB7DEB7CA511B
:1008F000D1400FB6F894DEBF0FBECDBF8BEFC65E02
:10090000DE4F8883CA51D140AE01465E5E4FBE01C4
:100910006F5F7F4F85EC95E00E94970B882309F469
:10092000D7C061E088E00E94C11162E272E080EE0F
:1009300094E00E94B414BE016F5F7F4F80EE94E09C
:100940000E94A01465E372E080EE94E00E94B4146B
:100950000091D305002E000C110BC8010E948214D7
:1009600089818B3609F05FC08A818E3609F093C089
:10097000FB8080E3F812B2C0083E1F4F0CF4AEC0FB
:100980006DE372E080EE94E00E94A01484E0E4E065
:10099000F1E0DE01A450BF4F01900D928A95E1F77E
:1009A000ECEFF0E0EC0FFD1F34968AE1DF011D92C1
:1009B0008A95E9F7C150DF4FF882CF5FD040C05031
:1009C000DF4FF882C050D14084E3CF5FDE4F888391
:1009D000C150D1408C81CE5FDE4F8883C250D14060
:1009E0008D81CD5FDE4F8883C350D1408E81CC5F37
:1009F000DE4F8883C450D1404EE1BE0164507F4F2A
:100A000085EC95E00E94DE0E85EC95E00E94E20305
:100A100060E572E080EE94E00E94A01460E088E05F
:100A20000E94C1115BC0843709F058C08A818336A7
:100A300009F054C08B81803309F050C08C81803321
:100A400009F04CC08D81803309F048C08E81843319
:100A500009F044C080E090E011E3FC01EE0FFF1FBD
:100A6000EE0FFF1FE65BFC4F2081203379F41083EB
:100A70008C8181838D8182838E8183836DE572E099
:100A800080EE94E00E94A01485E690E00196843602
:100A900091051CF323C0843709F58B818233F1F46F
:100AA0009C8180913603981319C09D8180913703F2
:100AB000981314C09E818091380398130FC082E070
:100AC00090E09093DB048093DA046DE672E002C05C
:100AD00065E872E080EE94E00E94A014C65EDE4FEE
:100AE0000FB6F894DEBF0FBECDBFDF91CF911F913F
:100AF0000F91FF9008954F925F926F927F92AF9205
:100B0000BF92CF92DF92EF92FF920F931F93CF93FA
:100B1000DF93CDB7DEB7CA51D1400FB6F894DEBF30
:100B20000FBECDBF809134039091350303970CF035
:100B300067C00E94A80CC0903003D0903103E090B1
:100B40003203F0903303DC01CB018C199D09AE090F
:100B5000BF09813A9F40A105B10558F00E94A80C39
:100B60006093300370933103809332039093330387
:100B700047C00E94A80CDC01CB018C199D09AE096D
:100B8000BF09803A9F40A105B105D1F561E972E046
:100B900080EE94E00E94A01484E0E2E2F1E0DE0145
:100BA000119601900D928A95E1F7FE0135968AE142
:100BB000DF011D928A95E9F780E38C838D8384E3BE
:100BC0008E834EE1BE016F5F7F4F85EC95E00E9402
:100BD000DE0E85EC95E00E94E2030E94A80C609373
:100BE00030037093310380933203909333038091E9
:100BF0003403909135030196909335038093340329
:100C00000E94A80CC0902C03D0902D03E0902E03DE
:100C1000F0902F03DC01CB018C199D09AE09BF09AF
:100C2000813A9F40A105B10558F00E94A80C60933D
:100C30002C0370932D0380932E0390932F0312C1E6
:100C40000E94A80CDC01CB018C199D09AE09BF09DB
:100C5000803A9F40A105B10509F004C161E972E045
:100C600080EE94E00E94A01481E480937C00809147
:100C70007A00806480937A0080917A0086FDFCCFB0
:100C8000609178008091790070E0782B072E000C3D
:100C9000880B990B0E9440172091E0063091E106E5
:100CA0004091E2065091E3060E949F1720E030E059
:100CB00040E85AE30E949F176B017C0120E030E07E
:100CC00041EE54E40E949F1723E333E848E755E4DC
:100CD0000E9480182B013C01A70196016AE47CE088
:100CE0008FE192E40E947F189B01AC01C301B20125
:100CF0000E94EC182B013C0107EC10E0EFE8CE2E2F
:100D0000DD24D394A12CB12CF801EE0FFF1FEE0FC0
:100D1000FF1FCF0182539F4F7C01FC01259135912C
:100D200045915491C301B2010E943917882341F1C2
:100D3000F7012591359145915491C301B2010E946B
:100D40005E1918160CF0B8C158019FEFA91AB90A1C
:100D5000F501EE0FFF1FEE0FFF1FE253FF4F25912E
:100D6000359145915491C301B2010E945E19181644
:100D70000CF4A2C1A801C301B2010E94E6128C01C9
:100D800065EA72E080EE94E00E94B414A801110FAD
:100D9000660B770B77FF05C0CB01BA010E945F1489
:100DA00005C02AE080EE94E00E94161465EB72E024
:100DB00080EE94E00E94A01484E0E0E4F1E0DE0123
:100DC000119601900D928A95E1F7FE0135968AE120
:100DD000DF011D928A95E9F7809136038C8380911B
:100DE00037038D83809138038E8380E38F838887D8
:100DF00094E399878A878B879C870D876AEB72E0DB
:100E000080EE94E00E94B4142AE04EE150E060E0ED
:100E100070E080EE94E00E94161461E073E080EED2
:100E200094E00E9401144EE1BE016F5F7F4F85EC9C
:100E300095E00E94DE0E85EC95E00E94E2030E94A0
:100E4000A80C60932C0370932D0380932E03909332
:100E50002F0380912A0390912B03019690932B03EB
:100E600080932A0385EC95E00E945B0F882309F4A8
:100E700055C18BEFC65EDE4F8883CA51D140AE01AB
:100E8000465E5E4FBE016F5F7F4F85EC95E00E942E
:100E9000970B882309F409C161E088E00E94C11121
:100EA00062E272E080EE94E00E94B414BE016F5FD3
:100EB0007F4F80EE94E00E94A01489818B3609F068
:100EC000A9C08A81873609F0CEC08B81813309F0B1
:100ED000CAC080E090E03AE1F32E0CEF10E00C0F76
:100EE0001D1F0C5F1F4FFC01EE0FFF1FEE0FFF1FBA
:100EF000E65BFC4F2081213309F086C02C81203332
:100F000009F082C02D81203309F07EC02E81243368
:100F100009F07AC03F812181321376C03885228161
:100F2000321372C03985238132136EC084E0E0E44D
:100F3000F1E0DE01A450BF4F01900D928A95E1F7D8
:100F4000F8012F2D11922A95E9F780913603C150AF
:100F5000DF4F8883CF5FD04080913703C050DF4F91
:100F60008883C050D14080913803CF5FDE4F8883A3
:100F7000C150D1408091BE01CE5FDE4F8883C25008
:100F8000D1408091BF01CD5FDE4F8883C350D140F7
:100F90008091C001CC5FDE4F8883C450D1408A85E8
:100FA000CB5FDE4F8883C550D1408B85CA5FDE4F53
:100FB0008883C650D1408C85C95FDE4F8883C75077
:100FC000D1408D85C85FDE4F8883C850D1408E8563
:100FD000C75FDE4F8883C950D1404EE1BE016450E7
:100FE0007F4F85EC95E00E94DE0E85EC95E00E9437
:100FF000E20380912A0390912B03019690932B0397
:1010000080932A0385E690E00196843691050CF4DE
:101010006ACF29C0843639F58A818E3621F58B81D5
:10102000813309F59C818091360398131CC09D8102
:1010300080913703981317C09E81809138039813CD
:1010400012C08F81803379F48885803361F489857B
:10105000843349F480912803909129030196909359
:1010600029038093280360E088E00E94C1118091E9
:101070002A0390912B038A30910509F04FC02091EB
:10108000280330912903821B930B09974CF010928F
:101090002B0310922A0310922903109228033EC0BA
:1010A0001092DB041092DA0439C065E872E080EE39
:1010B00094E00E94A01432C0F7012591359145912A
:1010C0005491C301B2010E94391787FF17C068010C
:1010D000A1E0CA1AD108F601EE0FFF1FEE0FFF1FA5
:1010E000E253FF4F2591359145915491C301B201CF
:1010F0000E94391787FD02C0A6013DCE86010A195C
:101100001B0917FF02C00F5F1F4F159507950A0DAA
:101110001B1DAC14BD040CF033CEF6CDC65EDE4F05
:101120000FB6F894DEBF0FBECDBFDF91CF911F91F8
:101130000F91FF90EF90DF90CF90BF90AF907F9096
:101140006F905F904F900895CF92DF92EF92FF9251
:101150000F931F93CF93DF93CDB7DEB7CA51D14022
:101160000FB6F894DEBF0FBECDBF0E94A80CC09092
:101170002403D0902503E0902603F0902703DC01A0
:10118000CB018C199D09AE09BF09813A9F40A10589
:10119000B105A0F50E94A80CDC01CB018C199D09BA
:1011A000AE09BF09803A9F40A105B10589F561E903
:1011B00072E080EE94E00E94A01484E0EEE5F1E09D
:1011C000DE01119601900D928A95E1F7FE013596A8
:1011D0008AE1DF011D928A95E9F780E38C838D8394
:1011E00084E38E834EE1BE016F5F7F4F85EC95E017
:1011F0000E94DE0E85EC95E00E94E2030E94A80C9E
:101200006093240370932503809326039093270310
:1012100085EC95E00E945B0F882309F4EEC08BEF0C
:10122000C65EDE4F8883CA51D140AE01465E5E4F36
:10123000BE016F5F7F4F85EC95E00E94970B88237E
:1012400009F4D5C061E088E00E94C11162E272E059
:1012500080EE94E00E94B414BE016F5F7F4F80EE79
:1012600094E00E94A01461EC72E080EE94E00E9491
:10127000B4140091D305002E000C110BC8010E947C
:10128000821489818B3609F05FC08A818E3609F01D
:1012900093C0FB80B0E3FB12B0C0033E1F4F0CF4C1
:1012A000ACC06BEC72E080EE94E00E94A01484E08D
:1012B000EEE5F1E0DE01A450BF4F01900D928A955A
:1012C000E1F7ECEFF0E0EC0FFD1F34968AE1DF016F
:1012D0001D928A95E9F7C150DF4FF882CF5FD04069
:1012E000C050DF4FF882C050D14084E3CF5FDE4F63
:1012F0008883C150D1408C81CE5FDE4F8883C2503D
:10130000D1408D81CD5FDE4F8883C350D1408E8127
:10131000CC5FDE4F8883C450D1404EE1BE016450A3
:101320007F4F85EC95E00E94DE0E85EC95E00E94F3
:10133000E20360E572E080EE94E00E94A01460E0B9
:1013400088E00E94C11159C0843709F056C08A81D3
:10135000833609F052C08B81803309F04EC08C81F6
:10136000803309F04AC08D81803309F046C08E81F8
:10137000843309F042C080E090E011E3FC01EE0FFD
:10138000FF1FEE0FFF1FE65BFC4F2081203379F437
:1013900010838C8181838D8182838E8183836DE52F
:1013A00072E080EE94E00E94A01485E690E0019641
:1013B000843691051CF321C08736F9F48B81803384
:1013C000E1F49C8180913603981317C09D81809130
:1013D0003703981312C09E818091380398130DC073
:1013E00083E090E09093DB048093DA0406C065E824
:1013F00072E080EE94E00E94A014C65EDE4F0FB64D
:10140000F894DEBF0FBECDBFDF91CF911F910F913A
:10141000FF90EF90DF90CF900895CF92DF92EF9200
:10142000FF92CF93DF93CDB7DEB7CA51D1400FB64D
:10143000F894DEBF0FBECDBF0E94A80CC09024035D
:10144000D0902503E0902603F0902703DC01CB0128
:101450008C199D09AE09BF09813A9F40A105B105CC
:10146000A0F50E94A80CDC01CB018C199D09AE09E6
:10147000BF09803A9F40A105B10589F561E972E095
:1014800080EE94E00E94A01484E0ECE7F1E0DE013D
:10149000119601900D928A95E1F7FE0135968AE149
:1014A000DF011D928A95E9F780E38C838D8384E3C5
:1014B0008E834EE1BE016F5F7F4F85EC95E00E9409
:1014C000DE0E85EC95E00E94E2030E94A80C60937A
:1014D000240370932503809326039093270385ECC0
:1014E00095E00E945B0F882309F4EFC08BEFC65E86
:1014F000DE4F8883CA51D140AE01465E5E4FBE01C9
:101500006F5F7F4F85EC95E00E94970B882309F46D
:10151000D6C061E088E00E94C1116DED72E080EEFE
:1015200094E00E94B414BE016F5F7F4F80EE94E0A0
:101530000E94A01489818B3609F0BCC08A8184374F
:1015400009F0B8C08B81813309F056C08F81803398
:1015500009F0B0C08885803309F0ACC09985943318
:1015600009F0A8C04C81409336033D813093370386
:101570002E812093380354E0EAE9F1E0DE01A45023
:10158000BF4F01900D925A95E1F7ECEFF0E0EC0FB0
:10159000FD1F34965AE1DF011D925A95E9F7C150BB
:1015A000DF4F4883CF5FD040C050DF4F3883C050FB
:1015B000D140CF5FDE4F2883C150D140CE5FDE4F98
:1015C0008883C250D140CD5FDE4F8883C350D14065
:1015D000CC5FDE4F9883C450D1404EE1BE016450D1
:1015E0007F4F85EC95E00E94DE0E85EC95E00E9431
:1015F000E20381E090E05AC0823319F0833309F0AE
:1016000059C08F81803309F055C08885803309F037
:1016100051C09985943309F04DC04C8140933603F5
:101620003D81309337032E812093380354E0EAE95B
:10163000F1E0DE01A450BF4F01900D925A95E1F701
:10164000ECEFF0E0EC0FFD1F34965AE1DF011D9244
:101650005A95E9F7C150DF4F4883CF5FD040C05063
:10166000DF4F3883C050D140CF5FDE4F2883C15059
:10167000D140CE5FDE4F8883C250D140CD5FDE4F78
:101680008883C350D140CC5FDE4F9883C450D14093
:101690004EE1BE0164507F4F85EC95E00E94DE0E66
:1016A00085EC95E00E94E20382E090E09093DB04F9
:1016B0008093DA0460E088E00E94C11106C065E80A
:1016C00072E080EE94E00E94A014C65EDE4F0FB67A
:1016D000F894DEBF0FBECDBFDF91CF91FF90EF90AA
:1016E000DF90CF90089508958BEF08959FB7F894F9
:1016F00080913903882319F08150809339038091B8
:101700003903811103C08CB58F7B8CBD9FBF0895B9
:101710008CB58F778CBD08958CB580688CBD08958D
:101720006EBD00000DB407FEFDCF8EB50895CF92BB
:10173000DF92EF92FF920F931F93CF93DF93EC0111
:101740007B018A01E881F9810280F381E02D09950E
:10175000D82E882331F1E114F104D9F001151105D7
:10176000C1F0CFB6F8948A8D90E00397F8012081FC
:1017700030E0281739071CF08A8D84508083F801E7
:10178000408150E0BE01615E7F4FC7010E946E192B
:10179000CFBE8FB7F894FE01E65EFE4F10821A8E20
:1017A0008FBF8D2DDF91CF911F910F91FF90EF9003
:1017B000DF90CF90089580913F0390914003009770
:1017C00011F00C945A13089580913D0390913E03BB
:1017D000009711F00C945A13089580913B03909157
:1017E0003C03009711F00C945A130895CF93DF93A4
:1017F000EC018D899E89DC01ED91FC910680F781D9
:10180000E02D099561E08F890E94F01161E08F89D8
:101810000E94C11164E670E080E090E00E942C120A
:1018200081E0DF91CF910895CF93DF93FC01268172
:1018300037812115310579F02130310541F0223011
:10184000310539F02330310531F49CE005C094E0D6
:1018500003C098E001C090E08CB5837F982B9CBDBD
:1018600084819581019709F04AC08CB580628CBD56
:101870008281938101978430910528F4FC01E4541E
:10188000FE4FC08101C0C1E08C2F0E946104DFB710
:10189000F89480913903811127C0ECE9F0E084913C
:1018A000E0EBF0E09491E82FF0E0EE0FFF1FE2583C
:1018B000FF4FA591B491EC91E92321F461E08AE016
:1018C0000E94C11161E08AE00E94F0118CB5806134
:1018D0008CBD8CB580648CBD61E08DE00E94F01100
:1018E00061E08BE00E94F011809139038F5F80935B
:1018F0003903DFBF8C2FDF91CF910C9461049CB52D
:101900009F7D9CBDB5CF3FB7F894809146039091E1
:101910004703A0914803B091490326B5A89B05C091
:101920002F3F19F00196A11DB11D3FBFBA2FA92F5E
:10193000982F8827820F911DA11DB11DBC01CD01DB
:1019400042E0660F771F881F991F4A95D1F70895C7
:101950002FB7F89460914203709143038091440340
:10196000909145032FBF08951F920F920FB60F92CB
:1019700011242F933F938F939F93AF93BF938091A5
:10198000420390914303A0914403B09145033091E9
:10199000410323E0230F2D3720F40196A11DB11D33
:1019A00005C026E8230F0296A11DB11D2093410317
:1019B0008093420390934303A0934403B093450361
:1019C0008091460390914703A0914803B091490349
:1019D0000196A11DB11D8093460390934703A093E8
:1019E0004803B0934903BF91AF919F918F913F916D
:1019F0002F910F900FBE0F901F9018951F920F926E
:101A00000FB60F9211242F933F934F935F936F93D1
:101A10007F938F939F93AF93BF93EF93FF93E09147
:101A20000201F09103010995FF91EF91BF91AF91F0
:101A30009F918F917F916F915F914F913F912F91E6
:101A40000F900FBE0F901F9018951F920F920FB618
:101A50000F9211242F933F934F935F936F937F9334
:101A60008F939F93AF93BF93EF93FF93E091000108
:101A7000F09101010995FF91EF91BF91AF919F9175
:101A80008F917F916F915F914F913F912F910F9027
:101A90000FBE0F901F9018951F920F920FB60F92C6
:101AA00011242F933F934F935F936F937F938F9363
:101AB0009F93AF93BF93CF93DF93EF93FF93809167
:101AC000020090910300049709F0CCC02091170008
:101AD00030E0F901E654FF4F8491F901EA55FF4FD8
:101AE000D491F901EE56FF4FC491CC2379F08111C6
:101AF0000E949811EC2FF0E0EE0FFF1FE859FF4F06
:101B0000A591B491EC91ED2381E009F480E081701E
:101B100090911A00892729F090911F009F5F909360
:101B20001F0090911E00981761F090B1903510F051
:101B30009DE101C09BE020B1920F90B980931E00FF
:101B400003C080B18C5E80B980B1803A08F4DEC0F9
:101B500082B193B19695879593B982B980911F0010
:101B6000853028F082B193B1986093B982B980B181
:101B7000805A80B910921F0081B1882309F466C091
:101B800084B18F5F84B98C3008F4C0C082B193B146
:101B9000982F9F73892F86958695887028E0280F47
:101BA000281749F0E82FF0E0E054FE4F30819317FA
:101BB00019F08F5FF5CF80E020E1829FC0011124F2
:101BC00022B133B196E0369527959A95E1F7422FE9
:101BD0003695279536952795287038E0320F3217BD
:101BE00049F0E22FF0E0E054FE4F5081451719F024
:101BF0002F5FF5CF20E0822B909169009923B9F0F7
:101C0000E091690091E09E0F90936900F0E085A358
:101C100090916900809168009817B0F011B881E048
:101C200080931C0080E090E00E9442130DC08093DE
:101C3000680090916800973008F45EC09091680049
:101C4000943408F059C0DCCF14B860C082B193B1AD
:101C500088339B4009F05AC081E081B914B81092D2
:101C6000690054C08091020090910300039709F02D
:101C70004DC080916C0091E0980F90936C008111A1
:101C800034C0E0916A008091FB00E81770F080E0BA
:101C900090E00E94421380911300909114000196ED
:101CA000909314008093130020C0F0E0E359FF4F9D
:101CB000608170E080916B0091E0980F90936B00D1
:101CC00002C0759567958A95E2F76170809118005A
:101CD0000E94C11180916B00863038F010926B0029
:101CE00080916A008F5F80936A0080916C008830D9
:101CF00068F010926C000AC011B880910F009091AA
:101D0000100001969093100080930F00FF91EF91C7
:101D1000DF91CF91BF91AF919F918F917F916F9103
:101D20005F914F913F912F910F900FBE0F901F9099
:101D30001895FF920F931F93CF93DF93EC01162F0B
:101D4000F42E0FB7F89460E08F890E94C1118D893D
:101D50009E89612F6068DC01ED91FC910190F0811A
:101D6000E02D0995182F8D899E89DC01ED91FC915C
:101D70000190F081E02D6F2D099561E08F890E941F
:101D8000C1110FBF812FDF91CF911F910F91FF9054
:101D90000895CF93DF93FC012281338121303105F7
:101DA00049F0EC0140E061E00E94990E81E090E092
:101DB0009B838A8381E0DF91CF910895CF92DF9258
:101DC000EF92FF920F931F93CF93DF934C3F08F056
:101DD00066C0142F072FF62EEC01E881F9810484E8
:101DE000F585E02D0995CE010E94B81240E06DE026
:101DF000CE010E94990E4A8560E0CE010E94990EA4
:101E00004B8560E0CE010E94990E4C8560E0CE01CA
:101E10000E94990E4D8560E0CE010E94990EEFB6AA
:101E2000F89460E08F890E94C1118D899E89DC0140
:101E3000ED91FC910190F081E02D60E80995CF2CA7
:101E4000D02E012F015068F08D899E89F601619195
:101E50006F01DC01ED91FC910190F081E02D09957D
:101E6000F1CF61E08F890E94C111EFBE44E0410FC4
:101E700062E2CE010E94990E8A819B81039789F0CC
:101E800043E061E0CE010E94990E40E460E4CE019F
:101E90000E94990E83E090E09B838A8302C080E0D9
:101EA00001C081E0DF91CF911F910F91FF90EF90E2
:101EB000DF90CF900895CF93DF93FC01228133818F
:101EC00023303105B9F0EC0182819381049771F0E0
:101ED00045E061E0CF010E94990E40E060E4CE0150
:101EE0000E94990E84E090E09B838A83C65EDE4F59
:101EF000888101C080E0DF91CF9108950F931F93F7
:101F0000CF93DF93EC01162F0FB7F89460E08F8921
:101F10000E94C1118D899E89612F6F77DC01ED913F
:101F2000FC910190F081E02D09958D899E89DC015D
:101F3000ED91FC910190F081E02D60E00995182F62
:101F400061E08F890E94C1110FBF812FDF91CF9176
:101F50001F910F910895EF92FF920F931F93CF93CC
:101F6000DF9300D01F92CDB7DEB78C010E94F60B35
:101F7000E82E811102C0E12C90C0F801808D8230E2
:101F800029F08330C1F7FF24F39401C0F12C40E81D
:101F900061E0C8010E94990E6AE070E080E090E084
:101FA0000E942C1261E0C8010E947E0F803819F750
:101FB00060E0F801808D0E94F011F801818D8F3F63
:101FC00049F480913A038430B0F691E0980F9093F1
:101FD0003A03818FF801818DE82FF0E0EE0FFF1FAB
:101FE000E55CFC4F11830083811103C06DEE7BE043
:101FF0000AC0813019F464EE7BE005C0823009F03C
:10200000BACF6BED7BE08F2D0E94CC1240E06EE0EA
:10201000C8010E94990E40E06FE0C8010E94990E2D
:10202000C8010E94B81243E050E062E770E0CE01C0
:1020300001960E94301749816DE1C8010E94990EF6
:102040004A816EE1C8010E94990E4B8166E2C80187
:102050000E94990E40E060E2C8010E94990E48E09B
:1020600061E2C8010E94990E4CE666E0C8010E9438
:10207000990E40E867E0C8010E94990E40E068E0D0
:10208000C8010E94990E44E06DE4C8010E94990EB7
:1020900048E869E0C8010E94990E8E2D0F900F90BC
:1020A0000F90DF91CF911F910F91FF90EF900895C6
:1020B000089580E090E00895FC01538D448D252F14
:1020C00030E0842F90E0821B930B541710F0CF96D2
:1020D000089501970895FC01918D828D981761F004
:1020E000828DDF01A80FB11D5D968C91928D9F5F4F
:1020F0009F73928F90E008958FEF9FEF0895FC01FA
:10210000918D828D981731F0828DE80FF11D858DAC
:1021100090E008958FEF9FEF0895FC01918D228D3F
:10212000892F90E0805C9F4F821B91098F739927C4
:10213000089580EE94E00E948D1021E0892B09F42F
:1021400020E0822F0895FC01848DDF01A80FB11DCE
:10215000A35ABF4F2C91848D90E001968F739927DD
:10216000848FA689B7892C93A089B1898C918370BB
:1021700080648C93938D848D981306C00288F389B4
:10218000E02D80818F7D80830895EF92FF920F93E1
:102190001F93CF93DF93EC0181E0888F9B8D8C8D13
:1021A000981305C0E889F989808185FD26C0F62E3F
:1021B0000B8D10E00F5F1F4F0F731127E02E8C8DDA
:1021C000E8120CC00FB607FCFACFE889F9898081C4
:1021D00085FFF5CFCE010E94A310F1CF8B8DFE01BC
:1021E000E80FF11DE35AFF4FF0829FB7F8940B8F71
:1021F000EA89FB89808180620AC09FB7F894EE89E2
:10220000FF896083E889F989808183708064808395
:102210009FBF81E090E0DF91CF911F910F91FF90E0
:10222000EF900895CF93DF93EC01888D8823C9F058
:10223000EA89FB89808185FD05C0A889B9898C91CF
:1022400086FD0FC00FB607FCF5CF808185FFF2CF6A
:10225000A889B9898C9185FFEDCFCE010E94A3108A
:10226000E7CFDF91CF91089580E090E0892B29F0AE
:102270000E94991081110C94000008950E94691920
:102280001F920F920FB60F9211242F933F934F93EB
:102290005F936F937F938F939F93AF93BF93EF93CE
:1022A000FF9380EE94E00E94A310FF91EF91BF9105
:1022B000AF919F918F917F916F915F914F913F91DE
:1022C0002F910F900FBE0F901F9018951F920F9295
:1022D0000FB60F9211242F938F939F93EF93FF9339
:1022E000E091F004F091F1048081E091F604F09126
:1022F000F70482FD12C090818091F9048F5F8F7383
:102300002091FA04821751F0E091F904F0E0E052D4
:10231000FB4F958F8093F90401C08081FF91EF916D
:102320009F918F912F910F900FBE0F901F90189536
:10233000833081F028F4813099F08230A1F0089543
:102340008730A9F08830B9F08430D1F480918000D2
:102350008F7D03C0809180008F77809380000895E7
:1023600084B58F7702C084B58F7D84BD0895809138
:10237000B0008F7703C08091B0008F7D8093B00054
:1023800008951F93CF93DF93282F30E0F901E6548F
:10239000FF4F8491F901EA55FF4FD491F901EE56B0
:1023A000FF4FC491CC23C1F0162F81110E949811C8
:1023B000EC2FF0E0EE0FFF1FE857FF4FA591B4910F
:1023C0009FB7F894111104C08C91D095D82302C006
:1023D000EC91DE2BDC939FBFDF91CF911F9108958D
:1023E000CF93DF9390E0FC01EA55FF4F2491FC016D
:1023F000EE56FF4F8491882361F190E0880F991F7A
:10240000FC01E258FF4FC591D491FC01E857FF4F02
:10241000A591B491611109C09FB7F8948881209566
:1024200082238883EC912E230BC0623061F49FB726
:10243000F8948881322F309583238883EC912E2B5A
:102440002C939FBF06C08FB7F894E8812E2B28836A
:102450008FBFDF91CF9108958F929F92AF92BF92DD
:10246000CF92DF92EF92FF926B017C010E94830C6E
:102470004B015C01C114D104E104F104F1F00E94AC
:10248000830CDC01CB0188199909AA09BB09883E94
:102490009340A105B10570F321E0C21AD108E1080B
:1024A000F10888EE880E83E0981EA11CB11CC114AF
:1024B000D104E104F10419F7DDCFFF90EF90DF9034
:1024C000CF90BF90AF909F908F900895CF92DF9262
:1024D000EF92FF920F931F93CF93DF936C017A01DA
:1024E0008B01C0E0D0E0CE15DF0581F0D8016D9101
:1024F0008D01D601ED91FC910190F081E02DC60196
:102500000995892B11F02196EECF7E01C701DF914D
:10251000CF911F910F91FF90EF90DF90CF90089592
:10252000E0EEF4E0A089B18982E08C93A485B585C2
:102530001C92A685B7858FEC8C93108EA489B589E3
:1025400086E08C93A289B3898C9180618C93A28957
:10255000B3898C9188608C93A289B3898C918068AF
:102560008C930288F389E02D80818F7D808308958C
:10257000CF93DF93FC01228133812230310549F072
:10258000EC0141E061E00E94990E82E090E09B83C3
:102590008A83DF91CF9108958230B8F4E82FF0E07C
:1025A000EE0FFF1FE050FF4F71836083813039F0E1
:1025B00080916900836080936900E89A0895809112
:1025C00069008C6080936900E99A08954F925F9248
:1025D0006F927F928F929F92AF92BF92CF92DF9233
:1025E000EF92FF920F931F93CF93DF93EA019A012B
:1025F000220F331F220F331FD901A253BF4FFD01FA
:1026000025913591459154918E010F5F1F4FF8012F
:10261000EE0FFF1FEE0FFF1FE253FF4F85909590C7
:10262000A590B490FD0145905590659074900E94DE
:102630007F186B017C01A3019201C501B4010E94C6
:102640007F1820E030E040E05FE30E949F179B018D
:10265000AC01C701B6010E945E1918160CF08E017C
:10266000C801DF91CF911F910F91FF90EF90DF9004
:10267000CF90BF90AF909F908F907F906F905F9022
:102680004F900895CF93DF93FC0122813381223054
:10269000310569F0EC01638D818D0E94C11160E00C
:1026A000888D0E94C11182E090E09B838A83DF9134
:1026B000CF910895DF92EF92FF920F931F93CF93E4
:1026C000DF93EC0162E10E947E0F2A813B8124307E
:1026D000310521F4982F907A09F069C02A813B8155
:1026E0002430310509F074C086FF72C063E1CE0169
:1026F0000E947E0F082F60E1CE010E947E0F482FBE
:102700006DE0CE010E94990EDFB6F89460E08F89EB
:102710000E94C1118D899E89DC01ED91FC9101908F
:10272000F081E02D60E009957E01BBE1EB0EF11C2C
:10273000102F112379F08D899E89DC01ED91FC9198
:102740000190F081E02D60E00995F70181937F0110
:102750001150EFCF61E08F890E94C111DFBE0A8F57
:102760004FEF62E1CE010E94990E6AE1CE010E9414
:102770007E0F89588E878A8DFE01E65EFE4F84307B
:1027800090F08B8D8E838C8D8F838D8D88878E8D31
:1027900089878D81811129C09E818C81981729F1AB
:1027A0008E818F3F11F18081882331F026C08F8583
:1027B00098890196988B8F874FEF62E1CE01DF9168
:1027C000CF911F910F91FF90EF90DF900C94990E95
:1027D0002A813B812330310579F783FFEDCF8B8947
:1027E0009C8901969C8B8B8B08C089899A8901965C
:1027F0009A8B898B81E08083D6CFCE010E94B8125C
:10280000DBCF6115710579F0FB0101900020E9F73C
:102810003197AF01461B570BDC01ED91FC91028013
:10282000F381E02D099480E090E008958F929F92CB
:10283000AF92BF92EF92FF920F931F93CF93DF93CC
:10284000CDB7DEB7A1970FB6F894DEBF0FBECDBFF0
:102850007C01FA01CB0119A2223008F42AE08E0192
:102860000F5D1F4F822E912CA12CB12CBF01A50111
:1028700094010E945D18F901CA01015011096A30E2
:1028800014F4605D01C0695CD8016C93232B242B88
:10289000252B61F7B801C7010E940114A1960FB65C
:1028A000F894DEBF0FBECDBFDF91CF911F910F9186
:1028B000FF90EF90BF90AF909F908F900895CF9230
:1028C000DF92EF92FF92CF93DF936B017C016DE279
:1028D00080EE94E00E94C510EC0144275527BA0110
:1028E0004C195D096E097F092AE080EE94E00E9490
:1028F00016148C0F9D1FDF91CF91FF90EF90DF900A
:10290000CF900895CF93DF93AC01990F660B770BAF
:1029100077FF05C0CB01BA010E945F1405C02AE011
:1029200080EE94E00E941614EC0161E073E080EE0A
:1029300094E00E9401148C0F9D1FDF91CF910895A8
:102940000F931F93CF93DF93EC010E9401148C012E
:1029500061E073E0CE010E940114800F911FDF91AE
:10296000CF911F910F9108950C940114789484B520
:10297000826084BD84B5816084BD85B5826085BD7B
:1029800085B5816085BD80916E00816080936E0009
:1029900010928100809181008260809381008091FB
:1029A00081008160809381008091800081608093AC
:1029B00080008091B10084608093B1008091B0006C
:1029C00081608093B00080917A00846080937A0067
:1029D00080917A00826080937A0080917A00816091
:1029E00080937A0080917A00806880937A001092B8
:1029F000C1001092C1051092C2051092C305109239
:102A0000C40510927F0510928005109281051092E6
:102A100082050E94A80C6B017C014B015C0128EB34
:102A2000820E2BE0921EA11CB11C0E94A80C6C15FA
:102A30007D058E059F0528F086169706A806B9061F
:102A4000A0F780EE94E09093C0058093BF050E94AC
:102A500090120E94A80C60937F057093800580936C
:102A600081059093820562EF72E08091BF0590919D
:102A7000C0050E94B4140E94A80C6B017C014B019C
:102A80005C013AE0830E911CA11CB11C0E94A80CB1
:102A90006C157D058E059F0528F086169706A806FD
:102AA000B906A0F781E0809393050E94901285EC0F
:102AB00095E00E94AB0F811106C064E073E080EEE8
:102AC00094E00E94A014EAE4F3E02AED34E080E30D
:102AD000808381838283838334962E173F07C1F7D7
:102AE00084EF882E99249394A12CB12C0E94A80CD9
:102AF000672B682B692B41F40E94A80C623071058A
:102B00008105910508F409C10E94A80CC090DC045D
:102B1000D090DD04E090DE04F090DF046C157D05BC
:102B20008E059F0540F46093DC047093DD04809370
:102B3000DE049093DF04C090DC04D090DD04E090CC
:102B4000DE04F090DF049B01AC012C193D094E0915
:102B50005F0969017A013AEFC316D104E104F10477
:102B600008F4DBC06093DC047093DD048093DE0422
:102B70009093DF0480928B0590928C05A0928D0536
:102B8000B0928E0510928F051092900510929105CB
:102B9000109292058091830590918405A0918505FE
:102BA000B09186058093870590938805A093890549
:102BB000B0938A050E94A80C6093830570938405E6
:102BC00080938505909386050E94A80C60937F05ED
:102BD0007093800580938105909382050E94A80CD4
:102BE0006B017C0160E173E08091BF059091C005AD
:102BF0000E94B4142AE041E050E060E070E080916F
:102C0000BF059091C0050E94161467E173E08091A2
:102C1000BF059091C0050E94B4142AE0B701A60137
:102C20008091BF059091C0050E94161469E173E080
:102C30008091BF059091C0050E94B41480918305D6
:102C400090918405A0918505B0918605B701A601F4
:102C5000481B590B6A0B7B0B2AE08091BF059091B2
:102C6000C0050E94161469E173E08091BF05909140
:102C7000C0050E94B4144091830550918405609171
:102C80008505709186058091870590918805A091B2
:102C90008905B0918A05481B590B6A0B7B0B2AE00A
:102CA0008091BF059091C0050E9416146BE173E0FE
:102CB0008091BF059091C0050E94B4140E94A80C99
:102CC000AB01BC012AE08091BF059091C0050E9434
:102CD00016146DE173E08091BF059091C0050E94CC
:102CE000A0140E94A80C6B017C012B013C0145E063
:102CF000440E511C611C711C0E94A80C6C157D05B2
:102D00008E059F0560F50E94A80C60938305709363
:102D1000840580938505909386058091DA049091CF
:102D2000DB04009719F40E940D0A16C0813091054A
:102D300049F485EC95E00E945B0F882369F00E94BE
:102D400070040AC08230910519F40E94A40804C0DE
:102D5000039711F40E947B050E943411C7CE4616DA
:102D600057066806790640F6CECFE0EEF4E013820F
:102D7000128288EE93E0A0E0B0E084839583A6837E
:102D8000B78384ED91E09183808385EC90E0958713
:102D9000848784EC90E09787868780EC90E0918B25
:102DA000808B81EC90E0938B828B82EC90E0958B12
:102DB000848B86EC90E0978B868B118E128E138E0F
:102DC000148EEDE7F5E016821782108611861286C2
:102DD00013861486158616861786108A118A128A1B
:102DE000138A148A158AA4EEB6E013961C921E92DA
:102DF000129715961C921E92149717961C921E926B
:102E0000169786EE91E011969C938E9340E050E0E9
:102E100060EA70E44093E0065093E1066093E206B6
:102E20007093E306E5ECF5E0138212828FEF848362
:102E30008287838714861586108A1786128A118ADC
:102E4000148A138AB68BA58B9AE0978B2AEF31E010
:102E5000318320831092DF0692E0908F818F089556
:102E6000FB01DC0102C005900D9241505040D8F7A3
:102E700008950E947B1708F481E00895E89409C042
:102E800097FB3EF490958095709561957F4F8F4F9D
:102E90009F4F9923A9F0F92F96E9BB279395F695B3
:102EA000879577956795B795F111F8CFFAF4BB0F31
:102EB00011F460FF1BC06F5F7F4F8F4F9F4F16C095
:102EC000882311F096E911C0772321F09EE8872F1F
:102ED000762F05C0662371F096E8862F70E060E0DB
:102EE0002AF09A95660F771F881FDAF7880F969554
:102EF000879597F90895990F0008550FAA0BE0E8F8
:102F0000FEEF16161706E807F907C0F012161306AB
:102F1000E407F50798F0621B730B840B950B39F4EB
:102F20000A2661F0232B242B252B21F408950A2651
:102F300009F4A140A6958FEF811D811D08950E947F
:102F4000B2170C9423180E94151838F00E941C1810
:102F500020F0952311F00C940C180C9412181124E5
:102F60000C9457180E94341870F3959FC1F3950F75
:102F700050E0551F629FF001729FBB27F00DB11DFD
:102F8000639FAA27F00DB11DAA1F649F6627B00D8D
:102F9000A11D661F829F2227B00DA11D621F739F76
:102FA000B00DA11D621F839FA00D611D221F749F84
:102FB0003327A00D611D231F849F600D211D822FCB
:102FC000762F6A2F11249F5750409AF0F1F08823F2
:102FD0004AF0EE0FFF1FBB1F661F771F881F91501F
:102FE0005040A9F79E3F510580F00C940C180C94AA
:102FF00057185F3FE4F3983ED4F38695779567952D
:10300000B795F795E7959F5FC1F7FE2B880F911D48
:103010009695879597F9089597F99F6780E870E0EE
:1030200060E008959FEF80EC089500240A9416163E
:10303000170618060906089500240A9412161306A6
:10304000140605060895092E0394000C11F4882334
:1030500052F0BB0F40F4BF2B11F460FF04C06F5F50
:103060007F4F8F4F9F4F089557FD9058440F551F26
:1030700059F05F3F71F04795880F97FB991F61F0FA
:103080009F3F79F087950895121613061406551F71
:10309000F2CF4695F1DF08C0161617061806991FDD
:1030A000F1CF86957105610508940895E894BB27D2
:1030B00066277727CB0197F90895A1E21A2EAA1B5C
:1030C000BB1BFD010DC0AA1FBB1FEE1FFF1FA217D8
:1030D000B307E407F50720F0A21BB30BE40BF50BD5
:1030E000661F771F881F991F1A9469F7609570955E
:1030F000809590959B01AC01BD01CF01089550587A
:10310000BB27AA270E9497180C9423180E94151811
:1031100038F00E941C1820F039F49F3F19F426F46F
:103120000C9412180EF4E095E7FB0C940C18E92FA0
:103130000E94341858F3BA1762077307840795077B
:1031400020F079F4A6F50C9456180EF4E0950B2EA9
:10315000BA2FA02D0B01B90190010C01CA01A001E9
:103160001124FF27591B99F0593F50F4503E68F144
:103170001A16F040A22F232F342F4427585FF3CF85
:10318000469537952795A795F0405395C9F77EF456
:103190001F16BA0B620B730B840BBAF09150A1F09F
:1031A000FF0FBB1F661F771F881FC2F70EC0BA0F25
:1031B000621F731F841F48F4879577956795B795AD
:1031C000F7959E3F08F0B0CF9395880F08F09927A8
:1031D000EE0F9795879508950E9400190C94231877
:1031E0000E941C1858F00E94151840F029F45F3F07
:1031F00029F00C940C1851110C9457180C941218B7
:103200000E94341868F39923B1F3552391F3951B69
:10321000550BBB27AA2762177307840738F09F5FF7
:103220005F4F220F331F441FAA1FA9F335D00E2E64
:103230003AF0E0E832D091505040E695001CCAF7D1
:103240002BD0FE2F29D0660F771F881FBB1F261794
:1032500037074807AB07B0E809F0BB0B802DBF016B
:10326000FF2793585F4F3AF09E3F510578F00C943A
:103270000C180C9457185F3FE4F3983ED4F38695EE
:1032800077956795B795F7959F5FC9F7880F911D5B
:103290009695879597F90895E1E0660F771F881F47
:1032A000BB1F621773078407BA0720F0621B730BFA
:1032B000840BBA0BEE1F88F7E09508950E947B17E8
:1032C00008F48FEF0895EE0FFF1F0590F491E02DA5
:1032D000099481E090E0F8940C947719FB01DC01EB
:1032E00002C001900D9241505040D8F70895F894D3
:0232F000FFCF0E
:1032F200730B730B6B7431000000000000000000C0
:1033020000000000000000000000000000000000BB
:1033120000006B67300000000000000000000000A9
:10332200000000000000000000000000000000009B
:103332006B67310000000000000000000000000088
:1033420000000000000000000000000000006B749C
:103352003200000000000000000000000000000039
:103362000000000000000000000000006B6E300052
:10337200000000000000000000000000000000004B
:103382000000000000000000000074633000000034
:10339200000000000000000000000000000000002B
:1033A200000000000000000030303400050004047A
:1033B2000D0E131516191A1C232526292A2C323410
:1033C20000000000C51066125C1012118D106B1007
:1033D2007F1000000000900B8C0B880B140C760BF6
:1033E200BA03B603B20300000000AB0F5B0F970BEA
:1033F200DE0E740BEA03E203FB032C04DC03D903A5
:10340200D603D303CC03DF03C903C603C303C0033C
:10341200C90E74696E2068696575206775692064D4
:10342200656E3A200052535349203A200074687561
:1034320063206869656E206B6574206E6F69200079
:1034420053656E742061207265706C79006B6574CF
:10345200206E6F69206C616E2064617500746875FE
:1034620063206869656E206B6574206E6F692062E7
:10347200756320320072656376206661696C6564EB
:1034820000677569206475206C696575206B6574C9
:10349200206E6F690074656D706572617475726516
:1034A200313A20200020205E4300646174613A209A
:1034B20000525353492061613A20007468756320B9
:1034C2006869656E206B6574206E6F690074696E41
:1034D2002068696575206E68616E2064756F633A55
:1034E2002000564D4450565F317C315F564D44505A
:1034F200560D0A00696E6974206661696C65640024
:10350200564D4450455F003A323A007C005F564DBA
:0435120044504500DC
:00000001FF
