:100000000C9468000C9402030C94DB020C94900096
:100010000C9490000C9490000C9490000C94900020
:100020000C9490000C9490000C9490000C94290374
:100030000C9490000C9490000C9490000C94900000
:100040000C9491020C9490000C94ED070C94C7074B
:100050000C9490000C9490000C9490000C949000E0
:100060000C9490000C9490000000000023002600E7
:10007000290072740092740048940078C400000053
:100080000000240027002A000000000025002800AE
:100090002B00040404040404040402020202020209
:1000A000030303030303010204081020408001023C
:1000B00004081020010204081020000000080002BB
:1000C0000100000304070000000000000000AC096C
:1000D00011241FBECFEFD8E0DEBFCDBF11E0A0E0FE
:1000E000B1E0ECEEF5E102C005900D92A03BB10746
:1000F000D9F723E0A0EBB1E001C01D92A538B2070B
:10010000E1F710E0C8E6D0E004C02197FE010E94AC
:10011000E00AC736D107C9F70E94090A0C94F40A0D
:100120000C94000008958BEF08959FB7F894809188
:10013000B001882319F081508093B0018091B00103
:10014000811103C08CB58F7B8CBD9FBF08958CB58A
:100150008F778CBD08958CB580688CBD08956EBD79
:1001600000000DB407FEFDCF8EB508959CB59C7FB1
:10017000282F2370922B9CBD2DB582FB992790F9D7
:10018000822F8E7F892B8DBD0895FC01738362833E
:100190000895FC01778366830895FC017583648369
:1001A000089580E00895FC0181850895FC01808513
:1001B0000895FC0187810895FC0186810895FC0162
:1001C000409595854923642B65870895FC016487D4
:1001D0000895FC0163870895FC0162870895FC017E
:1001E00064830895FC0165830895FC0122813381B5
:1001F00023303105D1F381E00895CF93DF93EC01F3
:10020000E881F9810280F381E02DCE0109958823F0
:10021000B9F3DF91CF91089581E00895CF92DF92F5
:10022000EF92FF920F931F93CF93DF93EC017B012B
:100230008A01E881F9810280F381E02D0995D82EA9
:10024000882331F1E114F104D9F001151105C1F051
:10025000CFB6F8948A8D90E00397F801208130E0C2
:10026000281739071CF08A8D84508083F80140815B
:1002700050E0BE01615E7F4FC7010E94EB0ACFBE16
:100280008FB7F894FE01E65EFE4F10821A8E8FBF84
:100290008D2DDF91CF911F910F91FF90EF90DF9007
:1002A000CF9008958091B6019091B701009711F019
:1002B0000C948F0808958091B4019091B501009736
:1002C00011F00C948F0808958091B2019091B301C0
:1002D000009711F00C948F080895CF93DF93FC01E1
:1002E000268137812115310579F02130310541F022
:1002F0002230310539F02330310531F49CE005C05E
:1003000094E003C098E001C090E08CB5837F982B07
:100310009CBD84819581019709F04AC08CB58062AB
:100320008CBD8281938101978430910528F4FC0172
:10033000EC5FFE4FC08101C0C1E08C2F0E94B6006F
:10034000DFB7F8948091B001811127C0ECE9F0E0AB
:100350008491E0EBF0E09491E82FF0E0EE0FFF1FC6
:10036000E258FF4FA591B491EC91E92321F461E0AB
:100370008AE00E94480861E08AE00E9436098CB554
:1003800080618CBD8CB580648CBD61E08DE00E9485
:10039000360961E08BE00E9436098091B0018F5FE1
:1003A0008093B001DFBF8C2FDF91CF910C94B6000A
:1003B0009CB59F7D9CBDB5CFCF93DF93EC018D891C
:1003C0009E89DC01ED91FC910680F781E02D099575
:1003D00061E08F890E94360961E08F890E94480898
:1003E00064E670E080E090E00E94720981E0DF91B5
:1003F000CF9108953FB7F8948091BD019091BE01CF
:10040000A091BF01B091C00126B5A89B05C02F3FA8
:1004100019F00196A11DB11D3FBFBA2FA92F982F2A
:100420008827820F911DA11DB11DBC01CD0142E0A5
:10043000660F771F881F991F4A95D1F708952FB728
:10044000F8946091B9017091BA018091BB019091CB
:10045000BC012FBF08958F929F92AF92BF92CF920F
:10046000DF92EF92FF92CF93DF93EC016B010E943A
:100470001F024B015C01E12CF12C0E941F02DC01E8
:10048000CB0188199909AA09BB098C159D05AE05F0
:10049000BF0530F48A819B81039779F381E001C025
:1004A00080E0DF91CF91FF90EF90DF90CF90BF90F1
:1004B000AF909F908F9008958F929F92AF92BF922E
:1004C000CF92DF92EF92FF92CF93DF93EC016B011B
:1004D0000E941F024B015C01E12CF12C0E941F02C3
:1004E000DC01CB0188199909AA09BB098C159D0566
:1004F000AE05BF0550F4E881F9810280F381E02D5B
:10050000CE010995882351F301C080E0DF91CF919E
:10051000FF90EF90DF90CF90BF90AF909F908F9023
:1005200008951F920F920FB60F9211242F933F93AD
:100530008F939F93AF93BF938091B9019091BA012C
:10054000A091BB01B091BC013091B80123E0230F11
:100550002D3720F40196A11DB11D05C026E8230FFB
:100560000296A11DB11D2093B8018093B90190930B
:10057000BA01A093BB01B093BC018091BD019091E1
:10058000BE01A091BF01B091C0010196A11DB11D96
:100590008093BD019093BE01A093BF01B093C001B1
:1005A000BF91AF919F918F913F912F910F900FBE6F
:1005B0000F901F9018951F920F920FB60F92112453
:1005C0002F933F934F935F936F937F938F939F935B
:1005D000AF93BF93EF93FF93E0910201F09103017A
:1005E0000995FF91EF91BF91AF919F918F917F916D
:1005F0006F915F914F913F912F910F900FBE0F9090
:100600001F9018951F920F920FB60F9211242F93DF
:100610003F934F935F936F937F938F939F93AF938A
:10062000BF93EF93FF93E0910001F09101010995D1
:10063000FF91EF91BF91AF919F918F917F916F91BA
:100640005F914F913F912F910F900FBE0F901F9090
:1006500018951F920F920FB60F9211242F933F936C
:100660004F935F936F937F938F939F93AF93BF93BA
:10067000CF93DF93EF93FF9380910200909103005B
:10068000049709F0CCC02091170030E0F901E6543E
:10069000FF4F8491F901EA55FF4FD491F901EE56CD
:1006A000FF4FC491CC2379F081110E941F08EC2FD9
:1006B000F0E0EE0FFF1FE859FF4FA591B491EC91C8
:1006C000ED2381E009F480E0817090911A00892780
:1006D00029F090911F009F5F90931F0090911E0042
:1006E000981761F090B1903510F09DE101C09BE04A
:1006F00020B1920F90B980931E0003C080B18C5E30
:1007000080B980B1803A08F4DEC082B193B1969589
:10071000879593B982B980911F00853028F082B106
:1007200093B1986093B982B980B1805A80B9109220
:100730001F0081B1882309F466C084B18F5F84B93A
:100740008C3008F4C0C082B193B1982F9F73892F69
:1007500086958695887028E0280F281749F0E82F9D
:10076000F0E0E85FFE4F3081931719F08F5FF5CF0F
:1007700080E020E1829FC001112422B133B196E0D4
:10078000369527959A95E1F7422F36952795369518
:100790002795287038E0320F321749F0E22FF0E049
:1007A000E85FFE4F5081451719F02F5FF5CF20E02D
:1007B000822B909169009923B9F0E091690091E052
:1007C0009E0F90936900F0E085A39091690080915D
:1007D00068009817B0F011B881E080931C0080E0A9
:1007E00090E00E9477080DC08093680090916800A7
:1007F000973008F45EC090916800943408F059C0B6
:10080000DCCF14B860C082B193B188339B4009F04B
:100810005AC081E081B914B81092690054C0809127
:10082000020090910300039709F04DC080916C0085
:1008300091E0980F90936C00811134C0E0916A00B0
:100840008091FB00E81770F080E090E00E9477084C
:10085000809113009091140001969093140080935E
:10086000130020C0F0E0E359FF4F608170E08091F9
:100870006B0091E0980F90936B0002C0759567959F
:100880008A95E2F76170809118000E944808809173
:100890006B00863038F010926B0080916A008F5F99
:1008A00080936A0080916C00883068F010926C0030
:1008B0000AC011B880910F0090911000019690939A
:1008C000100080930F00FF91EF91DF91CF91BF91C6
:1008D000AF919F918F917F916F915F914F913F91D8
:1008E0002F910F900FBE0F901F901895FF920F93AE
:1008F0001F93CF93DF93EC01162FF42E0FB7F894CC
:1009000060E08F890E9448088D899E89612F606808
:10091000DC01ED91FC910190F081E02D0995182FFB
:100920008D899E89DC01ED91FC910190F081E02D93
:100930006F2D099561E08F890E9448080FBF812FB4
:10094000DF91CF911F910F91FF900895CF93DF9387
:10095000FC01228133812130310549F0EC0140E076
:1009600061E00E94760481E090E09B838A8381E0CD
:10097000DF91CF910895CF92DF92EF92FF920F9384
:100980001F93CF93DF934C3F08F066C0142F072FBF
:10099000F62EEC01E881F9810484F585E02D0995B6
:1009A000CE010E94990740E06DE0CE010E947604DE
:1009B0004A8560E0CE010E9476044B8560E0CE015E
:1009C0000E9476044C8560E0CE010E9476044D853D
:1009D00060E0CE010E947604EFB6F89460E08F8963
:1009E0000E9448088D899E89DC01ED91FC9101905F
:1009F000F081E02D60E80995CF2CD02E012F015019
:100A000068F08D899E89F60161916F01DC01ED919D
:100A1000FC910190F081E02D0995F1CF61E08F8983
:100A20000E944808EFBE44E0410F62E2CE010E94FE
:100A300076048A819B81039789F043E061E0CE01CF
:100A40000E94760440E460E4CE010E94760483E0D4
:100A500090E09B838A8302C080E001C081E0DF9147
:100A6000CF911F910F91FF90EF90DF90CF9008955D
:100A7000CF93DF93FC012281338123303105B9F01C
:100A8000EC0182819381049771F045E061E0CF0130
:100A90000E94760440E060E4CE010E94760484E087
:100AA00090E09B838A83C65EDE4F888101C080E030
:100AB000DF91CF9108950F931F93CF93DF93EC01B4
:100AC000162F0FB7F89460E08F890E9448088D892F
:100AD0009E89612F6F77DC01ED91FC910190F0818F
:100AE000E02D09958D899E89DC01ED91FC910190A5
:100AF000F081E02D60E00995182F61E08F890E9458
:100B000048080FBF812FDF91CF911F910F9108955A
:100B1000EF92FF920F931F93CF93DF9300D01F921A
:100B2000CDB7DEB78C010E94DC01E82E811102C036
:100B3000E12C90C0F801808D823029F08330C1F71C
:100B4000FF24F39401C0F12C40E861E0C8010E9449
:100B500076046AE070E080E090E00E94720961E053
:100B6000C8010E945B05803819F760E0F801808DAC
:100B70000E943609F801818D8F3F49F48091B101BF
:100B80008430B0F691E0980F9093B101818FF80115
:100B9000818DE82FF0E0EE0FFF1FEE54FE4F118322
:100BA0000083811103C064E671E00AC0813019F44A
:100BB0006BE571E005C0823009F0BACF62E571E003
:100BC0008F2D0E94AD0740E06EE0C8010E947604C0
:100BD00040E06FE0C8010E947604C8010E949907B6
:100BE00043E050E062E770E0CE0101960E94D70A30
:100BF00049816DE1C8010E9476044A816EE1C80115
:100C00000E9476044B8166E2C8010E94760440E0AF
:100C100060E2C8010E94760448E061E2C8010E94D7
:100C200076044CE666E0C8010E94760440E867E07E
:100C3000C8010E94760440E068E0C8010E94760482
:100C400044E06DE4C8010E94760448E869E0C80108
:100C50000E9476048E2D0F900F900F90DF91CF9110
:100C60001F910F91FF90EF900895CF93DF93CDB731
:100C7000DEB7CC5FD1090FB6F894DEBF0FBECDBF93
:100C80008BEFC450DF4F8883CC5FD040AE0144501F
:100C90005F4FBE016F5F7F4F8EE592E00E940E01B5
:100CA000882339F08AE691E00E947907CE01019607
:100CB00002C086E791E00E948B07C450DF4F0FB659
:100CC000F894DEBF0FBECDBFDF91CF910895CF92D4
:100CD000DF92EF92FF920F931F93CF93DF936C01FC
:100CE0007A018B01C0E0D0E0CE15DF0581F0D8019C
:100CF0006D918D01D601ED91FC910190F081E02D77
:100D0000C6010995892B11F02196EECF7E01C7010E
:100D1000DF91CF911F910F91FF90EF90DF90CF90D7
:100D20000895089580E090E00895FC01538D448D6E
:100D3000252F30E0842F90E0821B930B541710F086
:100D4000CF96089501970895FC01918D828D981793
:100D500061F0828DDF01A80FB11D5D968C91928D9F
:100D60009F5F9F73928F90E008958FEF9FEF08959C
:100D7000FC01918D828D981731F0828DE80FF11D65
:100D8000858D90E008958FEF9FEF0895FC01918D80
:100D9000228D892F90E0805C9F4F821B91098F7379
:100DA0009927089581EC91E00E94C60621E0892BE5
:100DB00009F420E0822F0895FC01848DDF01A80F43
:100DC000B11DA35ABF4F2C91848D90E001968F7373
:100DD0009927848FA689B7892C93A089B1898C9192
:100DE000837080648C93938D848D981306C00288E1
:100DF000F389E02D80818F7D80830895EF92FF92AB
:100E00000F931F93CF93DF93EC0181E0888F9B8D2D
:100E10008C8D981305C0E889F989808185FD26C0ED
:100E2000F62E0B8D10E00F5F1F4F0F731127E02E72
:100E30008C8DE8120CC00FB607FCFACFE889F9894F
:100E4000808185FFF5CFCE010E94DC06F1CF8B8D2E
:100E5000FE01E80FF11DE35AFF4FF0829FB7F894AF
:100E60000B8FEA89FB89808180620AC09FB7F89462
:100E7000EE89FF896083E889F989808183708064C5
:100E800080839FBF81E090E0DF91CF911F910F9110
:100E9000FF90EF900895CF93DF93EC01888D882326
:100EA000C9F0EA89FB89808185FD05C0A889B989D7
:100EB0008C9186FD0FC00FB607FCF5CF808185FFB2
:100EC000F2CFA889B9898C9185FFEDCFCE010E9420
:100ED000DC06E7CFDF91CF91089580E090E0892B89
:100EE00029F00E94D20681110C94000008950E94FE
:100EF000E60A009769F0FC0101900020E9F73197BC
:100F0000AF01481B590BBC0181EC91E00C946706C2
:100F100080E090E00895CF93DF930E947907EC0181
:100F200082E891E00E9479078C0F9D1FDF91CF919D
:100F30000895CF93DF93FC01228133812230310564
:100F400049F0EC0141E061E00E94760482E090E02B
:100F50009B838A83DF91CF9108958230B8F4E82F84
:100F6000F0E0EE0FFF1FE050FF4F71836083813090
:100F700039F080916900836080936900E89A089550
:100F8000809169008C6080936900E99A08951F92AE
:100F90000F920FB60F9211242F933F934F935F93AD
:100FA0006F937F938F939F93AF93BF93EF93FF9331
:100FB00081EC91E00E94DC06FF91EF91BF91AF912F
:100FC0009F918F917F916F915F914F913F912F9161
:100FD0000F900FBE0F901F9018951F920F920FB693
:100FE0000F9211242F938F939F93EF93FF93E09190
:100FF000D101F091D2018081E091D701F091D80127
:1010000082FD12C090818091DA018F5F8F732091F1
:10101000DB01821751F0E091DA01F0E0EF53FE4F6F
:10102000958F8093DA0101C08081FF91EF919F91AC
:101030008F912F910F900FBE0F901F9018958330B6
:1010400081F028F4813099F08230A1F00895873042
:10105000A9F08830B9F08430D1F4809180008F7D80
:1010600003C0809180008F7780938000089584B5BD
:101070008F7702C084B58F7D84BD08958091B000C4
:101080008F7703C08091B0008F7D8093B00008956A
:101090001F93CF93DF93282F30E0F901E654FF4FE1
:1010A0008491F901EA55FF4FD491F901EE56FF4FB3
:1010B000C491CC23C1F0162F81110E941F08EC2F80
:1010C000F0E0EE0FFF1FE857FF4FA591B4919FB7D7
:1010D000F894111104C08C91D095D82302C0EC91E2
:1010E000DE2BDC939FBFDF91CF911F910895CF93AB
:1010F000DF93FC01228133812230310569F0EC015C
:10110000638D818D0E94480860E0888D0E944808A8
:1011100082E090E09B838A83DF91CF910895DF92F4
:10112000EF92FF920F931F93CF93DF93EC0162E155
:101130000E945B052A813B812430310521F4982FE0
:10114000907A09F069C02A813B812430310509F089
:1011500074C086FF72C063E1CE010E945B05082F58
:1011600060E1CE010E945B05482F6DE0CE010E9438
:101170007604DFB6F89460E08F890E9448088D8974
:101180009E89DC01ED91FC910190F081E02D60E001
:1011900009957E01BBE1EB0EF11C102F112379F0B4
:1011A0008D899E89DC01ED91FC910190F081E02D0B
:1011B00060E00995F70181937F011150EFCF61E065
:1011C0008F890E944808DFBE0A8F4FEF62E1CE018F
:1011D0000E9476046AE1CE010E945B0589588E87E1
:1011E0008A8DFE01E65EFE4F843090F08B8D8E83FB
:1011F0008C8D8F838D8D88878E8D89878D818111D0
:1012000029C09E818C81981729F18E818F3F11F121
:101210008081882331F026C08F8598890196988B2C
:101220008F874FEF62E1CE01DF91CF911F910F9138
:10123000FF90EF90DF900C9476042A813B8123305D
:10124000310579F783FFEDCF8B899C8901969C8BC3
:101250008B8B08C089899A8901969A8B898B81E04A
:101260008083D6CFCE010E949907DBCFCF93DF9347
:1012700090E0FC01EA55FF4F2491FC01EE56FF4F30
:101280008491882361F190E0880F991FFC01E25856
:10129000FF4FC591D491FC01E857FF4FA591B49140
:1012A000611109C09FB7F8948881209582238883B3
:1012B000EC912E230BC0623061F49FB7F8948881C3
:1012C000322F309583238883EC912E2B2C939FBF54
:1012D00006C08FB7F894E8812E2B28838FBFDF914B
:1012E000CF9108958F929F92AF92BF92CF92DF924B
:1012F000EF92FF926B017C010E94FA014B015C01AD
:10130000C114D104E104F104F1F00E94FA01DC01FE
:10131000CB0188199909AA09BB09883E9340A10508
:10132000B10570F321E0C21AD108E108F10888EE96
:10133000880E83E0981EA11CB11CC114D104E104E5
:10134000F10419F7DDCFFF90EF90DF90CF90BF90C1
:10135000AF909F908F900895E1ECF1E0138212829C
:1013600088EE93E0A0E0B0E084839583A683B78302
:101370008CE191E09183808385EC90E09587848770
:1013800084EC90E09787868780EC90E0918B808B4F
:1013900081EC90E0938B828B82EC90E0958B848B38
:1013A00086EC90E0978B868B118E128E138E148EA6
:1013B000ADE7B3E013961C921E92129715961C92FD
:1013C0001E92149717961C921E9216978EE291E029
:1013D00011969C938E93EEE5F2E0138212828FEFCA
:1013E00084838287838714861586108A1786128ADB
:1013F000118A148A138AB68BA58B9AE0978B22E404
:1014000031E0318320831092780392E0908F818FB6
:101410000895CF93DF93CDB7DEB727970FB6F89433
:10142000DEBF0FBECDBF789484B5826084BD84B525
:10143000816084BD85B5826085BD85B5816085BDCF
:1014400080916E00816080936E0010928100809187
:10145000810082608093810080918100816080930F
:101460008100809180008160809380008091B10034
:1014700084608093B1008091B00081608093B0005F
:1014800080917A00846080937A0080917A008260F3
:1014900080937A0080917A00816080937A008091B5
:1014A0007A00806880937A001092C100E091D101A7
:1014B000F091D20182E08083E091CD01F091CE01E4
:1014C0001082E091CF01F091D0018FEC80831092D7
:1014D000D901E091D501F091D60186E08083E091B9
:1014E000D301F091D401808180618083E091D301A8
:1014F000F091D401808188608083E091D301F091E4
:10150000D401808180688083E091D301F091D4017F
:1015100080818F7D80838EE592E00E948805811115
:1015200004C085E891E00E948B070E941F02009191
:10153000790310917A0320917B0330917C03DC01C5
:10154000CB01801B910BA20BB30B88389341A105F3
:10155000B105F8F081E991E00E948B0787E0E8EAA5
:10156000F1E0DE01119601900D928A95E1F747E0D6
:10157000BE016F5F7F4F8EE592E00E94BB040E9428
:101580001F026093790370937A0380937B03909397
:101590007C038EE592E00E94F5008EE592E00E94C9
:1015A000380581110E9435060E946D07BECFFB01F0
:1015B000DC0102C005900D9241505040D8F70895CB
:1015C000EE0FFF1F0590F491E02D099481E090E06B
:1015D000F8940C94F40AFB01DC0102C001900D9216
:0C15E00041505040D8F70895F894FFCF18
:1015EC0092009200050004040D0E131516191A1C16
:1015FC00232526292A2C323400000000FE0667061B
:10160C0095064B07C606A406B80600000000AF00FE
:10161C00AB00A7006D019500CD00C900C50000000E
:10162C000000880538050E01BB049300FD00F50091
:10163C002B025C02EF00EC00E900E600DF00F20098
:10164C00DC00D900D600D300A604676F7420726545
:10165C00706C793A200072656376206661696C65FE
:10166C0064000D0A00696E6974206661696C6564BA
:10167C000053656E64696E6720746F20726639352D
:10168C005F736572766572006E6F64653131000050
:00000001FF
